:100000000C94F9000C9421010C9421010C94210111
:100010000C9421010C9421010C9421010C942101D8
:100020000C9421010C9421010C94F4170C94631886
:100030000C9421010C9421010C9421010C942101B8
:100040000C9421010C9421010C9421010C942101A8
:100050000C9421010C9421010C9421010C94AA17F9
:100060000C9421010C9421010C9421010C94210188
:100070000C9421010C9421010C9421010C94210178
:100080000C9421010C9421010C9421010C94210168
:100090000C9421010C9421010C9421010C94210158
:1000A0000C9421010C9421010C9421016364696E6C
:1000B0006F70737578585B0006C0FF0A000CA101D1
:1000C0007508150026FF0095400901810295400939
:1000D000029102C0080B00020202000009040000A5
:1000E00001020200000524001001052401010104A1
:1000F00024020605240600010705810310004009BB
:10010000040100020A000000070502024000000787
:100110000583024000000403090412010002EF02FB
:1001200001406D048BC0000101020301556E6B6E2E
:100130006F776E004C6F6769746563682047616D07
:10014000696E67204D6F757365000000000200093D
:100150000F0000030401000C00000000000000007C
:100160000000000000000000000000000025002842
:10017000002B002E00310000000000240027002A80
:10018000002D0030000404040404030405020202EC
:100190000204030202020206060606060604040220
:1001A0000202040404080201104080401020408034
:1001B00040800802040180402010020110801020BD
:1001C00040402005010902A1018501050919012905
:1001D00008150025019508750181020501093009FE
:1001E0003109381581257F750895038106C0C21A2B
:1001F000842011241FBECFEFDAE0DEBFCDBF23E0A5
:10020000AEEFB1E001C01D92AD3BB207E1F711E0E6
:10021000A0E0B1E0EAEDFBE402C005900D92AE3F34
:10022000B107D9F710E0C8EFD0E004C02197FE0174
:100230000E94CB20C73FD107C9F70E946D1C0C94C8
:10024000E0250C9400008CBD9DBD089590E0FC015C
:10025000EC55FE4F24918B579E4FFC0184918823CF
:1002600099F090E0880F991FFC01E958FE4FA59185
:10027000B491FC01E759FE4F859194918FB7F894A2
:10028000EC91E22BEC938FBF0895FC018091670203
:10029000882311F13FB7F89482E08093E900209120
:1002A000F200822F90E01816190614F481E090E015
:1002B000882339F0289844E6409366024091F10083
:1002C0004083222339F02091F200211103C02BE654
:1002D0002093E8003FBF08958FEF9FEF08953FB749
:1002E000F8948091620290916302A0916402B091AF
:1002F000650226B5A89B05C02F3F19F00196A11DE8
:10030000B11D3FBFBA2FA92F982F8827BC01CD015F
:10031000620F711D811D911D42E0660F771F881FBE
:10032000991F4A95D1F708958F929F92AF92BF92ED
:10033000CF92DF92EF92FF924B015C010E946F011E
:100340006B017C010E946F016C197D098E099F0968
:10035000683E734081059105A8F321E0821A910857
:10036000A108B10888EEC80E83E0D81EE11CF11C7C
:1003700081149104A104B10429F7FF90EF90DF905C
:10038000CF90BF90AF909F908F9008952FB7F89423
:1003900060915E0270915F028091600290916102B3
:1003A0002FBF089540910D0250910E0220910B0233
:1003B00030910C0242175307B4F49091E800957005
:1003C000E1F39091E80092FD19C08093F1008091D3
:1003D0000D0290910E0201968F739927892B19F4C3
:1003E0008EEF8093E80080910D0290910E020196AD
:1003F00090930E0280930D0281E0089580E00895AD
:10040000DF92EF92FF920F931F93CF93DF93D82E3B
:100410008A01EB017B01E40EF51ECE15DF0559F0D4
:10042000D7FE12C0FE0184910E94D2012196811153
:10043000F4CF0FEF1FEFC801DF91CF911F910F9104
:10044000FF90EF90DF9008958881EECF2FB7F8945A
:1004500087708093E9009091E800892F807295FF62
:1004600004C09091F20080E4891B2FBF08957F9211
:100470008F929F92AF92BF92CF92DF92EF92FF92B4
:100480000F931F93CF93DF93C82E8B017A01809136
:100490006702811110C08FEF9FEFDF91CF911F9105
:1004A0000F91FF90EF90DF90CF90BF90AF909F9013
:1004B0008F907F9008958091110280FF05C08091F8
:1004C000E00082608093E000CE2DDF2DD12C8AEFFA
:1004D000B82E8C2D8770982E8C2D8072882E8C2DA6
:1004E0008074782E9AE3A92E209719F4DD2009F460
:1004F00052C08C2D0E94260281110AC0BA94BB20E2
:1005000051F261E070E080E090E00E949401ECCF55
:100510008C171D0611F00CF08C2F9FB7F894909259
:10052000E9002091E80025FD02C09FBFDDCF282F04
:1005300030E0C21BD30B882029F08150A0F010922C
:10054000F100FBCFF801C7FC0AC0815050F0419187
:100550004093F100FACF44914093F10031968150DD
:10056000D0F7020F131FDD2021F0A092E800D12C5C
:10057000DCCF8091E80085FD07C0A092E800DD2473
:10058000D394209791F2F3CF209779F6772069F2F0
:10059000A092E800CACF5D9884E680931002C7015C
:1005A0007CCF615030F02091F100FC012083019656
:1005B000F8CF289884E6809366020895AF92BF92A0
:1005C000DF92EF92FF920F931F93CF93DF935C0123
:1005D0008B01EB019BEFD92E2097C1F07E01C13436
:1005E000D1051CF080E4E82EF12C8091E80082FF18
:1005F000FCCFC8018C1B9D0B6E2D8A0D9B1D0E948C
:10060000D102D092E800CE19DF09E6CFC801DF9110
:10061000CF911F910F91FF90EF90DF90BF90AF901F
:100620000895AF92BF92CF92DF92EF92FF920F9315
:100630001F93CF93DF936C017B018B01040F151F78
:10064000EB015E01AE18BF08C017D10759F06991E0
:10065000D601ED91FC910190F081E02DC601099544
:10066000892B79F7C501DF91CF911F910F91FF90F1
:10067000EF90DF90CF90BF90AF90089580910302EC
:1006800081110DC082E08093FF0184E0809300021D
:10069000109202021092010281E0809303028FEF18
:1006A00091E008950F931F93CF93DF931F92CDB7DF
:1006B000DEB782E0898342E450E064ED70E080E8D8
:1006C0000E9400020E943E03DC0112960D911C91D3
:1006D0000115110589F0D801ED91FC910280F3819B
:1006E000E02DBE016F5F7F4FC801099597FD04C0E3
:1006F000F80100851185ECCF89810F90DF91CF91B2
:100700001F910F910895CF93DF93FC01DB0181814D
:1007100014963C911497682F630F7727771F6830E2
:1007200071059CF5C281D381209739F5B383A283EB
:10073000908112969C93129713968C93139715960B
:100740008C911597890F808390E080E0831708F5DE
:100750002181C22FD0E0BE0160507F4F16964D918F
:100760005C911797480F591FEA014881EB014883B4
:100770002F5F21830196EACFEA014885598541150B
:100780005105D1F7B987A887D3CF80E0DF91CF910A
:10079000089581E0FBCFCF93DF93EC0180911201AC
:1007A000882331F083E00E9437021816190634F0CE
:1007B00081E090E09B838A8380E090E0DF91CF919D
:1007C0000895CF93DF931F92CDB7DEB76983DC0125
:1007D000ED91FC910280F381E02D41E050E0BE01FB
:1007E0006F5F7F4F09950F90DF91CF91089583E060
:1007F0008093E9008091F200882319F08AE38093C6
:10080000E800089583E00E94260290E00895CF93C7
:10081000DF931F92CDB7DEB7FC018485958597FDE8
:1008200008C02FEF3FEF358724870F90DF91CF91DE
:100830000895CE0101960E944501019719F489811E
:1008400090E0F3CF8FEF9FEFF0CF0F931F93CF93F5
:10085000DF931F92CDB7DEB78C01FC0184859585AF
:1008600097FF0BC0CE0101960E944501019771F4DC
:10087000898190E0F80195878487F80184859585C2
:100880000F90DF91CF911F910F9108958FEF9FEF00
:10089000F1CFFC018485958597FD0BC09FB7F89437
:1008A00082E08093E9008091F2009FBF90E0019682
:1008B00008959FB7F89482E08093E9008091F20058
:1008C0009FBF90E00895DC01FB0112962C911297D6
:1008D000848195812817190641F491818081813A9C
:1008E00031F49D7F81E0913009F080E008958132FC
:1008F000E1F79B3029F482811F968C9381E0089563
:100900009A3099F7828150968C93F8CFDC01FB01E5
:1009100088E4808389E4818384E482831D969C91AA
:100920001D979F709F5B93831D968D919C9124E0F2
:10093000969587952A95E1F78F708F5B848385E084
:100940000895EF92FF920F931F93CF93DF93FB01D4
:100950002081213871F52381223259F5DC0112966C
:100960004C91248135814217130619F5EC010B8552
:100970001C85F12CE12C0115110589F0F801448149
:1009800055816281738180E80E9400028F3F980741
:1009900049F0E80EF91ED8010D911C91ECCF81E0D1
:1009A0008F87C701DF91CF911F910F91FF90EF903B
:1009B000089590E080E0F6CFCF93DF93CDB7DEB718
:1009C00069970FB6F894DEBF0FBECDBFFC01DB0107
:1009D0008C918F5F8C939E012D5F3F4F8DE0D901ED
:1009E0001D928A95E9F729E0298384E08A8391E0C2
:1009F0009D8383E08E832A8721E22B879C879D87B6
:100A00009F8722E2288B27E02B8B25E02C8B8E8B77
:100A100020E430E0388F2F8B998F82818B839585EE
:100A20008685998B8A8B838180688D8B49E150E024
:100A3000BE016F5F7F4F80E00E94000269960FB693
:100A4000F894DEBF0FBECDBFDF91CF9108950F9315
:100A50001F93CF93DF93EC01FB012A818481958161
:100A60002817190641F491818081813A31F49D7FE4
:100A700081E0913049F080E007C08132E1F79B309E
:100A800041F482818F8B81E0DF91CF911F910F9193
:100A900008959A3019F48381888FF5CF993059F7EA
:100AA000068117818381833081F489A19AA1081777
:100AB000190709F7B8018F8D98A10E94DE0289A15C
:100AC0009AA190689AA389A3DECF8230A1F68B8D7C
:100AD0009C8D892B81F6898D9A8D801791075CF208
:100AE000801B910B2D8D3E8DB801820F931F0E94AC
:100AF000DE021C8F0B8FC7CFFB0120812138B1F4A0
:100B00002381223299F4DC0112964C9112972481B0
:100B100035814217130651F421E057962C934CE18E
:100B200050E068EB70E080E80C94000290E080E018
:100B30000895CF93DF93CDB7DEB769970FB6F894DA
:100B4000DEBF0FBECDBFFC01DB019C919F5F9C937C
:100B50009E012D5F3F4F81E1D9011D928A95E9F7F2
:100B600029E0298384E08A8391E09D8383E08E835A
:100B70002A8721E22B879C879D879F8722E2288BEB
:100B80002CE1298B27E02B8B25E02C8B8E8B20E40E
:100B900030E0388F2F8B998F82818B83838180689F
:100BA0008D8B49E150E0BE016F5F7F4F80E00E9476
:100BB000000269960FB6F894DEBF0FBECDBFDF917D
:100BC000CF910895FC01838180640C943702CF9308
:100BD000DF931F92CDB7DEB76983DC01ED91FC9105
:100BE0000288F389E02D41E050E0BE016F5F7F4F46
:100BF00009950F90DF91CF9108950A970C94E7051E
:100C000008950895DC015B968D919C915C97181670
:100C1000190674F459962D913C915A97281B390B5B
:100C20005D96ED91FC91E20FF31F808190E00895B5
:100C30008FEF9FEF08950A970C940206FC01438DF5
:100C4000548D141615068CF4858D968D218D328D5C
:100C5000BA0161507109748F638FF901E41BF50BC0
:100C6000E80FF91F808190E008958FEF9FEF0895BE
:100C70000A970C941E06FC018189928997FF02C095
:100C800090E080E00895FC01838D948D97FF02C071
:100C900090E080E00895FC0182818F5BFB018083FE
:100CA00081E00895CF92DF92EF92FF921F93CF934E
:100CB000DF931F92CDB7DEB77B016A018091ED0211
:100CC00081112CC011E01093E0021093E10286EE36
:100CD00092E09093E3028093E2021092E502109278
:100CE000E40285E691E09093DD028093DC021092AD
:100CF000E8021092E7021092EA021092E9021093C1
:100D0000EB021093EC0281EC8093E6020E943E031A
:100D10006CED72E00E9483031093ED0281E0898301
:100D200041E050E0BE016F5F7F4F8091DF020E9483
:100D3000370297FD07C08091DF02A601B7018064EA
:100D40000E9437020F90DF91CF911F91FF90EF909B
:100D5000DF90CF900895CF93DF9300D000D0CDB730
:100D6000DEB79091050399838A836B834C8344E0BB
:100D700050E0BE016F5F7F4F83E093E00E94520618
:100D80000F900F900F900F90DF91CF910895909159
:100D9000050380958923981739F08093050340E077
:100DA00060E080E00C94AB06089590910503892BD8
:100DB000981739F08093050340E060E080E00C94E0
:100DC000AB060895CF93DF93EC018A819B81DC0110
:100DD000ED91FC910480F581E02D6A8509958A8565
:100DE000813439F4EA81FB81EA58FF4F80818460C5
:100DF00080831A861B861C861D861E861F86188A7F
:100E000080E0DF91CF91089581E0693009F080E0C2
:100E10000895FC01828508950F931F93CF93DF936C
:100E2000FC018B01EA0180819181892B31F1928152
:100E3000992349F128813981232BF9F0D8012D918B
:100E40003C91D9014C918381682F691B770B80817C
:100E50009181860F971FDC014C93828181508283A0
:100E600088819981019799838883D8018D919C917C
:100E7000119701968D939C93DACF80E0DF91CF910B
:100E80001F910F9108958381828381E0F7CFDF92D4
:100E9000EF92FF920F931F93CF93DF93EC0185E0C6
:100EA000E62EF12CFE01869FE00DF11D11249085A8
:100EB00096FF24C0192F177001E085E0D82E8FEF20
:100EC000800F8F3008F001E0602F70E0062FD69E73
:100ED000F001D79EF00D1124EC0FFD1F8085869543
:100EE000869586958770181701F16F5F7F4F603187
:100EF00068F38D81811302C011501D8385E08E9DA2
:100F0000F0018F9DF00D1124EC0FFD1F108681E084
:100F1000818712862296D783C683DF91CF911F9156
:100F20000F91FF90EF90DF900895CE010E94470748
:100F3000C6CFFC0120812EBD9B012150310941F01B
:100F400051810DB407FEFDCF4EB55EBD4193F5CF87
:100F500061507109860F971F0DB407FEFDCF2EB5A6
:100F6000FC0120830895FC0121E0613499F49C0187
:100F7000255B3F4F61E0AC014E5F5F4F1586668792
:100F800017865487438735962E173F07B9F7FC011C
:100F9000158208953585631729F02F5F3596203126
:100FA000C9F70895622F0C944707CF93DF93FC0194
:100FB00067FD12C0283080F4442319F08581873002
:100FC00059F0EF01A1E0B0E08D85882349F1119639
:100FD0002596A031B105C1F780E018C085E08A9F51
:100FE000E0018B9FD00D1124CE0FDF1F442389F029
:100FF00081E4888785818F5F858325E02A9FC001F2
:101000002B9F900D1124E80FF91F8085DF91CF9160
:10101000089581E08887F1CF2770687B622B0FC02D
:101020006623E1F26770660F660F660F4423A1F333
:10103000606485818F5F85838770687F682B25E07A
:101040002A9FC0012B9F900D1124E80FF91F608784
:10105000862FDCCFFC0121E0611102C006960895C5
:101060003585631739F02F5F35962031C9F790E049
:1010700080E00895069635E0239F800D911D112490
:10108000089590E080E0089581E008953F924F92A6
:101090005F926F927F928F929F92AF92BF92CF9208
:1010A000DF92EF92FF920F931F93CF93DF9300D0C5
:1010B00000D0CDB7DEB76C017A8369835C834B8344
:1010C00084E0482E360182E1680E711C93E0392ECF
:1010D0005601A7E0AA0EB11C12E055245394460114
:1010E000B0E18B0E911C29813A812115310509F45B
:1010F000CDC0F60180A18230F1F0A8F5882309F473
:1011000057C0813091F7AE014F5F5F4FBE016D5FF9
:101110007F4FC5010E940C07882309F4B7C0D60190
:101120001596ED91FC911697808191968C939197ED
:10113000818192968C93F6017682658230A2D601E7
:1011400092968C919297843011F493961C92F601AA
:1011500081A18250848325813681308727838287CD
:10116000818740A205C0833051F3843009F0BDCFA0
:10117000D60192968C919297843019F1853009F4BA
:101180004BC0823009F075C0AE014F5F5F4FBE01AA
:101190006D5F7F4FC5010E940C07882309F476C05C
:1011A000F601858984A3F6019682858210A29BCFE1
:1011B000148385819681908787831287118750A237
:1011C000A2CFAE014F5F5F4FBE016D5F7F4FC50184
:1011D0000E940C07882309F459C0D60155968C91BA
:1011E0005597833001F756968C9156978130D9F6F2
:1011F00098969C91989757968C91992351F08823B3
:1012000091F2F60153A2928996A3938997A385A39D
:10121000CACF823041F6F5CFAE014F5F5F4FBE01BE
:101220006D5F7F4FC5010E940C07882379F1D601BD
:1012300093968C919397882309F4B5CF12968D914C
:101240009C91009709F4AFCFDC01ED91FC910190E6
:10125000F081E02D7401D60195960C9195979796A3
:101260002C91979796964C91969794966C91099598
:101270009ACFF60185858823F9F0813041F1D601B6
:101280001E968D919C91892B09F48DCF0F900F9014
:101290000F900F90DF91CF911F910F91FF90EF90E2
:1012A000DF90CF90BF90AF909F908F907F906F9086
:1012B0005F904F903F90089591968C9191978250B6
:1012C000990B1F969C938E931E971D965C92298175
:1012D0003A818B819C81782F692FF601468557854D
:1012E0004115510581F001962115310539F0415024
:1012F00051095787468721503109EDCF7B836C8395
:101300001A821982BCCF9C838B833A8329831586EA
:10131000B6CF0895EF92FF92CF93DF93FC01E701E0
:101320008289823021F16787408B9B819370933053
:10133000F1F49A8197FF1BC02E81308D321708F48B
:10134000208F282F30E0D901AA0FBB1FA20FB31F97
:10135000AE0FBF1F9F7017969C9317979C8118968E
:101360009C93189794E019969C938F5F828BDF91E2
:10137000CF91FF90EF900895EF92FF920F93029715
:101380000E948A090F91FF90EF900895FC018789D0
:10139000089570E0660F771F860F971FFC01858503
:1013A0009685089581E0623009F080E0089581E03B
:1013B000633009F080E00895FC0186810895CF93A1
:1013C000DF93EC018C819D81DC01ED91FC91048027
:1013D000F581E02D6E8109951F86188A81E08A8B40
:1013E0001E821B8A1C8A1D8A1E8A1F8A80E0DF914A
:1013F000CF9108952E9808952E9A089570E0660F63
:10140000771F860F971FFC015687458781E0089557
:101410004F925F926F927F92AF92BF92DF92EF9264
:10142000FF920F931F93CF93DF93273008F4C6C02A
:10143000F8012081213009F0C1C0D180F3E0DF1232
:1014400002C022E0D22E7C010E94C6012B013C0189
:10145000F70186819781A085B185A3019201281BA0
:10146000390B4A0B5B0BDA01C9010597A105B105E0
:1014700018F485818D15E9F1D0E0C0E0AA24A39489
:10148000B12CF7012581C5010C2E01C0880F0A94EB
:10149000EAF7922F98238D2109F46DC091110EC0A7
:1014A000C230D10509F463C00CF054C0209709F490
:1014B0005CC082E0C130D10509F454C02196C73028
:1014C000D105F9F6D1100FC081E00E94C70682E075
:1014D0000E94C70684E00E94C70688E00E94C706F3
:1014E00080E10E94C706F701D58246825782608656
:1014F0007186F80182819381648175818138FFEF63
:101500009F070CF457C08038910514F08FE790E0E6
:1015100061382FEF72070CF44FC06038710514F07A
:101520006FE770E0F8014681811105C0611103C0C9
:10153000442309F443C0DF91CF911F910F91FF9095
:10154000EF90DF90BF90AF907F906F905F904F9043
:101550000C94AB06C330D10561F080E1C430D105F5
:1015600009F0ACCF0E94D506A9CF81E0FBCF84E083
:10157000F9CF88E0F7CF992309F4A0CFC230D10585
:10158000A9F054F4209781F082E0C130D10509F030
:1015900095CF0E94C70692CFC330D10549F080E1B4
:1015A000C430D105B1F38ACF81E0F3CF84E0F1CF2D
:1015B00088E0EFCF81E8ACCF61E8B4CFDF91CF9185
:1015C0001F910F91FF90EF90DF90BF90AF907F90B1
:1015D0006F905F904F90089589E692E00E944904D1
:1015E000892B29F089E692E00E940704F5CF08953F
:1015F000089580E00895089580E0089508950F9378
:101600001F93CF93DF93D82FC62F8A0180E591E0F7
:101610000E9423010E94FA09D260DEBDF8018C2FDE
:10162000882339F00DB407FEFDCF91919EBD815006
:10163000F7CFC00FD12FD11D0DB407FEFDCF0E94F3
:10164000FC09CE01DF91CF911F910F9108950F9367
:101650001F93CF93DF9300D0CDB7DEB7182F062F9F
:1016600080E591E00E9423010E94FA09126019832B
:101670000A8362E070E0CE0101960E9499070E9401
:10168000FC090F900F90DF91CF911F910F9108955A
:101690009F92AF92BF92CF92DF92EF92FF920F9301
:1016A0001F93CF93DF936C01C42FD22F992493946F
:1016B000E62EF12CEE0CFF1CE80EF91E86E5E80E76
:1016C000F11CA42EB12CABE2AA0EB11CAA0CBB1CBF
:1016D000AC0CBD1CF70180819181DC01ED91FC9186
:1016E0000280F381E02D202F4D2F6C2F0995182FAC
:1016F000803EC9F5C1112BC061E088EE0E94270B26
:1017000066E670E080E090E00E949401F70180813D
:101710009181DC01ED91FC910190F081E02D202F71
:101720004D2F6C2F0995182F8D30D1F58FEF890D26
:101730008330F8F0C11137C061E088EE0E94270BBA
:1017400066E670E080E090E00E9494011CC0F50124
:1017500080819181DC01ED91FC910284F385E02D83
:101760006D2F0995D3CF8D3061F48FEF890D8330C4
:1017700050F464E670E080E090E00E94940193945D
:10178000A9CF882319F2812FDF91CF911F910F915B
:10179000FF90EF90DF90CF90BF90AF909F90089513
:1017A000882389F3C7CF8C2F90E08B96880F991FE1
:1017B0008C0D9D1DFC0180819181DC01ED91FC91DE
:1017C0000284F385E02D6D2F0995DDCF8EBD0000DD
:1017D0000DB407FEFDCF8EB50895CF93C82F80E5D9
:1017E00091E00E9423010E94FA098C2F0E94E60BCF
:1017F00080E00E94E60BC82F0E94FC098C2FCF913D
:1018000008958F929F92AF92BF92CF92DF92EF9204
:10181000FF920F931F93CF93DF93882E962E5A013A
:101820000E94C6016B017C0128E8C20E23E1D21E92
:10183000E11CF11C10E000E0D0E0C0E098280E941C
:10184000C6016C197D098E099F0997FF1EC0692D7D
:1018500080EF0E94270B0E94C6016C197D098E093A
:101860009F0997FF09C088EC0E94ED0B87FFF3CF1B
:1018700060E888EC0E94270B88EF0E94ED0BC82FD0
:10188000CF70C43081F0CE30B9F08C2FDF91CF9182
:101890001F910F91FF90EF90DF90CF90BF90AF908E
:1018A0009F908F9008950F5F1F4FA114B10439F2DC
:1018B0000A151B0521F6E9CFDF5FD33009F0BFCF52
:1018C000E4CFAF92BF92CF92DF92EF92FF920F934D
:1018D0001F93CF93DF93EC01B62EA42E69010E94D3
:1018E0002A087C0186EDE114F10409F447C0D70110
:1018F000ED91FC91119787ED309709F43FC0139655
:101900009C9180E0981731F02081A21629F033963F
:101910008F5FF8CFF0E0E0E0D601ED93FC938BED24
:10192000309761F1228126952695203108F02FE02D
:1019300081E090E0A0E0B0E004C0880F991FAA1FEA
:10194000BB1F2A95D2F70197F801918380836B2DF5
:1019500080EE0E94270B88ED0E94ED0BD7011496B4
:101960009C91682F697F992329F0CA58DF4F6881BD
:101970006260682B88ED0E94270B80E0DF91CF9199
:101980001F910F91FF90EF90DF90CF90BF90AF909D
:10199000089588EF0E94ED0B807C8034B1F018F43C
:1019A000882301F10895803819F0803CC9F008952A
:1019B00088ED0E94ED0B81FD0DC069EC88ED0E9461
:1019C000270B82E080936802089588ED0E94ED0B5A
:1019D00081FDF3CF6BEC88ED0E94270B83E0F2CF03
:1019E00081E0F0CF61ED88ED0E94270B1092680234
:1019F00008952F923F924F925F926F927F928F92B3
:101A00009F92AF92BF92CF92DF92EF92FF920F938D
:101A10001F93CF93DF937B013A016901F901A08005
:101A2000B180FB013180F90111821082FB018281BA
:101A300060E181FD60E288EE0E94270B2A2CA30161
:101A4000F701608180E00E94010C582EF6E08F13B0
:101A500010C088EF0E94ED0BF70192819D7F84FFFB
:101A60009260928360E191FD60E288EE0E94270B14
:101A7000E6CF811150C088EC0E94ED0B82FF5FC061
:101A800080E30E94ED0B482E8A151B0411F008F02C
:101A9000422CF60180819181E501C81BD90BD7FF4B
:101AA00002C0D0E0C0E0842C912C8C169D060CF472
:101AB000E40180E591E00E9423010E94FA0988E098
:101AC0000E94E60BAE0170E060E0C8010E94BC22FB
:101AD000209721F0BE01C8010E9499070C0F1D1F1D
:101AE0000E94FC0964E088EC0E94270BF6018081CB
:101AF0009181880E991E91828082431420F08A146D
:101B00009B0408F49CCF88EF0E94ED0BF7019281B3
:101B100084FB91F99283852DDF91CF911F910F91D5
:101B2000FF90EF90DF90CF90BF90AF909F908F90FD
:101B30007F906F905F904F903F902F90089580EF2F
:101B4000582EE9CFAF92BF92CF92DF92EF92FF92E1
:101B50000F931F93CF93DF9300D000D0CDB7DEB7A4
:101B60007C01690158011C821B821A8219828E0134
:101B70000F5F1F4F9E012D5F3F4F0E94610C81112F
:101B800009C049815A816B817C8185019601C70119
:101B90000E94F90C0F900F900F900F90DF91CF9152
:101BA0001F910F91FF90EF90DF90CF90BF90AF907B
:101BB00008952F923F924F925F926F927F928F92F1
:101BC0009F92AF92BF92CF92DF92EF92FF920F93CC
:101BD0001F93CF93DF93CDB7DEB765970FB6F89419
:101BE000DEBF0FBECDBF3C01342E222E402EED8A2B
:101BF000EAA4FBA4188A1F861E861D868E01035F39
:101C00001F4F9E01215F3F4F40E00E94610C582E04
:101C1000811139C139822A824B822D892C83DE823F
:101C2000CD82B886AF82AE014F5F5F4F68E080E241
:101C30000E94FF0A4D855E8560E080E10E94010CF4
:101C400081113FC1E114F10409F453C00F851889D3
:101C5000D80112968C91129737FE51C0826012966D
:101C60008C93650144244394C114D10409F42EC11A
:101C70009C868B864D855E856F85788987019E0160
:101C8000255F3F4FC3010E94F90C582EB6E08B131D
:101C90000EC088EF0E94ED0BEF85F88985FB882741
:101CA00080F98425928180FB91F99283DDCF8111A7
:101CB000EAC0ECA5FDA53097A1F06B857C8501906D
:101CC000F081E02D0190F081E02DC5018C199D0976
:101CD0009A8789879E01275F3F4FA7018CA59DA505
:101CE00009958B859C85C81AD90A8815990508F02D
:101CF000BBCF4D855E8537FEE0C080EADFC08160E6
:101D000012968C93129711966C908FEF860D8034FB
:101D100008F0D9C02D843E840E94C6019B01AC010D
:101D200028573C4E4F4F5F4F298B3A8B4B8B5C8B28
:101D3000D80112968C9160E880FF60E488EE0E94E2
:101D4000270B512C712C8114910409F48BC0530181
:101D50008614970408F45401AD8AA7016A2D80E126
:101D60000E94FF0A6A2D88E30E94270BF801608118
:101D7000606280EF0E94270B88EC0E94ED0B87FFCA
:101D8000FBCF60E888EC0E94270B88EF0E94ED0BE8
:101D90008F70582E412CD12CC12C552021F10E943E
:101DA000C60129893A894B895C89621B730B840BB4
:101DB000950B97FF18C036E0531609F43FC04EE06C
:101DC0005416B1F054E0551209C08FEFC81AD80A62
:101DD0002114310489F02C143D0471F460E088E38F
:101DE0000E94270B41C08A189B08EA0CFB1CABCF52
:101DF000439493E0491691F360E088E30E94270B37
:101E0000D7016C9180E10E94270B6D8988E30E94C5
:101E1000270BF8016081606280EF0E94270B88EC3D
:101E20000E94ED0B87FFFBCF60E888EC0E94270B38
:101E300088EF0E94ED0B8F70582EAFCF88EF0E9475
:101E4000ED0B85FB882780F9A1E08A27F8019281B4
:101E500080FB90F9928360E890FF60E488EE0E9436
:101E6000270BCACF5110BACF88EF0E94ED0BD801D3
:101E700012969C91129785FB90F912969C934D8532
:101E80005E855520D1F0852D65960FB6F894DEBF9E
:101E90000FBECDBFDF91CF911F910F91FF90EF90BB
:101EA000DF90CF90BF90AF909F908F907F906F907A
:101EB0005F904F903F902F90089580E860E00E94DF
:101EC000010C582EE0CF8AED582EDDCF4D855E8572
:101ED000552009F412CFD7CF8F929F92AF92BF9225
:101EE000CF92DF92EF920F931F931F921F921F9337
:101EF0000F934A015A01D12CC12C32E0E32E022F5C
:101F000026E040E80E94D90D0F900F900F900F909F
:101F10001F910F91EF90DF90CF90BF90AF909F9067
:101F20008F9008958F929F92AF92BF92CF92DF923F
:101F3000EF920F931F921F923F932F934A015A01E2
:101F4000D12CC12CEE24E39400E026E040E80E946E
:101F5000D90D0F900F900F900F900F91EF90DF9091
:101F6000CF90BF90AF909F908F9008958F929F9247
:101F7000AF92BF92CF92DF92EF920F93CF931F92C7
:101F80001F921F921F92912C812CB12CA12CD12C2D
:101F9000C12CE12C062F25E040E060E00E94D90D25
:101FA000C82F6CE271E080E090E00E9494010F90F5
:101FB0000F900F900F908C2FCF910F91EF90DF909B
:101FC000CF90BF90AF909F908F9008952F923F92A7
:101FD0004F925F926F927F928F929F92AF92BF9239
:101FE000CF92DF92EF92FF920F931F93CF93DF93E5
:101FF000CDB7DEB767970FB6F894DEBF0FBECDBF83
:102000001B8A38E03C8B3CE33D8B8A3F3FEF9307D4
:10201000D9F406ED802F67960FB6F894DEBF0FBE99
:10202000CDBFDF91CF911F910F91FF90EF90DF9087
:10203000CF90BF90AF909F908F907F906F905F9068
:102040004F903F902F900895122F342E462E7C01F2
:10205000DC011696CD90DC901797CE01439617962B
:102060009C938E9316971A962C939E012F5F3F4F49
:1020700042E150E060E0C7010E94920F582EF70144
:10208000D782C682082F8111C5CF89849A846B8438
:102090007C84FD81FE8B3E813F8B670186E5C80E07
:1020A000D11C5601212CD5018D919C910097F1F501
:1020B0002394B2E0AB0EB11CE0E12E12F4CFF60196
:1020C00080819181009709F070C05394F2E0CF0EA7
:1020D000D11C30E15312F3CFF7018681978107EDD0
:1020E000892B09F497CF1287232D40E0642DC70177
:1020F0000E94D507D82E04ED882309F48BCF682FD2
:10210000C7010E942A08009709F483CFDC011496C6
:102110001C936D2DC7010E94B60F082F882309F468
:1021200079CF6D2DC7010E94B30774CFDC01ED910B
:10213000FC910084F185E02D09958111B9CFF5015D
:1021400080819181DC01ED91FC910088F189E02D85
:102150006F890995882309F4ABCFF50180819181BE
:10216000DC01ED91FC910484F585E02DA301B4011F
:102170000995882361F0012F232D442D622DC7017D
:102180000E94480B082F813D09F492CF43CFF501FF
:1021900080819181DC01ED91FC910684F785E02D31
:1021A0006E8909958111E7CF83CFDC01ED91FC9118
:1021B0000084F185E02D0995811187CFF60180819A
:1021C0009181DC01ED91FC910088F189E02D6F890E
:1021D000099581110DC0012F232D442D652DC701B7
:1021E0000E94480B082F877F813D09F013CF6DCFE8
:1021F000F60180819181DC01ED91FC910484F585EB
:10220000E02DA301B401099581115FCFF601808112
:102210009181DC01ED91FC910684F785E02D6E89BA
:1022200009958823C1F251CF8F929F92AF92BF92AE
:10223000CF92DF92EF920F93C42ED12C1F921F9258
:102240001F921F92912C812CB12CA12CE12C062FD6
:1022500021E043E2FC016285828193810E94D90DD5
:102260000F900F900F900F900F91EF90DF90CF9005
:10227000BF90AF909F908F9008958F929F92AF9252
:10228000BF92CF92DF92EF920F93C62ED12C1F9266
:102290001F925F934F9324E0822E912C34E0A32E63
:1022A000B12CE12C00E020E043EAFC016285828150
:1022B00093810E94D90D0F900F900F900F900F9166
:1022C000EF90DF90CF90BF90AF909F908F90089548
:1022D0008F929F92AF92BF92CF92DF92EF920F9325
:1022E000C42ED12C1F921F921F921F92912C812CD1
:1022F000B12CA12CE12C062F23E043E2FC016285E6
:10230000828193810E94D90D0F900F900F900F90B2
:102310000F91EF90DF90CF90BF90AF909F908F90F4
:102320000895CF92DF92EF92FF921F93CF93DF93A6
:10233000EC01162F7A01FA0180819181A281B3818B
:102340008130F3E09F07F1E0AF07B105C9F170F408
:102350008115E1E09E07AE07B10509F450C0813058
:102360009140A140B10561F180E041C0833021E09E
:10237000920720E1A207B10529F083309340A041E4
:10238000B10591F7412F64E1CE010E941411412F54
:1023900060E1CE010E94141164E170E080E090E001
:1023A0000E9494016A85F70121812695217067704A
:1023B000412F8A819B810E94E60F1092FE01D4CFAB
:1023C0008091FE018111D0CF412F61E1CE010E94A9
:1023D0001411412F60E1CE010E941411412F64E0DD
:1023E000CE010E94681181E08093FE0181EBDF91B4
:1023F000CF911F91FF90EF90DF90CF900895462FDF
:1024000061E1CE010E941411412F60E1CE010E94D2
:1024100014111092FE018A8587701770880F880F3B
:10242000880F182B09F4A0CFEA80FB806701F6E53E
:10243000CF0ED11CD0E0C0E0D6018D919D916D01F1
:102440000097C1F0DC01ED91FC910084F185E02D55
:10245000099518130FC0AB96CC0FDD1FCE0DDF1DF5
:1024600088819981DC01ED91FC910480F581E02D5A
:1024700009957ACF2196C031D105F1F675CFCF926B
:10248000DF92EF92FF920F931F93CF93DF93CDB71D
:10249000DEB72E970FB6F894DEBF0FBECDBFFC019E
:1024A0002089211111C010E0812F2E960FB6F894CB
:1024B000DEBF0FBECDBFDF91CF911F910F91FF9077
:1024C000EF90DF90CF9008957C010E94C601F70144
:1024D0000485158526853785601B710B820B930B50
:1024E00097FDE1CF81E090E09E878D878E010F5FA1
:1024F0001F4F9E01235F3F4F41E0628582819381A0
:102500000E94A20D182F811121C082E0D82E01E077
:1025100089818D2139F119861A861B861C86AE01A8
:10252000475F5F4F602FC7010E943D11C82E811188
:1025300019C0AE01475F5F4F602FC7010E94911124
:10254000813B19F0882371F0C82E1C2D0E94C60112
:102550006C597F4F8F4F9F4FF70164877587868730
:102560009787A2CFDD0C0F5F083091F601E0F701ED
:102570008385801758F319861A861B861C86AE0140
:10258000475F5F4F602FC7010E943D11D82E811118
:1025900017C089859A85877091708130914081F448
:1025A0008B859C8581609C878B87AE01475F5F4FE1
:1025B000602FC7010E949111813B29F0811102C057
:1025C0000F5FD5CFD82E1D2DC1CFCF92DF92FF92B6
:1025D0000F931F93CF93DF9300D000D0CDB7DEB71A
:1025E0008C01F62E19821A821B821C82462F61E111
:1025F0000E9414114F2D60E1C8010E9414114F2D4B
:1026000064E0C8010E94681183E0C82ED12CAE019D
:102610004F5F5F4F6F2DC8010E943D11811114C0A3
:1026200089819A81AB81BC819D7F83309140A0419B
:10263000B10551F064E670E080E090E00E94940102
:1026400081E0C81AD10819F74F2D64E1C8010E9432
:1026500014114F2D60E1C8010E94141164E170E073
:1026600080E090E00E9494010F900F900F900F90E7
:10267000DF91CF911F910F91FF90DF90CF90089540
:102680002F923F924F925F926F927F928F929F9282
:10269000AF92BF92CF92DF92EF92FF920F931F9370
:1026A000CF93DF93CDB7DEB7E8970FB6F894DEBFD0
:1026B0000FBECDBFDC011A963C91311131C1522EB3
:1026C000842E962E3C01FC01E280F380D701ED912F
:1026D000FC910190F081E02D60E0C70109958C012B
:1026E0000097E1F4E6ED3E2E832DE8960FB6F894C0
:1026F000DEBF0FBECDBFDF91CF911F910F91FF9035
:10270000EF90DF90CF90BF90AF909F908F907F9091
:102710006F905F904F903F902F900895FC01C08084
:10272000D18037ED332EC114D104F1F25301F4E01E
:10273000AF0EB11CDC011196BC92AE9214965C9265
:10274000FE0131962F019F0148E050E060E0D30187
:1027500012968D919C910E94920F382EF80114824E
:102760008111E1C08D8121ED322E893009F0BCCF7D
:102770002980D701ED91FC910280F381E02D282D75
:1027800041E0692DC7010995F301828794ED392E47
:10279000882309F4A9CF98859583682F8281938136
:1027A0000E94B60F382ED801CD92DC92882371F0AA
:1027B000D701ED91FC910480F581E02DD3011A96AB
:1027C0006C91C7010995F30112868ECF211006C0C6
:1027D000A114B10499F488ED382E86CF422D4132F0
:1027E00008F040E250E09201F3016285828193811A
:1027F0000E94920F382E811177CFEACFD301129623
:102800002D903C9013971A961C91612FC1010E9444
:102810002A08FC01892B09F465CF1283B182A082BA
:1028200082E083831F921F925F924F9258E0852E21
:10283000912C68E0A62EB12CD12CC12C79E2E72E88
:1028400000E026E040EA612FC1010E94D90D382E38
:102850000F900F900F900F90811146CF8B81F30155
:102860008387820120E048E050E062858281938185
:102870000E946C0F382E811137CF4B815C8120E094
:10288000D3011A966C911A9712968D919C910E9481
:102890006C0F382E811128CF498150E08E010F5DD9
:1028A0001F4F20E0F3016285828193810E946C0FAB
:1028B000382E811119CF1F921F921F921F92912CB7
:1028C000812CB12CA12CE12C0E8129E040E0D30118
:1028D0001A966C911A9712968D919C910E94D90D1F
:1028E000382E0F900F900F900F908111FDCE11E0B8
:1028F000F3018385811738F0412F68E0C3010E94FE
:1029000068111F5FF5CFD3010280F381E02DEA58F3
:10291000FF4F80818460808381E050968C93E4CE69
:1029200049ED342EE1CED182C082DECE2F923F928D
:102930004F925F926F927F928F929F92AF92BF92CF
:10294000CF92DF92EF92FF920F931F93CF93DF937B
:10295000CDB7DEB7C358D1090FB6F894DEBF0FBEAE
:10296000CDBFDC0116963C9119ED311115C0B22E88
:10297000042FA62E3C01FC0124803580108ED1014D
:10298000ED91FC910190F081E02D60E0C10109958D
:102990002C010097E1F416ED812FCD57DF4F0FB6D4
:1029A000F894DEBF0FBECDBFDF91CF911F910F9185
:1029B000FF90EF90DF90CF90BF90AF909F908F905F
:1029C0007F906F905F904F903F902F900895FC0103
:1029D000E080F18017EDE114F104F1F29301295F39
:1029E0003F4FEE963FAF2EAFEE9731832083B482F8
:1029F0009E0126593F4F48E050E060E0D301149615
:102A00008D919C910E94920F182F811187C1AB96D6
:102A10001FADAB97F201F182E082D101ED91FC9103
:102A20000280F381E02D202F40E06A2DC10109953D
:102A3000F3018683882309F46FC1E2969FADE29784
:102A40009087682F848195810E94B60FF82ED1015E
:102A5000ED91FC91882379F0D20114961C920480A8
:102A6000F581E02DD30116966C91C1010995F30112
:102A700016821F2D91CFD30116966C91D201149618
:102A80001C920190F081E02DC1010995009709F495
:102A900082CFFC01B48211118CC0EC96FFADEC9793
:102AA000CF57DF4FF883C158D0402E0121E4420EAA
:102AB000511CC3010296CE57DF4F99838883C258B9
:102AC000D040120190E1290E311CCF57DF4FB88161
:102AD000C158D040FB1609F48AC02DE131E0F20163
:102AE00031832083CE57DF4F88819981C258D040EF
:102AF0009383828314821186128615861786168622
:102B000010A211A212A210A6368225823086278238
:102B100034862386D30114960D90BC91A02DC25803
:102B2000DF4FB983A883CE57D040F301F681C05858
:102B3000DF4FF883C058D0408E010F5F1F4F2F2DFD
:102B400049E050E06F2FCD010E946C0F81112AC027
:102B5000AB80BC80450121E4A216B10418F040E42A
:102B6000842E912C5F924F9281E090E08C0F9D1FFC
:102B70009F938F93D12CC12C32E0E32E0F2D26E0B2
:102B800040E8C058DF4F6881C058D040C258DF4F7E
:102B900088819981CE57D0400E94D90D0F900F9017
:102BA0000F900F90D30152968C91823001F1F394E3
:102BB0008CCF133108F012E1412F50E09E012659CD
:102BC0003F4FD30116966C91169714968D919C9158
:102BD0000E94920F182F882309F45FCFD301ED9143
:102BE000FC910480F581E02DC3010995D5CEF30158
:102BF0001289123009F08EC0848195810681EE968B
:102C00002EAD3FADEE97232B71F0602F0E942A0866
:102C1000FC01892B41F00283EE968EAD9FADEE97BD
:102C200091838083138368EE73E080E090E00E94DC
:102C300094011F921F921F921F92912C812CB12CF4
:102C4000A12CD12CC12CE12CD3011F960C911F97E4
:102C500029E040E016966C91169714968D919C9100
:102C60000E94D90D182F0F900F900F900F90811187
:102C7000B5CF68EE73E080E090E00E9494011F926F
:102C80001F921F921F92F301018D2BE041E266819A
:102C9000848195810E94D90D182F0F900F900F906D
:102CA0000F9081119BCF1F921F921F921F9200E0E5
:102CB0002AE041E2D30116966C91169714968D91F5
:102CC0009C910E94D90DFE01EF5BFF4F83E291E0E2
:102CD00091838083FF93EF93CE0101969F938F930F
:102CE00080E4882E912C90E8A92EB12C22E2E22ECD
:102CF00026E041E8F3016681848195810E94D90D27
:102D000081E0D30157968C930FB6F894DEBF0FBEC7
:102D1000CDBF42CE11ED62CF14ED3ECEF201F18275
:102D2000E0825CCFFC014481558180911503909134
:102D300016038417950780F0809111039091120378
:102D4000009751F0608171816115710529F00E9431
:102D5000CA2221E0892B09F020E0822F0895FC018E
:102D600080819181009711F00C946D2108950F934B
:102D70001F93CF93DF93EC0188819981009759F0DD
:102D80002A813B812617370730F081E0DF91CF9110
:102D90001F910F9108958B016F5F7F4F0E94F62165
:102DA000009759F0998388831B830A832C813D8186
:102DB000232B59F7FC011082E8CF80E0E7CFEF9298
:102DC000FF920F931F93CF93DF93EC017B01198246
:102DD00018821B821A821D821C82FB010190002036
:102DE000E9F731978F01061B170BB8010E94B71640
:102DF00028813981811113C02115310519F0C901CC
:102E00000E946D21198218821D821C821B821A82E7
:102E1000DF91CF911F910F91FF90EF9008951D8347
:102E20000C83B701C901DF91CF911F910F91FF90E2
:102E3000EF900C94C3226F927F928F929F92AF92E9
:102E4000BF92CF92DF92EF92FF920F931F93CF9397
:102E5000DF9300D0CDB7DEB77C01CDB6DEB6DC01A6
:102E600057968C91811118C0912C892D0FB6F8942A
:102E7000DEBE0FBECDBE0F900F90DF91CF911F91A0
:102E80000F91FF90EF90DF90CF90BF90AF909F9009
:102E90008F907F906F9008950E94C601F7018388FC
:102EA0009488A588B688681979098A099B0997FDCD
:102EB000DBCFADB6BEB64285838590E08134910507
:102EC00008F045C09A83898389819A812DB73EB7DE
:102ED000281B390B0FB6F8943EBF0FBE2DBF8DB720
:102EE0009EB701968C019E012F5F3F4FD70116962A
:102EF0006C91169714968D919C910E94A20D982E1C
:102F0000811113C029813A812330310570F0F70116
:102F100085859685009749F0DC01ED91FC91019043
:102F2000F081E02D40E0B70109950FB6F894BEBEE0
:102F30000FBEADBE0E94C601F701208D620F711D4C
:102F4000811D911D638B748B858B968B8ECF80E456
:102F500090E0B8CF1F920F920FB60F9211242F93CB
:102F60003F938F939F93AF93BF9380915E02909115
:102F70005F02A0916002B091610230915D0223E096
:102F8000230F2D3758F50196A11DB11D20935D0229
:102F900080935E0290935F02A0936002B0936102FF
:102FA0008091620290916302A0916402B0916502E7
:102FB0000196A11DB11D8093620290936302A093BC
:102FC0006402B0936502BF91AF919F918F913F9141
:102FD0002F910F900FBE0F901F90189526E8230F8A
:102FE0000296A11DB11DD2CF1F920F920FB60F9264
:102FF00011248F939F938091E1009091E100937F42
:103000009093E10083FF0FC01092E90091E090934C
:10301000EB001092EC0092E39093ED0010926702A7
:1030200098E09093F00082FF22C093E09093E90033
:103030009091F200992319F09AE39093E80090910F
:103040001002992341F09091100291509093100238
:10305000911101C05D9A90916602992341F090917F
:103060006602915090936602911101C0289A84FFE4
:1030700018C08091E2008E7E81608093E200809192
:10308000E1008F7E8093E100809111028E7E80614D
:10309000809311029F918F910F900FBE0F901F9000
:1030A000189580FFF7CF8091E2008E7E806180933B
:1030B000E2008091E1008E7E8093E1008091110218
:1030C0008E7E8160E5CF1F920F920FB60F92112472
:1030D000CF92DF92EF92FF920F931F932F933F9324
:1030E0004F935F936F937F938F939F93AF93BF9310
:1030F000EF93FF93CF93DF93CDB7DEB76C97DEBF2F
:10310000CDBF1092E9008091E80083FF25C068E000
:10311000CE0145960E94D10282EF8093E8008D890E
:1031200087FF39C09091E80090FFFCCF982F9076F0
:1031300009F034C19E894F89588D2F89F88C9111DF
:1031400031C0803861F5809112028093F1001092B5
:10315000F1008EEF8093E8006C960FB6F894DEBF16
:103160000FBECDBFDF91CF91FF91EF91BF91AF9196
:103170009F918F917F916F915F914F913F912F918F
:103180001F910F91FF90EF90DF90CF900F900FBEA7
:103190000F901F9018959EEF9093E800C7CF109264
:1031A000F100D5CF913059F48111D3CF4130510581
:1031B00081F6809112028D7F80931202CACF9330E4
:1031C00049F48111C6CF4130510519F680911202A0
:1031D0008260F2CF953041F48091E80080FFFCCF0F
:1031E00020682093E300B5CF963009F0A9C00B8D7D
:1031F0001C8D22E01092E90010920E0210920D0236
:10320000F2122EC010920C0210920B020E94520376
:103210001F8299E09983FA8291E09E8390EA9887D1
:103220009AEF998720910D0230910E02275F3F4F50
:103230003C832B838D831092E90010920E02109232
:103240000D0210930C0200930B0249E050E0BE0106
:103250006F5F7F4F80E00E9400020E94520379CF8F
:1032600010930C0200930B020E943E03DC011296A5
:103270000D911C910115110509F44BC1D801ED9177
:10328000FC910480F581E02DBE016B5E7F4FC8018B
:103290000995009709F038C1F80100851185EACF3A
:1032A000F3E0FF120EC08F89882309F440C08230FA
:1032B00061F440E865E184E391E00E948F1A811196
:1032C00048CF81E28093EB0047CF813029F440E87A
:1032D00067E08CE291E0F1CF833099F70E943E03E2
:1032E000DC011296ED90FC908E010F5F1F4F68017C
:1032F000E114F10479F0D701ED91FC910680F7819A
:10330000E02DB801C7010995080F111DF701E084F0
:10331000F184EECFD8011C92F60101900020E9F76C
:103320003197BF016C197D0940E0C601C6CF66E147
:1033300071E0FB01449150E080E80E94000209CF57
:10334000973009F4BECF983021F481E08093F100EA
:1033500000CF993009F0FDCE837009F0B2CFE1E0E3
:10336000F1E081E031E096E32191222371F0809336
:10337000E9003093EB00DF0111972C912093EC00D2
:103380009093ED008F5F873079F78EE78093EA00A6
:103390001092EA008F8980936702DBCE8B8D9C8D23
:1033A0001092E90010920E0210920D0290930C02FE
:1033B00080930B02898D81118CC08E899D89913AF1
:1033C00049F4813209F07DCF47E050E06BE071E0D5
:1033D00080E0B3CF913209F074CF833269F48F89E2
:1033E000988DB0E0A0E08093070190930801A0932E
:1033F0000901B0930A01ADCE803239F467E070E084
:103400008BE091E00E94DE02A4CE823209F0A1CED0
:103410008F8980931201EEEFFFE7859194918B3FA6
:103420009C4D51F1E0E0F8E080910B0190910C018E
:10343000A0910D01B0910E01803B9440A105B10512
:10344000F1F48091120180FD1AC0EE3F8AE0F80786
:1034500089F587E797E79183808380916000809367
:103460000F0288E19BE00FB6F894A8958093600066
:103470000FBE909360006DCEEEEFFAE0D5CF808165
:1034800091818737974709F064CEA89580916000B5
:1034900088618093600080910F0280936000EE3F0E
:1034A0002AE0F20789F08091FE0A9091FF0A918349
:1034B00080834FCE808191818737980751F2909316
:1034C000FF0A8093FE0AC5CF1092FF0A1092FE0AEF
:1034D00040CE0E943E03DC0112960D911C91011515
:1034E000110509F4EECED801ED91FC910190F08127
:1034F000E02DBE016B5E7F4FC8010995811129CE79
:10350000F80100851185EBCF181619060CF421CEB1
:10351000D8CEF1E0FF12C4CE6AE171E00ACFEF929B
:10352000FF920F931F93CF93DF93F82E192FE62E60
:10353000042F81E0860F880F0E94D20183E00E9451
:10354000D201CF2DD12FEC0EFD2EF11CCE15DF05B3
:10355000B9F007FF13C0FE0184910E94D201182F19
:1035600080E00E94D201812321968111EFCFDF916B
:10357000CF911F910F91FF90EF9008958881EDCF2B
:1035800081E0F5CFCF9310926C0210926B0288EE1F
:1035900093E0A0E0B0E080936D0290936E02A09360
:1035A0006F02B093700229E231E030936A022093F7
:1035B00069022FEF3FEF3093760220937502C1E04E
:1035C000C093BD02C093BE022FEC32E03093C00224
:1035D0002093BF021092C2021092C1021092C60242
:1035E0001092C5028093C7029093C802A093C902AB
:1035F000B093CA028BE391E09093BA028093B90230
:1036000083E591E09093C4028093C302C093D002FB
:10361000C093D1021092D3021092D2021092D5021E
:103620001092D4021092D9021092D8021092DB02AA
:103630001092DA0281EC8093CF020E943E0369EB84
:1036400072E00E9483031092050381E791E090935A
:103650000403809303038091FB02811112C0109236
:10366000F6021092F50283EC91E09093F8028093B9
:10367000F7028BE290E09093FA028093F902C093F4
:10368000FB028091ED0281112CC0C1E0C093E002E9
:10369000C093E10286EE92E09093E3028093E2020F
:1036A0001092E5021092E40285E691E09093DD022B
:1036B0008093DC021092E8021092E7021092EA0274
:1036C0001092E902C093EB02C093EC0281EC80936C
:1036D000E6020E943E036CED72E00E948303C093F9
:1036E000ED02E091E702F091E802309709F0E1C0C5
:1036F00085EF92E09093E8028093E7028091E902DF
:103700009091EA022091F9023091FA02820F931F00
:103710009093EA028093E90281EB91E09093430356
:103720008093420310924A0381E080934B031092EE
:103730004C0384E493E090934903809348031092F0
:10374000440388E0809345038CE380934603109202
:103750004703E2E4F3E091E024E433E01586968742
:10376000178634872387359683E0ED38F807B1F75D
:103770001092B80381E1809306032BE931E0309386
:1037800032032093310322E433E030933403209357
:103790003303109241031092350388E0809336037F
:1037A0002CE320933703909338038093390384E00C
:1037B00080933A0310923B0310923C0310923D0316
:1037C00010923E0310923F0310924003A8E9B3E029
:1037D000FD0190E080E021913191232B09F072C02E
:1037E000880F991FFC01E856FC4F81E393E0918319
:1037F000808382E493E090931C0380931B0387E70C
:1038000091E0909318038093170385E991E09093DA
:103810001A038093190310922A0310922B0310921B
:103820002C0310922D0310922E031092300381E08E
:10383000809329031092280310921E0388E080933E
:103840001F038CE380932003109221031092220324
:1038500084E0809323031092240310922503109296
:10386000260390E080E02D913D91232B89F5880F70
:10387000991FFC01E856FC4F87E193E09183808318
:1038800069EF71E081E193E00E94DF168BEB91E03C
:10389000909308038093070310920C0310920D037A
:1038A00010920E0310920F0310921003CF910895FF
:1038B000FC01808191810097D9F785EF92E0918397
:1038C00080831CCF01968031910509F084CF91CF80
:1038D00001968031910539F6D3CFCF93DF93CDB7E1
:1038E000DEB728970FB6F894DEBF0FBECDBF789431
:1038F00084B5826084BD84B5816084BD85B58260F5
:1039000085BD85B5816085BD80916E0081608093A5
:103910006E0010928100809181008260809381000E
:10392000809181008160809381008091800081601E
:1039300080938000809191008260809391008091BB
:1039400091008160809391008091900081608093CC
:1039500090008091C10084608093C1008091C1007B
:1039600082608093C1008091C10081608093C1001A
:103970008091C30081608093C3008091C000826009
:103980008093C0008091C20081608093C2008091CA
:103990007A00846080937A0080917A0082608093BC
:1039A0007A0080917A00816080937A0080917A0019
:1039B000806880937A00109267021092120210922F
:1039C00011028091D70081608093D70080EA8093B4
:1039D000D80089B5806189BD89B5826089BD09B487
:1039E00000FEFDCF61E070E080E090E00E94940175
:1039F0008091D8008F7C80618093D8008091E00016
:103A0000807F8093E0008091E1008E7E8093E100D2
:103A10008DE08093E200559A209A8FEF9FEF90936C
:103A2000760280937502269A0E94FC091FB7F894CB
:103A30008091130281115AC046E951E0FA01949134
:103A400025EB31E0F9018491E92FF0E0EE0FFF1F43
:103A5000E958FE4FA591B4919C91892309F037C094
:103A6000EBE5F1E09491F9012491FA018491882326
:103A700009F42DC09923E9F091509F30D0F4E92F3B
:103A8000F0E0EB5BF24E0C94CB20051E091E541D9A
:103A9000FD1D011E591D591D591D0C1E121E161EFD
:103AA0001A1E201E591D241E909180009F7790930E
:103AB0008000E82FF0E0EE0FFF1FE759FE4FA591C1
:103AC000B4918FB7F8949C91292B2C938FBF81E1EF
:103AD0000E9426018CB580618CBD8CB580648CBD44
:103AE0008FE00E94260180E10E942601809113024E
:103AF0008F5F809313021FBF209A289A259868E150
:103B000088E80E94270B60E288E70E94270B60E0AC
:103B100088E70E94270B10E000E088E60E94ED0B8A
:103B20000F5F1F4F80FF96C061EC88ED0E94270B4E
:103B300060E680ED0E94270B64E088EE0E94270B70
:103B400088EE0E94ED0B82FFFBCF0E94C90C60E261
:103B500088EC0E94270B61E080E80E94270B1092FE
:103B6000050340E060E080E00E94AB0684E192E063
:103B70009093D7028093D60280E490E09093D30292
:103B80008093D2021092D5021092D40287E093E083
:103B900090932503809324038E010F5F1F4F3E01F6
:103BA00027E0620E711C2DED222E21E0322E30E036
:103BB000432E30E0532E83B1382F3072F32E85FD23
:103BC0000DC088EC0E94ED0B85FF04C00E94C90C5B
:103BD00090E2F92E6F2D88EC0E94270B80916802ED
:103BE000813009F49FC008F4A1C0823009F447C0B5
:103BF000833009F4A3C0B12C59C0909180009F7DFF
:103C000056CF90918000977F52CF94B59F7794BD07
:103C100050CF94B59F7DFBCF909190009F7790936C
:103C2000900047CF909190009F7DF9CF90919000A8
:103C3000977FF5CF9091C0009F779093C00039CFC8
:103C40009091C0009F7DF9CF9091C200977F909393
:103C5000C2002FCF0F3F100709F05FCF43E150E0C4
:103C600063EE71E089E692E00E94CB0342E050E00F
:103C700067EF71E089E692E00E94CB03FFCFB12CA1
:103C800080910603807F803189F40E94C6016853C9
:103C90007F4F8F4F9F4F60935402709355028093D4
:103CA00056029093570290E29093060388E9C82E3B
:103CB00083E0D82E7601D7018D919D917D010097EB
:103CC00039F0DC01ED91FC910680F781E02D09953A
:103CD000B8EBEB16B3E0FB0671F780910603803476
:103CE00009F498C070F5803209F47EC0803309F47D
:103CF0008BC0813109F043C01092B803F601819165
:103D000091916F01009739F0DC01ED91FC910480F5
:103D1000F581E02D0995EC14FD0481F782E1809393
:103D200006032DC083E18093060365CF80910603CF
:103D3000807F803109F45FCF81E1F5CFBB24B3945C
:103D40009FCF813509F475C0803809F485C080356E
:103D5000B1F488EC0E94ED0B86FF11C081E58093E1
:103D600006030E94C6016C5E7F4F8F4F9F4F60938A
:103D7000540270935502809356029093570289E63D
:103D800092E00E944904892B09F49AC189E692E0E5
:103D90000E9407048D3099F38A3009F069C1A09020
:103DA0001103B0901203A114B10449F0E09015037F
:103DB000F09016036501E114F10409F05EC06BECAC
:103DC00071E0C8010E94DF16C8010E949216F82E09
:103DD000C8010E94AF16FF2009F48EC081E08093D5
:103DE0005C020E94EC0AEFC00E94C601C09054021F
:103DF000D0905502E0905602F09057026C197D0960
:103E00008E099F0997FDBBCF61E088EE0E94270BCA
:103E100080E485CF88EE0E94ED0B80FDB0CF88ED69
:103E20000E94ED0B682F686088ED0E94270B80E5EB
:103E300076CF0E94C601C0905402D0905502E09007
:103E40005602F09057026C197D098E099F0997FD63
:103E500096CF80E8809306032B2D40E060E082E45B
:103E600093E00E94E60F882329F0823D09F487CF72
:103E700080EA55CF80E953CF64014601BFEF8B1A2A
:103E80009B0AF6018081082E000C990B0E94882065
:103E9000892B91F7F1E0EF1AF108EA0CFB1CD7012E
:103EA0008C91082E000C990B0E948820892B39F0E8
:103EB000EC14FD0420F0B1E0EB1AF108F0CFEFEFC5
:103EC000EE1AFE0AA7014C195D09509316034093A0
:103ED0001503AC14BD0420F4B601C5010E94B32241
:103EE000E0911103F0911203809115039091160354
:103EF000E80FF91F108263CF62ED71E0C8010E94E4
:103F0000DF16C8010E949216F82EC8010E94AF1653
:103F1000FF2019F010925C0264CF80915C0288232C
:103F200009F451C06AED71E0C8010E94DF16C801B2
:103F30000E949216F82EC8010E94AF16FF2009F4C5
:103F4000C6C018861F821A8219821F930F937F9210
:103F50006F923F922F9280911103909112030296DB
:103F60009F938F930E94D8220FB6F894DEBF0FBEA6
:103F7000CDBF029741F520915A0230915B028F81AB
:103F80009885820F931F90935B0280935A026091F1
:103F900058027091590229813A81620F731F709300
:103FA000590260935802009719F46115710559F090
:103FB00040E00E94AB0610925B0210925A021092EF
:103FC00059021092580270E060E081E193E00E9493
:103FD000B716209111033091120381113FC02115B2
:103FE000310519F0C9010E946D211092120310923F
:103FF00011031092160310921503109214031092DD
:104000001303BDCE8FEF9FEF9A8389831F930F9386
:10401000AFEDB1E0BF93AF93809111039091120384
:1040200001969F938F930E94D82289819A810F9045
:104030000F900F900F900F900F908130910521F409
:1040400081E00E94D506BFCF892B21F481E00E9438
:10405000C706B9CF81E00E94D506F8CF10921603AB
:104060001092150369EF71E0C9010E94C32287CE47
:10407000E0901503F0901603F0E4EF16F10408F059
:104080007ECE89831A822FEFE21AF20AB70181E10C
:1040900093E00E94B716882309F471CE2091110392
:1040A000309112038091150390911603B801820F8D
:1040B000931F0E94C322F0921603E09215035FCE75
:1040C0004114510409F477CD0E94000074CD6AEFC9
:1040D00071E0C8010E94DF16C8010E949216F82EF6
:1040E000C8010E94AF16F1108DCF6CEF71E0C801CE
:1040F0000E94DF16C8010E949216F82EC8010E9485
:10410000AF16F1106ECE5FCF81E193E00C94AF1645
:1041100091110C949120803219F089508550C8F784
:1041200008959927882708952F923F924F925F9282
:104130006F927F928F929F92AF92BF92CF92DF92B7
:10414000EF92FF920F931F93CF93DF93CDB7DEB71C
:10415000CA1BDB0B0FB6F894DEBF0FBECDBF0994B0
:104160002A88398848885F846E847D848C849B8407
:10417000AA84B984C884DF80EE80FD800C811B8115
:10418000AA81B981CE0FD11D0FB6F894DEBF0FBE44
:10419000CDBFED010895EE0FFF1F0590F491E02DC6
:1041A00009940F931F93CF93DF938230910510F4FE
:1041B00082E090E0E091BB03F091BC0330E020E0AE
:1041C000B0E0A0E0309799F42115310509F44AC018
:1041D000281B390B24303105D8F58A819B81611564
:1041E000710589F1FB0193838283FE0111C0408137
:1041F00051810281138148175907E0F04817590788
:1042000099F4109761F012960C93129713961C93E1
:104210003296CF01DF91CF911F910F9108950093B6
:10422000BB031093BC03F4CF2115310551F04217A5
:10423000530738F0A901DB019A01BD01DF01F80144
:10424000C1CFEF01F9CF9093BC038093BB03CDCFD7
:10425000FE01E20FF31F81939193225031093983BC
:104260002883D7CF2091B9033091BA03232B41F48F
:1042700020911501309116013093BA032093B903B0
:1042800020911301309114012115310541F42DB70E
:104290003EB74091170150911801241B350BE09156
:1042A000B903F091BA03E217F307A0F42E1B3F0BFA
:1042B0002817390778F0AC014E5F5F4F2417350798
:1042C00048F04E0F5F1F5093BA034093B903819398
:1042D00091939FCFF0E0E0E09CCFCF93DF930097E6
:1042E000E9F0FC01329713821282A091BB03B091D6
:1042F000BC03ED0130E020E01097A1F42081318172
:10430000820F931F2091B9033091BA032817390700
:1043100009F061C0F093BA03E093B903DF91CF9144
:104320000895EA01CE17DF07E8F54A815B819E0117
:1043300041155105B1F7E901FB83EA834991599190
:10434000C40FD51FEC17FD0761F48081918102969F
:10435000840F951FE90199838883828193819B83D0
:104360008A83F0E0E0E012968D919C91139700977C
:10437000B9F52D913C911197CD010296820F931FB3
:104380002091B9033091BA032817390739F63097CD
:1043900051F51092BC031092BB03B093BA03A093E3
:1043A000B903BCCFD383C28340815181840F951F51
:1043B000C817D90761F44E5F5F4F88819981480F14
:1043C000591F518340838A819B8193838283211566
:1043D000310509F0B0CFF093BC03E093BB039ECF4F
:1043E000FD01DC01C0CF13821282D7CFB0E0A0E084
:1043F000ECEFF1E20C9496208C01009751F4CB0184
:104400000E94D1208C01C801CDB7DEB7E0E10C9449
:10441000B220FC01E60FF71F9C0122503109E21780
:10442000F30708F49DC0D901CD91DC911197C6170F
:10443000D70798F0C530D10530F3CE010497861721
:10444000970708F3C61BD70B2297C193D1936D939F
:104450007C93CF010E946D21D6CF5B01AC1ABD0ABF
:104460004C018C0E9D1EA091BB03B091BC03512C3E
:10447000412CF12CE12C109731F58091B9039091EA
:10448000BA038815990509F05CC04616570608F06E
:1044900058C08091130190911401009741F48DB799
:1044A0009EB74091170150911801841B950BE81796
:1044B000F90708F055C0F093BA03E093B903F90186
:1044C00071836083A0CF8D919C91119712966C900F
:1044D000129713967C901397A815B90559F56C019E
:1044E00042E0C40ED11CCA14DB0420F1AC014A190D
:1044F0005B09DA011296159780F06282738251830C
:104500004083D9016D937C93E114F10471F0D701DC
:104510001396FC93EE93129776CF22968C0F9D1FE5
:10452000F90191838083F301EFCFF093BC03E09313
:10453000BB0369CF4816590608F42C017D01D3014D
:104540009ACFCB010E94D1207C01009749F0AE01A7
:10455000B8010E94B322C8010E946D21870153CF88
:1045600010E000E050CFFB01DC0102C001900D9291
:1045700041505040D8F70895DC0101C06D9341507F
:104580005040E0F70895FB01DC0101900D920020FE
:10459000E1F70895FB01DC014150504030F08D916E
:1045A0000190801919F40020B9F7881B990B089520
:1045B000AEE0B0E0EEEDF2E20C94A42085E08C8356
:1045C0008B899C899A838983AE01495E5F4F6D898F
:1045D0007E89CE0101960E947C242E96E2E00C9406
:1045E000C02020FD09C0FC0123FD05C022FF02C040
:1045F0007383628351834083089544FD17C046FD51
:104600001DC0DB01FC01AA0FBB1FEE1FFF1F109492
:10461000D1F76A0F7B1F8E1F9F1F660F771F881FA2
:10462000991F620F711D811D911D089533E0660F62
:10463000771F881F991F3150D1F7F3CF34E0F7CFA0
:104640000F931F93CF93DF938C01C8010E948C2599
:10465000EC0197FD08C00E948820892BB1F7B801B2
:10466000CE010E94C825CE01DF91CF911F910F91FD
:1046700008958F929F92AF92BF92EF92FF920F9305
:104680001F93CF93DF938C01D62F7A01B22E0E9415
:104690008C259C0133272B32310529F02D32310531
:1046A000A9F46894B7F8D15061F480E0DF91CF911C
:1046B0001F910F91FF90EF90BF90AF909F908F90C0
:1046C0000895C8010E948C2597FDEFCFCB2DCD7F9B
:1046D0002B2D2073F9F48033E9F4AA24AA94AD0EAB
:1046E00089F0C8010E948C2597FD0CC0282F2F7DD2
:1046F000283561F4C264D25029F0C8010E948C258B
:1047000097FF08C0812C912C54011BC0B6FE2BC012
:10471000C260DA2D812C912C540120ED280F283015
:1047200028F1C4FD09C02A3008F1C6FF05C02F7D5D
:104730003FEE320F3630C8F0B8010E94C825C1FFE5
:10474000B4CFC7FF08C0B094A09490948094811C0B
:10475000911CA11CB11C2C2FB501A401C7010E9402
:10476000F12281E0A3CFC261D4CF27504C2FC501E5
:10477000B4010E94FD224B015C01C260D15009F3DB
:10478000C8010E948C2597FFC8CFD9CFA0E2B0E026
:10479000ECECF3E20C9499205C01962E7A01CE01A8
:1047A00001966C0180E2F60111928A95E9F7F50114
:1047B000B381890130E020E0712C812CA0E041E040
:1047C00050E0F801B3FD8591B3FF8191982F8F01DF
:1047D000811107C010E000E0C801A096EDE00C9444
:1047E000B5208E3519F42115310541F1A2171306B4
:1047F0004CF48D3549F18D3229F4811006C088249E
:1048000083941DC0882009F464C0E92FE695E695DD
:10481000E695EC0DFD2DF11D892F8770BA0101C0C1
:10482000660F8A95EAF78081682B6083791651F0CC
:10483000971510F49F5FE9CF9150E7CFA1E02F5F6C
:104840003F4FBFCF812CFBCF882019F08E81806233
:104850008E83AA2359F0F6019E012F5D3F4F808180
:10486000809580833196E217F307C9F788248394F3
:10487000C5010E948C2597FD16C0E82FE695E695A8
:10488000E695EC0DFD2DF11D208130E0AC01477067
:10489000552702C0359527954A95E2F720FD06C0B9
:1048A000B5010E94C825882069F094CFE114F10475
:1048B00029F0F7018083C70101967C019A94812C2D
:1048C0009110D6CFE114F10409F486CFF7011082DC
:1048D00083CFE82FE695E695E695EC0DFD2DF11DCD
:1048E000982F9770BA0101C0660F9A95EAF79081E8
:1048F000692B6083782EA3CFB0E0A0E0E2E8F4E279
:104900000C9497206C01EB015A01FC01178216826E
:10491000512CF601E380FE01E3FC8591E3FE8191D9
:10492000182FEF018823E9F090E00E948820892B5E
:1049300021F0C6010E942023ECCF153241F4FE0184
:10494000E3FC1591E3FE1191EF01153269F4C60104
:104950000E948C2597FD8EC01817D9F2B6010E94CF
:10496000C825852D90E08AC000E01A3231F4E3FCBE
:104970001591E3FE1191EF0101E0F12C20ED210FE3
:104980002A3048F101FF37C0FF2059F31836B1F142
:104990001C3609F43DC0112321F3612F70E08CEA2D
:1049A00090E00E948125892BE1F2912C812C00FD61
:1049B00006C0F50180809180C50102965C011E361B
:1049C00079F5F6014681578170E060E0202FC4013F
:1049D0000E94F1229ECF02606F2D70E090E080E097
:1049E00040E20E94FD22F62EFE01E3FC1591E3FE5B
:1049F0001191EF01C3CFFF24FA94C8CFFE01E3FC6D
:104A00001591E3FE1191EF01183609F0C4CF08604B
:104A10000460FE01E3FC1591E3FE1191EF01BBCFB1
:104A20001336C1F401FD02C0FF24F394C6010E94B5
:104A30008C2597FD1FC08114910429F0F401808317
:104A4000C40101964C01FA94F110F0CF00FD61CF42
:104A500053945FCF1B35B9F49E01A4016F2DC6019D
:104A60000E94C623EC01892B89F7F60183818073AC
:104A700009F477CF8FEF9FEF511073CFCDB7DEB72B
:104A8000EFE00C94B320C6010E94202397FDF2CFE3
:104A90001F36A9F130F4143641F0193639F00064AC
:104AA00005C01337B9F01537D1F70062202FA401E4
:104AB0006F2DC6010E9439238111C8CFD6CF811432
:104AC000910429F0F4016082C40101964C01FA942A
:104AD000FF2071F0C6010E948C253C0197FD08C0A3
:104AE0000E948820892B59F3B601C3010E94C82572
:104AF0008114910409F4AACFF4011082A7CF0061B8
:104B0000D5CFFC010590061621F00020D9F7C00191
:104B100008953197CF010895CF93DF93EC012B8156
:104B200020FF1AC026FF0CC02F7B2B838E819F8114
:104B300001969F838E838A8190E0DF91CF910895C3
:104B400022FF18C0E881F9818081082E000C990BA2
:104B5000009729F420622B838FEF9FEFEECF3196E1
:104B6000F983E8832E813F812F5F3F4F3F832E8360
:104B70009927E3CFEA85FB85099597FFF3CF2B8132
:104B8000019621F080E2822B8B83E6CF80E1FBCF80
:104B9000FB01238120FF11C026FD0FC08F3F980726
:104BA00071F082832F7D20642383268137812150F9
:104BB000310937832683992708958FEF9FEF089552
:104BC00010E0C8EFD0E004C0FE010E94CB20219687
:0A4BD000C93FD107C9F7F894FFCFE1
:104BDA0000C18081000000FFFFFFFF00E10000002C
:104BEA000000000000BD038000000000004608002D
:104BFA00000000890900000000E103CB030204F76A
:104C0A000349040704250400000000270599057CD0
:104C1A00054B0643061E0602060106E705E205F6EF
:104C2A00FF0000FD051103410800063B0638061B7C
:104C3A0006000000006304DC04A1048604000000EE
:104C4A00005206000000009614FC0ADF091B17DC5C
:104C5A0009FB0AF90AD709D209C909FE09C6098A4C
:104C6A0009FEFF0000BC09000000004013FC0AE234
:104C7A00063F120907E512F90A0407440800000072
:104C8A00002A08D507B30700000000080AF80AF846
:104C9A000AF80AF80AF80AF80AF80A454E41424C94
:104CAA00450044495341424C45004D2C0025642C93
:104CBA0025640055534220486F737420496E697405
:0E4CCA00204572726F72000D0A004B0043000D
:00000001FF
