:100000000C9409020C9431020C9431020C943102CC
:100010000C9431020C9431020C9431020C94310294
:100020000C9431020C9431020C94071A0C94761A39
:100030000C9431020C9431020C9431020C94310274
:100040000C9431020C9431020C9431020C94310264
:100050000C9431020C9431020C9431020C94BD19B1
:100060000C9431020C9431020C9431020C94310244
:100070000C9431020C9431020C9431020C94310234
:100080000C9431020C9431020C9431020C94310224
:100090000C9431020C9431020C9431020C94310214
:1000A0000C9431020C9431020C9431026364696E39
:1000B0006F70737578585B0000000000000000004E
:1000C00000000000000000002A002B0028000000B3
:1000D0000000000000000000000000000000000020
:1000E0000000000000000000000000000000000010
:1000F00000000000000000002C001E02340220025C
:1001000021022202240234002602270225022E02A6
:1001100036002D003700380027001E001F00200089
:100120002100220023002400250026003302330092
:1001300036022E00370238021F02040205020602B0
:100140000702080209020A020B020C020D020E024B
:100150000F021002110212021302140215021602FB
:100160001702180219021A021B021C021D022F009C
:100170003100300023022D02350004000500060086
:100180000700080009000A000B000C000D000E001B
:100190000F001000110012001300140015001600CB
:1001A0001700180019001A001B001C001D002F0268
:1001B00031023002350200000000000000000000A3
:1001C000000000000000000000000000000000002F
:1001D000000000000000000000000000000000001F
:1001E000000000000000000000000000000000000F
:1001F00000000000000000000000000000000000FF
:1002000000000000000000000000000000000000EE
:1002100000000000000000000000000000000000DE
:1002200000000000000000000000000000000000CE
:1002300000000000000000000000000000000000BE
:1002400000000000000000000000000000000000AE
:10025000000000000000000000000000000000009E
:10026000000000000000000000000000000000008E
:10027000000000000000000000000000000000007E
:10028000000000000000000000000000000000006E
:10029000000000000000000000000000000000005E
:1002A000000000000000000000000000000000004E
:1002B0000000000000000000080B00020202000025
:1002C00009040000010202000005240010010524B9
:1002D000010101042402060524060001070581032B
:1002E00010004009040100020A0000000705020294
:1002F00040000007058302400000040309041201C6
:100300000002EF0201406D048BC0000101020301F5
:10031000556E6B6E6F776E004C6F676974656368BE
:100320002047616D696E67204D6F75736500000031
:10033000000200090F0000030401000C000000008F
:1003400000000000000000000000000000000000AD
:1003500000250028002B002E0031000000000024A2
:100360000027002A002D00300004040404040304C4
:100370000502020202040302020202060606060643
:100380000604040202020404040802011040804032
:1003900010204080408008020401804020100201AB
:1003A0001080102040402005010902A101850105AF
:1003B0000919012908150025019508750181020513
:1003C000010930093109381581257F7508950381A8
:1003D00006C005010906A1018502050719E029E704
:1003E00015002501750195088102050C9501750818
:1003F000150026FF00190029FF81000507950675E5
:1004000008150026E700190029E78100C0009F1D9C
:100410006E2311241FBECFEFDAE0DEBFCDBF23E095
:10042000A4EFB1E001C01D92A53AB207E1F711E0D7
:10043000A0E0B1E0E8EBF1E502C005900D92A43F29
:10044000B107D9F712E0C8E0D2E004C02197FE015D
:100450000E94B523C730D107C9F70E946B1F0C94C7
:10046000CF280C9400008CBD9DBD089590E0FC0148
:10047000E857FC4F249187599C4FFC0184918823B5
:1004800099F090E0880F991FFC01E55AFC4FA59167
:10049000B491FC01E35BFC4F859194918FB7F89484
:1004A000EC91E22BEC938FBF0895FC018091360212
:1004B000882311F13FB7F89482E08093E9002091FE
:1004C000F200822F90E01816190614F481E090E0F3
:1004D000882339F0289844E6409335024091F10092
:1004E0004083222339F02091F200211103C02BE632
:1004F0002093E8003FBF08958FEF9FEF08953FB727
:10050000F8948091310290913202A0913302B0911F
:10051000340226B5A89B05C02F3F19F00196A11DF6
:10052000B11D3FBFBA2FA92F982F8827BC01CD013D
:10053000620F711D811D911D42E0660F771F881F9C
:10054000991F4A95D1F708958F929F92AF92BF92CB
:10055000CF92DF92EF92FF924B015C010E947F02EB
:100560006B017C010E947F026C197D098E099F0935
:10057000683E734081059105A8F321E0821A910835
:10058000A108B10888EEC80E83E0D81EE11CF11C5A
:1005900081149104A104B10429F7FF90EF90DF903A
:1005A000CF90BF90AF909F908F9008952FB7F89401
:1005B00060912D0270912E0280912F029091300255
:1005C0002FBF089540911C0250911D0220911A02E4
:1005D00030911B0242175307B4F49091E8009570D4
:1005E000E1F39091E80092FD19C08093F1008091B1
:1005F0001C0290911D0201968F739927892B19F483
:100600008EEF8093E80080911C0290911D0201966C
:1006100090931D0280931C0281E0089580E008956C
:10062000DF92EF92FF920F931F93CF93DF93D82E19
:100630008A01EB017B01E40EF51ECE15DF0559F0B2
:10064000D7FE12C0FE0184910E94E2022196811120
:10065000F4CF0FEF1FEFC801DF91CF911F910F91E2
:10066000FF90EF90DF9008958881EECF2FB7F89438
:1006700087708093E9009091E800892F807295FF40
:1006800004C09091F20080E4891B2FBF08957F92EF
:100690008F929F92AF92BF92CF92DF92EF92FF9292
:1006A0000F931F93CF93DF93C82E8B017A01809114
:1006B0003602811110C08FEF9FEFDF91CF911F9114
:1006C0000F91FF90EF90DF90CF90BF90AF909F90F1
:1006D0008F907F9008958091200280FF05C08091C7
:1006E000E00082608093E000CE2DDF2DD12C8AEFD8
:1006F000B82E8C2D8770982E8C2D8072882E8C2D84
:100700008074782E9AE3A92E209719F4DD2009F43D
:1007100052C08C2D0E94360381110AC0BA94BB20AE
:1007200051F261E070E080E090E00E94A402ECCF22
:100730008C171D0611F00CF08C2F9FB7F894909237
:10074000E9002091E80025FD02C09FBFDDCF282FE2
:1007500030E0C21BD30B882029F08150A0F010920A
:10076000F100FBCFF801C7FC0AC0815050F0419165
:100770004093F100FACF44914093F10031968150BB
:10078000D0F7020F131FDD2021F0A092E800D12C3A
:10079000DCCF8091E80085FD07C0A092E800DD2451
:1007A000D394209791F2F3CF209779F6772069F2CE
:1007B000A092E800CACF5D9884E680931F02C7012B
:1007C0007CCF615030F02091F100FC012083019634
:1007D000F8CF289884E6809335020895AF92BF92AF
:1007E000CF92DF92EF92FF920F931F93CF93DF93FD
:1007F0006C017B018B01040F151FEB015E01AE182C
:10080000BF08C017D10759F06991D601ED91FC914D
:100810000190F081E02DC6010995892B79F7C5017A
:10082000DF91CF911F910F91FF90EF90DF90CF90CC
:10083000BF90AF9008958091120281110DC082E0A7
:1008400080930E0284E080930F02109211021092A6
:10085000100281E0809312028EE092E008950F93DF
:100860001F93CF93DF931F92CDB7DEB782E08983CA
:1008700042E450E068EB72E080E80E9410030E94BE
:100880001B04DC0112960D911C910115110589F0D4
:10089000D801ED91FC910280F381E02DBE016F5FE4
:1008A0007F4FC801099597FD04C0F80100851185A7
:1008B000ECCF89810F90DF91CF911F910F91089517
:1008C000CF93DF93EC0180911201882331F083E014
:1008D0000E9447031816190634F081E090E09B83CC
:1008E0008A8380E090E0DF91CF910895CF93DF93EA
:1008F0001F92CDB7DEB76983DC01ED91FC910280D8
:10090000F381E02D41E050E0BE016F5F7F4F09951C
:100910000F90DF91CF91089583E08093E90080915B
:10092000F200882319F08AE38093E800089583E0B9
:100930000E94360390E00895CF93DF931F92CDB7C6
:10094000DEB7FC018485958597FD08C02FEF3FEF4A
:10095000358724870F90DF91CF910895CE010196BE
:100960000E945502019719F4898190E0F3CF8FEF2F
:100970009FEFF0CF0F931F93CF93DF931F92CDB7CD
:10098000DEB78C01FC018485958597FF0BC0CE01F5
:1009900001960E945502019771F4898190E0F80157
:1009A00095878487F801848595850F90DF91CF9195
:1009B0001F910F9108958FEF9FEFF1CFFC01848578
:1009C000958597FD0BC09FB7F89482E08093E9006E
:1009D0008091F2009FBF90E0019608959FB7F89430
:1009E00082E08093E9008091F2009FBF90E008953B
:1009F000DC01FB0112962C911297848195812817B6
:100A0000190641F491818081813A31F49D7F81E022
:100A1000913009F080E008958132E1F79B3029F4AC
:100A200082811F968C9381E008959A3099F7828194
:100A300050968C93F8CFAF92BF92CF92DF92EF9205
:100A4000FF920F931F93CF93DF931F92CDB7DEB723
:100A50007C0169836A01590141E050E0BE016F5F8A
:100A60007F4FFC0183810E9447038C0197FD0BC0DF
:100A7000F7018381A501B60180640E944703080F36
:100A8000191F97FD8C01C8010F90DF91CF911F9125
:100A90000F91FF90EF90DF90CF90BF90AF900895AF
:100AA000DC01FB0188E4808389E4818384E4828320
:100AB0001D969C911D979F709F5B93831D968D91B2
:100AC0009C9124E0969587952A95E1F78F708F5B2E
:100AD000848385E00895EF92FF920F931F93CF9345
:100AE000DF93FB012081213871F52381223259F5F2
:100AF000DC0112964C91248135814217130619F5B9
:100B0000EC010B851C85F12CE12C0115110589F0F8
:100B1000F801448155816281738180E80E9410034D
:100B20008F3F980749F0E80EF91ED8010D911C91EE
:100B3000ECCF81E08F87C701DF91CF911F910F919B
:100B4000FF90EF90089590E080E0F6CFCF93DF9391
:100B5000CDB7DEB769970FB6F894DEBF0FBECDBF35
:100B6000FC01DB018C918F5F8C939E012D5F3F4FC9
:100B70008DE0D9011D928A95E9F729E0298384E067
:100B80008A8391E09D8383E08E832A8721E22B87ED
:100B90009C879D879F8722E2288B27E02B8B25E06F
:100BA0002C8B8E8B20E430E0388F2F8B998F8281B5
:100BB0008B8395858685998B8A8B838180688D8BC5
:100BC00049E150E0BE016F5F7F4F80E00E9410035B
:100BD00069960FB6F894DEBF0FBECDBFDF91CF91FF
:100BE0000895CF93DF9380910602811167C081E061
:100BF0008093F9018093FA012FEF31E03093FC01EB
:100C00002093FB011092FE011092FD0120E331E0E0
:100C10003093F6012093F501109201021092000228
:100C20001092030210920202809304028093050244
:100C300081EC8093FF010E941B04FC018181909153
:100C4000F901482F490F5527551F483051059CF58C
:100C5000A281B381109709F525EF31E03383228318
:100C600020812093F7018093F8018091FA01820F8F
:100C700080832091FB01A22FB091FC018A2F821B5F
:100C80008917C8F481813D91C82FD0E0C050DF4F53
:100C900038838F5F8183F2CFD90118962D913C91D3
:100CA000199721153105C1F725EF31E019963C93CD
:100CB0002E931897D5CF81E08093060285EF91E0BF
:100CC000DF91CF9108950F931F93CF93DF93EB01A3
:100CD0008A010E94F1059801AE0161E0DF91CF9198
:100CE0001F910F910C941B05CF93DF9300D000D080
:100CF000CDB7DEB79091980299838A836B834C833A
:100D000044E050E0BE016F5F7F4F86E992E00E94B1
:100D100063060F900F900F900F90DF91CF91089581
:100D20009091980280958923981739F080939802C2
:100D300040E060E080E00C94740608959091980281
:100D4000892B981739F08093980240E060E080E0AA
:100D50000C9474060895CF93DF93EC010E94F10583
:100D6000AE014C5F5F4F28E030E062E0DF91CF9151
:100D70000C941B05CF93DF93DC0190E2960F983023
:100D8000B0F414968C91149721E030E001C0220F4A
:100D90009A95EAF7442341F0282B14962C9381E08E
:100DA00090E0DF91CF91089520952823F6CFFD01A3
:100DB00036964423D1F0CD010C96EF0129916217AC
:100DC00071F3C817D907D1F790E080E02191211184
:100DD00005C0A80FB91F16966C93E1CF0196863017
:100DE0009105A1F790E080E0DCCF90E080E02191D8
:100DF000621305C0A80FB91F16961C92D0CF01969A
:100E000086309105A1F7EECFCF92DF92FF920F933C
:100E10001F93CF93DF938C01F42EE62FF0E0EE0FBB
:100E2000FF1FE854FF4FC590D490D801ED91FC917D
:100E30000484F585E02D6C2DC8010995EC01892B02
:100E400011F4F11070C0D0FE0CC0D801ED91FC91EE
:100E50000484F585E02D4F2D60EEC8010995C82B5F
:100E6000D92BD1FE0CC0D801ED91FC910484F585FD
:100E7000E02D4F2D61EEC8010995C82BD92BD2FE6C
:100E80000CC0D801ED91FC910484F585E02D4F2D27
:100E900062EEC8010995C82BD92BD3FE0CC0D8012E
:100EA000ED91FC910484F585E02D4F2D63EEC80192
:100EB0000995C82BD92BD4FE0CC0D801ED91FC911B
:100EC0000484F585E02D4F2D64EEC8010995C82BEB
:100ED000D92BD5FE0CC0D801ED91FC910484F58589
:100EE000E02D4F2D65EEC8010995C82BD92BD6FEF4
:100EF0000CC0D801ED91FC910484F585E02D4F2DB7
:100F000066EEC8010995C82BD92BD7FE0CC0D801B5
:100F1000ED91FC910484F585E02D4F2D67EEC8011D
:100F20000995C82BD92BCE01DF91CF911F910F913D
:100F3000FF90DF90CF900895FF920F931F93CF9370
:100F4000DF93EC01F62E41E00E9404078C01892B0F
:100F5000A9F0E881F9810284F385E02DCE0109959D
:100F600040E06F2DCE010E940407892B39F0E88103
:100F7000F9810284F385E02DCE010995C801DF9146
:100F8000CF911F910F91FF900895CF93DF93EC01C4
:100F90008A819B81DC01ED91FC910480F581E02D3B
:100FA0006A8509958A85813439F4EA81FB81EA589A
:100FB000FF4F8081846080831A861B861C861D8675
:100FC0001E861F86188A80E0DF91CF91089581E008
:100FD000693009F080E00895FC01828508950F933F
:100FE0001F93CF93DF93FC018B01EA0180819181F4
:100FF000892B31F19281992349F128813981232B61
:10100000F9F0D8012D913C91D9014C918381682F41
:10101000691B770B80819181860F971FDC014C93B0
:101020008281815082838881998101979983888305
:10103000D8018D919C91119701968D939C93DACF55
:1010400080E0DF91CF911F910F910895838182837A
:1010500081E0F7CF08953F924F925F926F927F9217
:101060008F929F92AF92BF92CF92DF92EF92FF92B8
:101070000F931F93CF93DF9300D000D0CDB7DEB78F
:101080006C017A8369835C834B8384E0482E36014C
:1010900082E1680E711C93E0392E5601A7E0AA0E7A
:1010A000B11C12E0552453944601B0E18B0E911C03
:1010B00029813A812115310509F4CBC0F60180A1BF
:1010C0008230F1F0A8F5882309F457C0813091F7F8
:1010D000AE014F5F5F4FBE016D5F7F4FC5010E9444
:1010E000EF07882309F4B5C0D6011596ED91FC9160
:1010F0001697808191968C939197818192968C938B
:10110000F6017682658230A2D60192968C919297F2
:10111000843011F493961C92F60181A1825084834D
:1011200025813681308727838287818740A205C049
:10113000833051F3843009F0BDCFD60192968C9163
:101140009297843019F1853009F44CC0823009F04F
:1011500073C0AE014F5F5F4FBE016D5F7F4FC50132
:101160000E94EF07882309F474C0F601858984A3DF
:10117000F6019682858210A29BCF14838581968189
:10118000908787831287118750A2A2CFAE014F5F4D
:101190005F4FBE016D5F7F4FC5010E94EF0788233F
:1011A00009F457C0D60155968C915597833001F7B5
:1011B00098968C9198978111DBCF93965C92939738
:1011C00052968C91529796968C93969753968C91B3
:1011D000539797968C93979757968C915797959688
:1011E0008C93C6CFAE014F5F5F4FBE016D5F7F4FE7
:1011F000C5010E94EF07882361F1F60183A18823CE
:1012000009F4B6CF82819381009709F4B1CFDC0154
:10121000ED91FC910190F081E02D7401D60195963D
:101220000C91959797962C91979796964C919697A7
:1012300094966C9109959CCFF60185858823F9F0E9
:10124000813041F1D6011E968D919C91892B09F434
:101250008FCF0F900F900F900F90DF91CF911F9134
:101260000F91FF90EF90DF90CF90BF90AF909F9045
:101270008F907F906F905F904F903F9008959196E0
:101280008C9191978250990B1F969C938E931E97E9
:101290001D965C9229813A818B819C81782F692FE0
:1012A000F601468557854115510581F001962115B6
:1012B000310539F04150510957874687215031098E
:1012C000EDCF7B836C831A821982BCCF9C838B8386
:1012D0003A8329831586B6CFCF93DF93EC018C81B7
:1012E0009D81DC01ED91FC910480F581E02D6E8102
:1012F000099581E08E8F1E821F8E18A219A21AA254
:101300001CA280E0DF91CF910895FC01DC01A65A78
:10131000BF4F8C918823A1F08781681741F08285A7
:1013200021E030E0681729F090E080E0089530E097
:1013300020E0C901880F991F820F931FE80FF91F42
:10134000808591850895FC018781811104C0808585
:101350009185892B59F08285811106C083859485FA
:1013600021E030E0892B21F080E0089530E020E09A
:10137000C901880F991F820F931FE80FF91F678318
:101380005187408781E008950895DF92EF92FF92A0
:101390000F931F93CF93DF93EC0185E0E62EF12CA2
:1013A000FE01869FE00DF11D1124908596FF24C05B
:1013B000192F177001E085E0D82E8FEF800F8F3046
:1013C00008F001E0602F70E0062FD69EF001D79E56
:1013D000F00D1124EC0FFD1F80858695869586956E
:1013E0008770181701F16F5F7F4F603168F38D814F
:1013F000811302C011501D8385E08E9DF0018F9DE9
:10140000F00D1124EC0FFD1F108681E081871286FC
:101410002296D783C683DF91CF911F910F91FF90C2
:10142000EF90DF900895CE010E94C509C6CFFC0160
:1014300020812EBD9B012150310941F051810DB415
:1014400007FEFDCF4EB55EBD4193F5CF61507109EA
:10145000860F971F0DB407FEFDCF2EB5FC0120832C
:101460000895FC0121E0613499F49C01255B3F4F14
:1014700061E0AC014E5F5F4F158666871786548723
:10148000438735962E173F07B9F7FC01158208955B
:101490003585631729F02F5F35962031C9F70895F8
:1014A000622F0C94C509CF93DF93FC0167FD12C036
:1014B000283080F4442319F08581873059F0EF01FA
:1014C000A1E0B0E08D85882349F111962596A031E1
:1014D000B105C1F780E018C085E08A9FE0018B9FCD
:1014E000D00D1124CE0FDF1F442389F081E48887BB
:1014F00085818F5F858325E02A9FC0012B9F900DFA
:101500001124E80FF91F8085DF91CF91089581E0C4
:101510008887F1CF2770687B622B0FC06623E1F2CA
:101520006770660F660F660F4423A1F360648581C0
:101530008F5F85838770687F682B25E02A9FC001B5
:101540002B9F900D1124E80FF91F6087862FDCCFA9
:10155000FC0121E0611102C00696089535856317EC
:1015600039F02F5F35962031C9F790E080E008957B
:10157000069635E0239F800D911D112408950F9349
:101580001F93CF93DF932115310599F0E901042FC3
:10159000162F0E94A80AFC0186ED309729F01283CD
:1015A000D183C083038380E0DF91CF911F910F919E
:1015B000089588EDF9CF90E080E008952E98089581
:1015C0002E9A089588E392E00E94DE04892B29F088
:1015D00088E392E00E949C04F5CF0895FF920F9358
:1015E0001F93CF93DF93EC01F22E82E0821708F075
:1015F0006DC0F80182812091290230912A02820F68
:10160000932F911D64812091270230912802620F4F
:10161000732F711D10922A02109229021092280233
:1016200010922702009719F46115710519F040E036
:101630000E9474068A81F801908190FF4FC0811149
:1016400005C081E00E949E0681E08A838B81F801BB
:10165000908191FF4BC0811105C082E00E949E06DF
:1016600081E08B838C81F801908192FF47C08111CA
:1016700005C084E00E949E0681E08C838D81F80184
:10168000908193FF43C0811105C088E00E949E06AF
:1016900081E08D838E81F801908194FF3EC081119D
:1016A00005C080E10E949E0681E08E83F3E0FF1575
:1016B00078F4F8014681442359F060E080E0DF913E
:1016C000CF911F910F91FF900C9474062111B2CF0E
:1016D000DF91CF911F910F91FF900895882309F416
:1016E000B5CF81E00E9490061A82B0CF882309F41A
:1016F000B9CF82E00E9490061B82B4CF882309F400
:10170000BDCF84E00E9490061C82B8CF882311F2DE
:1017100088E00E9490061D82BDCF882339F280E1C7
:101720000E9490061E82C2CFFC019C01285F3F4FA1
:1017300090E080E044814111019614823196E217D5
:10174000F307C1F70895EF92FF920F93FC01368DD6
:10175000323018F0348D361302C00E94DB1C0F911A
:10176000FF90EF900895EF92FF920F9302970E94DF
:10177000A30B0F91FF90EF9008950895EF92FF92C1
:101780000F931F93422F202F8701DC01ED91FC91D5
:1017900000A0F1A1E02D09951F910F91FF90EF900E
:1017A000089581E00895FC0184A10895FC018681DB
:1017B000089580E0089581E0089580E0089580E034
:1017C0000895089580E0089508950F931F93CF938F
:1017D000DF93D82FC62F8A0180E591E00E94330263
:1017E0000E94DE0AD260DEBDF8018C2F882339F01A
:1017F0000DB407FEFDCF91919EBD8150F7CFC00F74
:10180000D12FD11D0DB407FEFDCF0E94E00ACE01FD
:10181000DF91CF911F910F9108950F931F93CF9355
:10182000DF9300D0CDB7DEB7182F062F80E591E00B
:101830000E9433020E94DE0A126019830A8362E06A
:1018400070E0CE0101960E94170A0E94E00A0F90F4
:101850000F90DF91CF911F910F9108959F92AF92BA
:10186000BF92CF92DF92EF92FF920F931F93CF938D
:10187000DF936C01C42FD22F99249394E62EF12C80
:10188000EE0CFF1CE80EF91E86E5E80EF11CA42EF6
:10189000B12CABE2AA0EB11CAA0CBB1CAC0CBD1C3B
:1018A000F70180819181DC01ED91FC910280F3814F
:1018B000E02D202F4D2F6C2F0995182F803EC9F554
:1018C000C1112BC061E088EE0E940D0C66E670E04D
:1018D00080E090E00E94A402F70180819181DC0108
:1018E000ED91FC910190F081E02D202F4D2F6C2F78
:1018F0000995182F8D30D1F58FEF890D8330F8F0D1
:10190000C11137C061E088EE0E940D0C66E670E000
:1019100080E090E00E94A4021CC0F50180819181CA
:10192000DC01ED91FC910284F385E02D6D2F09958A
:10193000D3CF8D3061F48FEF890D833050F464E69E
:1019400070E080E090E00E94A4029394A9CF8823E5
:1019500019F2812FDF91CF911F910F91FF90EF909E
:10196000DF90CF90BF90AF909F900895882389F328
:10197000C7CF8C2F90E08B96880F991F8C0D9D1DE3
:10198000FC0180819181DC01ED91FC910284F38561
:10199000E02D6D2F0995DDCF8EBD00000DB407FE43
:1019A000FDCF8EB50895CF93C82F80E591E00E94BA
:1019B00033020E94DE0A8C2F0E94CC0C80E00E9431
:1019C000CC0CC82F0E94E00A8C2FCF9108958F92E3
:1019D0009F92AF92BF92CF92DF92EF92FF920F93BE
:1019E0001F93CF93DF93882E962E5A010E94D60222
:1019F0006B017C0128E8C20E23E1D21EE11CF11C20
:101A000010E000E0D0E0C0E098280E94D6026C19F7
:101A10007D098E099F0997FF1EC0692D80EF0E94E6
:101A20000D0C0E94D6026C197D098E099F0997FF43
:101A300009C088EC0E94D30C87FFF3CF60E888ECE4
:101A40000E940D0C88EF0E94D30CC82FCF70C430B9
:101A500081F0CE30B9F08C2FDF91CF911F910F9193
:101A6000FF90EF90DF90CF90BF90AF909F908F90BE
:101A700008950F5F1F4FA114B10439F20A151B0519
:101A800021F6E9CFDF5FD33009F0BFCFE4CFAF92CB
:101A9000BF92CF92DF92EF92FF920F931F93CF935B
:101AA000DF93EC01B62EA42E69010E94A80A7C01E6
:101AB00086EDE114F10409F447C0D701ED91FC91E2
:101AC000119787ED309709F43FC013969C9180E001
:101AD000981731F02081A21629F033968F5FF8CF46
:101AE000F0E0E0E0D601ED93FC938BED309761F1EF
:101AF000228126952695203108F02FE081E090E0A4
:101B0000A0E0B0E004C0880F991FAA1FBB1F2A9550
:101B1000D2F70197F801918380836B2D80EE0E94AC
:101B20000D0C88ED0E94D30CD70114969C91682F60
:101B3000697F992329F0CA58DF4F68816260682B5A
:101B400088ED0E940D0C80E0DF91CF911F910F91E5
:101B5000FF90EF90DF90CF90BF90AF90089588EF07
:101B60000E94D30C807C8034B1F018F4882301F1FA
:101B70000895803819F0803CC9F0089588ED0E94DE
:101B8000D30C81FD0DC069EC88ED0E940D0C82E044
:101B900080933702089588ED0E94D30C81FDF3CF26
:101BA0006BEC88ED0E940D0C83E0F2CF81E0F0CF6A
:101BB00061ED88ED0E940D0C109237020895FC0132
:101BC000448155818091B8029091B902841795079C
:101BD00080F08091B4029091B502009751F060813D
:101BE00071816115710529F00E94B92521E0892BC9
:101BF00009F020E0822F08952F923F924F925F923A
:101C00006F927F928F929F92AF92BF92CF92DF920C
:101C1000EF92FF920F931F93CF93DF937B013A01D3
:101C20006901F901A080B180FB013180F9011182C5
:101C30001082FB01828160E181FD60E288EE0E94FA
:101C40000D0C2A2CA301F701608180E00E94E70CB3
:101C5000582EF6E08F1310C088EF0E94D30CF701C6
:101C600092819D7F84FF9260928360E191FD60E2AA
:101C700088EE0E940D0CE6CF811150C088EC0E94C6
:101C8000D30C82FF5FC080E30E94D30C482E8A15DC
:101C90001B0411F008F0422CF60180819181E501CE
:101CA000C81BD90BD7FF02C0D0E0C0E0842C912C18
:101CB0008C169D060CF4E40180E591E00E9433024D
:101CC0000E94DE0A88E00E94CC0CAE0170E060E069
:101CD000C8010E94AB25209721F0BE01C8010E94D7
:101CE000170A0C0F1D1F0E94E00A64E088EC0E9496
:101CF0000D0CF60180819181880E991E918280825F
:101D0000431420F08A149B0408F49CCF88EF0E94AF
:101D1000D30CF701928184FB91F99283852DDF9199
:101D2000CF911F910F91FF90EF90DF90CF90BF90D8
:101D3000AF909F908F907F906F905F904F903F906B
:101D40002F90089580EF582EE9CFAF92BF92CF9297
:101D5000DF92EF92FF920F931F93CF93DF9300D008
:101D600000D0CDB7DEB77C01690158011C821B820F
:101D70001A8219828E010F5F1F4F9E012D5F3F4F08
:101D80000E94470D811109C049815A816B817C8174
:101D900085019601C7010E94FC0D0F900F900F90D6
:101DA0000F90DF91CF911F910F91FF90EF90DF90F7
:101DB000CF90BF90AF9008954F925F926F927F92B5
:101DC0008F929F92AF92BF92CF92DF92EF92FF924B
:101DD0000F931F93CF93DF93CDB7DEB7C254D109D2
:101DE0000FB6F894DEBF0FBECDBFDC0194962C91E8
:101DF00021111AC0612C862DCE5BDF4F0FB6F894EF
:101E0000DEBF0FBECDBFDF91CF911F910F91FF902D
:101E1000EF90DF90CF90BF90AF909F908F907F908A
:101E20006F905F904F9008957C010E94D602F70159
:101E3000878C90A0A1A0B2A0681979098A099B0992
:101E400097FDD8CF0E94D602D70193962C91620FAE
:101E5000711D811D911DF701678F70A381A392A34E
:101E6000712C6E01F1E4CF0ED11C30E4832E912C45
:101E700057018AE5A80EB11CD7015D968C917816A2
:101E800008F0B8CFE72DF0E07296EE0FFF1FEE0FCF
:101E9000FF1FEE0DFF1D8081E82FF0E0CF01880FBE
:101EA000991FDC01AE0FBF1FAE0DBF1D96962C9182
:101EB00030E0D6012D933C93DE0111962D011D9249
:101EC000AC15BD05E1F7E80FF91FEE0DFF1D82010E
:101ED000960145A1F7016681848195810E94A50E36
:101EE000682E811188CFD6018D919C9111978134F4
:101EF000910510F08D929C92D701ED91FC9100A07C
:101F0000F1A1E02D8201D6012C91D5014C91B701B0
:101F1000C7010995D701ED91FC910288F389E02D65
:101F2000D5018C9181116980662DC70109950097B3
:101F300069F0DC01ED91FC910190F081E02D8201CE
:101F4000D6012C91D5014C91B7010995739494CF8A
:101F50003F924F925F926F927F928F929F92AF9239
:101F6000BF92CF92DF92EF92FF920F931F93CF9386
:101F7000DF93CDB7DEB7C254D1090FB6F894DEBFF8
:101F80000FBECDBFDC0194962C91222309F4A1C091
:101F90006C010E94D602F601878C90A0A1A0B2A08D
:101FA000681979098A099B0997FD93C00E94D60296
:101FB000D60193962C91620F711D811D911DF60122
:101FC000678F70A381A392A3312C5E01F1E4AF0E61
:101FD000B11C46018AE5880E911CD6015D968C9154
:101FE000381608F076C0E32DF0E07296EE0FFF1F72
:101FF000EE0FFF1FEC0DFD1D6080662009F467C029
:10200000712C7301EE0CFF1CF701E60DF71DEC0DB2
:10201000FD1D86A190E0F50191838083FE0131963C
:102020002F011192EA15FB05E1F7F701E60DF71D07
:10203000EC0DFD1D8201950145A1D60116966C910E
:10204000169714968D919C910E94A50E182F8111C0
:102050003EC0F501808191810097C9F181349105DD
:1020600020F080E490E091838083E60CF71CD60199
:10207000AE0DBF1DF60180819181FC01608C718CD9
:102080007201F5010081F401208195964C91B60111
:10209000C601F3010995D601ED91FC910288F389FF
:1020A000E02DD4018C9181111981612FC601099510
:1020B000009769F0DC01ED91FC910190F081E02D39
:1020C0008201D5012C91D4014C91B601099533942C
:1020D00084CF80E0CE5BDF4F0FB6F894DEBF0FBE3B
:1020E000CDBFDF91CF911F910F91FF90EF90DF90C7
:1020F000CF90BF90AF909F908F907F906F905F90A8
:102100004F903F9008952F923F924F925F926F921F
:102110007F928F929F92AF92BF92CF92DF92EF9277
:10212000FF920F931F93CF93DF93CDB7DEB76697E0
:102130000FB6F894DEBF0FBECDBF3C01442E322E49
:10214000202EEA8ACE8AEBA4FCA4CDA4DEA41E86AF
:102150001D86188A1F868E01015F1F4F9E01235F17
:102160003F4F0E94470D582E81113BC139822A8270
:102170002A892B833E893C83BE82AD8298868F82DA
:10218000AE014F5F5F4F68E080E20E94E50B4F8534
:102190005889642D80E10E94E70C811140C1C1146F
:1021A000D10409F453C00D851E85D80112968C9177
:1021B000129737FE51C0826012968C9354012224EC
:1021C0002394A114B10409F42FC1FC86EB864F853A
:1021D00058896D857E8586019E01255F3F4FC3012D
:1021E0000E94FC0D582EB6E08B130EC088EF0E94A3
:1021F000D30CED85FE8585FB882780F982259281A9
:1022000080FB91F99283DDCF8111EBC0EFA5F8A996
:102210003097A1F06B857C850190F081E02D0190D5
:10222000F081E02DC4018A199B099A8789879E0154
:10223000275F3F4FA6018FA598A909958B859C859F
:10224000A81AB90A8E159F0508F0BBCF4F8558898B
:1022500037FEE1C080EAE0C0816012968C9312974D
:1022600011968C908FEF880D803408F0DAC02F849F
:1022700038880E94D6029B01AC0128573C4E4F4F34
:102280005F4F2A8B3B8B4C8B5D8BD80112968C91C8
:1022900060E880FF60E488EE0E940D0C512C912CC8
:1022A000E114F10409F48CC03401E814F90408F4D1
:1022B00037016E8AA601662D80E10E94E50B662D2E
:1022C00088E30E940D0CF8016081606280EF0E943B
:1022D0000D0C88EC0E94D30C87FFFBCF60E888ECE4
:1022E0000E940D0C88EF0E94D30C8F70582E198A13
:1022F000B12CA12C552021F10E94D6022A893B89BC
:102300004C895D89621B730B840B950B97FF18C07A
:1023100036E0531609F440C04EE05416B1F054E0D4
:10232000551209C08FEFA81AB80A2114310491F090
:102330002A143B0479F460E088E30E940D0C42C04B
:10234000E618F708C60CD71CABCF99899F5F998B0D
:10235000933089F360E088E30E940D0CD6016C9104
:1023600080E10E940D0C6E8988E30E940D0CF8013B
:102370006081606280EF0E940D0C88EC0E94D30C9B
:1023800087FFFBCF60E888EC0E940D0C88EF0E946D
:10239000D30C8F70582EAECF88EF0E94D30C85FBE4
:1023A000882780F9A1E08A27F801928180FB90F9C3
:1023B000928360E890FF60E488EE0E940D0CCACF23
:1023C0005110B9CF88EF0E94D30CD80112969C917E
:1023D000129785FB90F912969C934F85588955204A
:1023E000D1F0852D66960FB6F894DEBF0FBECDBF37
:1023F000DF91CF911F910F91FF90EF90DF90CF90E1
:10240000BF90AF909F908F907F906F905F904F9014
:102410003F902F90089580E8642D0E94E70C582E7D
:10242000E0CF8AED582EDDCF4F855889552009F42D
:1024300011CFD7CF8F929F92AF92BF92CF92EF9250
:102440000F93CF931F921F921F921F921F921F9262
:10245000912C812CB12CA12CC12CE62E05E020E082
:1024600040E060E00E948310C82F6CE271E080E0E1
:1024700090E00E94A4020F900F900F900F900F9089
:102480000F908C2FCF910F91EF90CF90BF90AF9086
:102490009F908F9008958F929F92AF92BF92CF920C
:1024A000EF920F931F921F923F932F935F934F933F
:1024B0004A01B12CA12CCC24C394E12C06E020E8E5
:1024C00040E00E9483100F900F900F900F900F909C
:1024D0000F900F91EF90CF90BF90AF909F908F9003
:1024E00008952F923F924F925F926F927F928F92B8
:1024F0009F92AF92BF92CF92DF92EF92FF920F9393
:102500001F93CF93DF93CDB7DEB767970FB6F894DD
:10251000DEBF0FBECDBF1B8A38E03C8B3CE33D8B5A
:102520008A3F3FEF9307D9F406ED802F67960FB6E9
:10253000F894DEBF0FBECDBFDF91CF911F910F91F9
:10254000FF90EF90DF90CF90BF90AF909F908F90D3
:102550007F906F905F904F903F902F900895122F33
:10256000342E462E7C01DC011696CD90DC90179718
:10257000CE01439617969C938E9316971A962C939A
:102580009E012F5F3F4F42E150E060E0C7010E9493
:102590004B12582EF701D782C682082F8111C5CF62
:1025A00089849A846B847C84FD81FE8B3E813F8B81
:1025B000670186E5C80ED11C5601212CD5018D91ED
:1025C0009C910097F1F52394B2E0AB0EB11CE0E1D1
:1025D0002E12F4CFF60180819181009709F070C02E
:1025E0005394F2E0CF0ED11C30E15312F3CFF70138
:1025F0008681978107ED892B09F497CF1287232DC8
:1026000040E0642DC7010E94530AD82E04ED8823B0
:1026100009F48BCF682FC7010E94A80A009709F41C
:1026200083CFDC0114961C936D2DC7010E941A12F2
:10263000082F882309F479CF6D2DC7010E94310A34
:1026400074CFDC01ED91FC910084F185E02D0995BA
:102650008111B9CFF50180819181DC01ED91FC916F
:102660000088F189E02D6F890995882309F4ABCFA3
:10267000F50180819181DC01ED91FC910484F58567
:10268000E02DA301B4010995882361F0012F232DCA
:10269000442D622DC7010E942E0C082F813D09F4A4
:1026A00092CF43CFF50180819181DC01ED91FC91C6
:1026B0000684F785E02D6E8909958111E7CF83CFD8
:1026C000DC01ED91FC910084F185E02D09958111EB
:1026D00087CFF60180819181DC01ED91FC9100882A
:1026E000F189E02D6F89099581110DC0012F232DEE
:1026F000442D652DC7010E942E0C082F877F813D38
:1027000009F013CF6DCFF60180819181DC01ED914D
:10271000FC910484F585E02DA301B4010995811194
:102720005FCFF60180819181DC01ED91FC910684FF
:10273000F785E02D6E8909958823C1F251CF8F92DC
:102740009F92AF92BF92CF92EF920F931F931F92DF
:102750001F921F930F935F934F934A01B12CA12CAB
:1027600032E0C32EE22E06E020E840E00E94831013
:102770000F900F900F900F900F900F901F910F914F
:10278000EF90CF90BF90AF909F908F9008958F92D1
:102790009F92AF92BF92CF92EF920F93A42EB12C43
:1027A0001F921F921F921F921F921F92912C812C99
:1027B000C12CE62E01E023E240E0FC01628582812B
:1027C00093810E9483100F900F900F900F900F90A5
:1027D0000F900F91EF90CF90BF90AF909F908F9000
:1027E00008958F929F92AF92BF92CF92EF920F93E4
:1027F000A62EB12C1F921F925F934F931F9224E03D
:102800002F9324E0822E912CC12CE12C00E023EAAE
:1028100040E0FC016285828193810E9483100F90C9
:102820000F900F900F900F900F900F91EF90CF900F
:10283000BF90AF909F908F9008958F929F92AF928C
:10284000BF92CF92EF920F93A42EB12C1F921F92A2
:102850001F921F921F921F92912C812CC12CE62E49
:1028600003E023E240E0FC016285828193810E94C3
:1028700083100F900F900F900F900F900F900F916B
:10288000EF90CF90BF90AF909F908F900895CF9290
:10289000DF92EF92FF921F93CF93DF93EC01162FFD
:1028A0007A01FA0180819181A281B3818130F3E0C4
:1028B0009F07F1E0AF07B105C9F170F48115E1E0C0
:1028C0009E07AE07B10509F450C081309140A14088
:1028D000B10561F180E041C0833021E0920720E141
:1028E000A207B10529F083309340A041B10591F7CB
:1028F000412F64E1CE010E94C713412F60E1CE0158
:102900000E94C71364E170E080E090E00E94A4029E
:102910006A85F7012181269521706770412F8A8190
:102920009B810E9471121092F401D4CF8091F40126
:102930008111D0CF412F61E1CE010E94C713412FF9
:1029400060E1CE010E94C713412F64E0CE010E94D6
:102950001D1481E08093F40181EBDF91CF911F91F1
:10296000FF90EF90DF90CF900895462F61E1CE0168
:102970000E94C713412F60E1CE010E94C71310923D
:10298000F4018A8587701770880F880F880F182BBD
:1029900009F4A0CFEA80FB806701F6E5CF0ED11CD9
:1029A000D0E0C0E0D6018D919D916D010097C1F0FE
:1029B000DC01ED91FC910084F185E02D099518135F
:1029C0000FC0AB96CC0FDD1FCE0DDF1D8881998126
:1029D000DC01ED91FC910480F581E02D09957ACF21
:1029E0002196C031D105F1F675CFCF92DF92EF92EB
:1029F000FF920F931F93CF93DF93CDB7DEB72E9740
:102A00000FB6F894DEBF0FBECDBFFC0120892111A7
:102A100011C010E0812F2E960FB6F894DEBF0FBEC6
:102A2000CDBFDF91CF911F910F91FF90EF90DF907D
:102A3000CF9008957C010E94D602F7010485158588
:102A400026853785601B710B820B930B97FDE1CFB9
:102A500081E090E09E878D878E010F5F1F4F9E0162
:102A6000235F3F4F41E06285828193810E94A50EE2
:102A7000182F811121C082E0D82E01E089818D219B
:102A800039F119861A861B861C86AE01475F5F4F97
:102A9000602FC7010E94F113C82E811119C0AE0129
:102AA000475F5F4F602FC7010E944714813B19F0B9
:102AB000882371F0C82E1C2D0E94D6026C597F4FBE
:102AC0008F4F9F4FF7016487758786879787A2CFBF
:102AD000DD0C0F5F083091F601E0F7018385801768
:102AE00058F319861A861B861C86AE01475F5F4F16
:102AF000602FC7010E94F113D82E811117C089855C
:102B00009A85877091708130914081F48B859C8586
:102B100081609C878B87AE01475F5F4F602FC70145
:102B20000E944714813B29F0811102C00F5FD5CF6D
:102B3000D82E1D2DC1CFCF92DF92FF920F931F93FE
:102B4000CF93DF9300D000D0CDB7DEB78C01F62E47
:102B500019821A821B821C82462F61E10E94C713D0
:102B60004F2D60E1C8010E94C7134F2D64E0C801DA
:102B70000E941D1483E0C82ED12CAE014F5F5F4F21
:102B80006F2DC8010E94F113811114C089819A81AF
:102B9000AB81BC819D7F83309140A041B10551F054
:102BA00064E670E080E090E00E94A40281E0C81A30
:102BB000D10819F74F2D64E1C8010E94C7134F2DAA
:102BC00060E1C8010E94C71364E170E080E090E01A
:102BD0000E94A4020F900F900F900F90DF91CF9161
:102BE0001F910F91FF90DF90CF9008952F923F9209
:102BF0004F925F926F927F928F929F92AF92BF920D
:102C0000CF92DF92EF92FF920F931F93CF93DF93B8
:102C1000CDB7DEB7E8970FB6F894DEBF0FBECDBFD5
:102C2000DC011A963C9131112BC1922E242E362EA6
:102C30003C01FC01E280F380D701ED91FC91019011
:102C4000F081E02D60E0C70109958C01009709F43F
:102C50001AC1FC01C080D180C114D10409F416C18D
:102C60005301F4E0AF0EB11CDC011196BC92AE92A0
:102C700014969C92FE0131962F019F0148E050E08E
:102C800060E0D30112968D919C910E944B12982E78
:102C9000F8011482811100C18D8191ED992E893046
:102CA00059F58980D701ED91FC910280F381E02DE7
:102CB000222D41E0632DC7010995F3018287882306
:102CC00009F4E7C098859583682F828193810E94DB
:102CD0001A12982ED801CD92DC92882339F1D701AF
:102CE000ED91FC910480F581E02DD3011A966C9151
:102CF000C7010995F3011286892DE8960FB6F8945D
:102D0000DEBF0FBECDBFDF91CF911F910F91FF901E
:102D1000EF90DF90CF90BF90AF909F908F907F907B
:102D20006F905F904F903F902F900895811088C0D2
:102D3000950142E0F3016285828193810E94BF0A7E
:102D4000982E8111D9CF1F921F925F924F921F929E
:102D500088E08F9358E0852E912CB12CA12C69E24C
:102D6000C62EE12C06E020EA40E0F3016285828174
:102D700093810E948310982E0F900F900F900F90C8
:102D80000F900F908111B8CF8B81D3011B968C933C
:102D90001B97820120E048E050E01A966C911A9748
:102DA00012968D919C910E949F13982E8111A4CF11
:102DB0004B815C8120E0F3016285828193810E94D6
:102DC0009F13982E811198CF498150E08E010F5D9D
:102DD0001F4F20E0D3011A966C911A9712968D918D
:102DE0009C910E949F13982E811186CF1F921F9253
:102DF0001F921F921F921F92912C812CC12CEE804A
:102E000009E020E040E0F3016285828193810E9425
:102E10008310982E0F900F900F900F900F900F909F
:102E200081116ACF11E0D3011B968C911B978117FA
:102E3000D0F0412F68E0C3010E941D141F5FF3CF43
:102E4000482D413208F040E250E09201D3011A9639
:102E50006C911A9712968D919C910E944B12982E0C
:102E600081114ACF65CF1296ED91FC911397EA58E4
:102E7000FF4F80818460808381E050968C933CCFAB
:102E800049ED942E39CF36ED932E36CF27ED922E85
:102E900033CF84ED982E30CFD182C0822DCF2F92A8
:102EA0003F924F925F926F927F928F929F92AF92DA
:102EB000BF92CF92DF92EF92FF920F931F93CF9327
:102EC000DF93CDB7DEB7C258D1090FB6F894DEBF95
:102ED0000FBECDBFDC0116963C9119ED311114C027
:102EE000B22E942EA62E3C01FC01C480D580D601C2
:102EF000ED91FC910190F081E02D60E0C601099513
:102F00002C010097E1F416ED812FCE57DF4F0FB65D
:102F1000F894DEBF0FBECDBFDF91CF911F910F910F
:102F2000FF90EF90DF90CF90BF90AF909F908F90E9
:102F30007F906F905F904F903F902F900895FC018D
:102F4000008111810115110509F4A3C11301F5E2F6
:102F50002F0E311CDC0111963C922E921496BC92DD
:102F60009E0126593F4F48E050E060E0F301848124
:102F700095810E944B12F82E81118DC1AB96FFAC4A
:102F8000AB97D2010D931C93D601ED91FC91028079
:102F9000F381E02D292D40E06A2DC6010995F3014A
:102FA000868314ED882309F4AFCFE2969FADE297B4
:102FB00096A3682F848195810E941A12182FD6013A
:102FC000ED91FC91D20114961C92882359F0048053
:102FD000F581E02DD30116966C91C6010995F30198
:102FE000168292CF0190F081E02DD30116966C915C
:102FF000C6010995009709F486CFFC01B482F1104F
:10300000A8C0E4968EAD9FADE497F301E35AFF4F5D
:1030100091838083E6968EAD9FADE697329791833C
:103020008083EC96FFADEC97C058DF4FF883C05813
:10303000D040910141E0D30116966C9116971496F9
:103040008D919C910E94BF0AF82E811197C02E018C
:10305000B1E44B0E511CF3013296CF57DF4FF98389
:10306000E883C158D040C2014096EE969FAF8EAF24
:10307000EE97C058DF4FB881C058D040FB1609F416
:1030800089C08AE291E0F20191838083CF57DF4FBC
:10309000A881B981C158D040B383A283148211861C
:1030A000128615861786168610A211A212A210A6E5
:1030B000EE968EAD9FADEE9796838583908787833E
:1030C00094878387D30114960D90BC91A02DC2588C
:1030D000DF4FB983A883CE57D040F301D6808E014D
:1030E0000F5F1F4F2F2D49E050E06D2DCD010E9445
:1030F0009F1381114DC08B809C805F924F921F93D4
:103100000F93C401A1E48A16910410F080E490E0CA
:103110009F938F93B12CA12C32E0C32EEF2C06E0AD
:1031200020E840E06D2DC258DF4F88819981CE574D
:10313000D0400E9483100F900F900F900F900F902F
:103140000F90811125C0F301868D823018F5F3941C
:1031500090CF4F2D433108F042E150E09E012659B7
:103160003F4FD30116966C91169714968D919C91B2
:103170000E944B12F82E882309F443CFD301ED911E
:10318000FC910480F581E02DC30109951F2DBCCE73
:10319000F82EF4CFD3015E964C915E9711ED42303C
:1031A00008F4B2CE910116966C91169714968D91F3
:1031B0009C910E94BF0A1F921F921F921F921F9202
:1031C0001F92912C812CB12CA12CC12CF301E48CE9
:1031D00009E020E040E06681848195810E948310AF
:1031E000182F0F900F900F900F900F900F9081114C
:1031F0004EC0D12CD3015D968C915D97D816E0F529
:103200008D2D90E0FC017296EE0FFF1FEE0FFF1F59
:10321000E60DF71D2081211102C0D394EBCFFC01F4
:10322000EE0FFF1FEE0FFF1FE60DF71DEA5BFF4FCE
:1032300080818770A82EB12C1F921F921F921F921F
:103240001F921F92912C812CC12CE12C0AE021E2CB
:1032500040E0F3016681848195810E948310F82EFD
:103260000F900F900F900F900F900F908823A9F25E
:10327000F5E08F1791F282CFED91FC910688F789E6
:10328000E02DC301099581E0F30184A33DCEF82E22
:1032900075CF17ED39CEF201118300836FCFFC019A
:1032A00080819181009711F00C94572408950E9419
:1032B0009D250F931F93CF93DF93EC018881998114
:1032C000009759F02A813B812617370730F081E0BB
:1032D000DF91CF911F910F9108958B016F5F7F4F09
:1032E0000E94E024009759F0998388831B830A8306
:1032F0002C813D81232B59F7FC011082E8CF80E01F
:10330000E7CFEF92FF920F931F93CF93DF93EC01E0
:103310007B01198218821B821A821D821C82FB018A
:1033200001900020E9F731978F01061B170BB801B8
:103330000E94591928813981811113C02115310545
:1033400019F0C9010E945724198218821D821C821B
:103350001B821A82DF91CF911F910F91FF90EF9006
:1033600008951D830C83B701C901DF91CF911F918F
:103370000F91FF90EF900C94B2251F920F920FB611
:103380000F9211242F933F938F939F93AF93BF93EB
:1033900080912D0290912E02A0912F02B0913002C7
:1033A00030912C0223E0230F2D3758F50196A11DF3
:1033B000B11D20932C0280932D0290932E02A09396
:1033C0002F02B09330028091310290913202A0918D
:1033D0003302B09134020196A11DB11D80933102D8
:1033E00090933202A0933302B0933402BF91AF9115
:1033F0009F918F913F912F910F900FBE0F901F9033
:10340000189526E8230F0296A11DB11DD2CF1F9259
:103410000F920FB60F9211248F939F938091E1002A
:103420009091E100937F9093E10083FF0FC0109291
:10343000E90091E09093EB001092EC0092E39093FE
:10344000ED001092360298E09093F00082FF22C0C7
:1034500093E09093E9009091F200992319F09AE398
:103460009093E80090911F02992341F090911F02E0
:10347000915090931F02911101C05D9A9091350275
:10348000992341F09091350291509093350291111A
:1034900001C0289A84FF18C08091E2008E7E81606E
:1034A0008093E2008091E1008F7E8093E100809123
:1034B00020028E7E8061809320029F918F910F90D9
:1034C0000FBE0F901F90189580FFF7CF8091E200FC
:1034D0008E7E80618093E2008091E1008E7E8093F9
:1034E000E100809120028E7E8160E5CF1F920F92D5
:1034F0000FB60F921124CF92DF92EF92FF920F93AB
:103500001F932F933F934F935F936F937F938F936B
:103510009F93AF93BF93EF93FF93CF93DF93CDB779
:10352000DEB76C97DEBFCDBF1092E9008091E80056
:1035300083FF25C068E0CE0145960E94E10382EF3B
:103540008093E8008D8987FF39C09091E80090FF53
:10355000FCCF982F907609F034C19E894F89588D01
:103560002F89F88C911131C0803861F5809121024A
:103570008093F1001092F1008EEF8093E8006C963A
:103580000FB6F894DEBF0FBECDBFDF91CF91FF9194
:10359000EF91BF91AF919F918F917F916F915F91CB
:1035A0004F913F912F911F910F91FF90EF90DF90DE
:1035B000CF900F900FBE0F901F9018959EEF909395
:1035C000E800C7CF1092F100D5CF913059F48111A6
:1035D000D3CF4130510581F6809121028D7F8093B8
:1035E0002102CACF933049F48111C6CF4130510531
:1035F00019F6809121028260F2CF953041F48091DA
:10360000E80080FFFCCF20682093E300B5CF963020
:1036100009F0A9C00B8D1C8D22E01092E9001092D8
:103620001D0210921C02F2122EC010921B02109268
:103630001A020E942F041F8299E09983FA8291E076
:103640009E8390EA98879AEF998720911C02309187
:103650001D02275F3F4F3C832B838D831092E9002F
:1036600010921D0210921C0210931B0200931A026A
:1036700049E050E0BE016F5F7F4F80E00E94100381
:103680000E942F0479CF10931B0200931A020E940C
:103690001B04DC0112960D911C910115110509F412
:1036A00051C1D801ED91FC910480F581E02DBE015E
:1036B0006B5E7F4FC8010995009709F03EC1F80184
:1036C00000851185EACFF3E0FF120EC08F898823B1
:1036D00009F440C0823061F440E865E188E193E09C
:1036E0000E94A81C811148CF81E28093EB0047CF54
:1036F000813029F440E867E080E193E0F1CF833046
:1037000099F70E941B04DC011296ED90FC908E014B
:103710000F5F1F4F6801E114F10479F0D701ED91BB
:10372000FC910680F781E02DB801C7010995080FCB
:10373000111DF701E084F184EECFD8011C92F6014F
:1037400001900020E9F73197BF016C197D0940E035
:10375000C601C6CF6AEF72E0FB01449150E080E8F9
:103760000E94100309CF973009F4BECF983021F49E
:1037700081E08093F10000CF993009F0FDCE837095
:1037800009F0B2CFE1E0F1E081E031E096E3219190
:10379000222371F08093E9003093EB00DF01119751
:1037A0002C912093EC009093ED008F5F873079F798
:1037B0008EE78093EA001092EA008F8980933602A8
:1037C000DBCE8B8D9C8D1092E90010921D02109221
:1037D0001C0290931B0280931A02898D811192C062
:1037E0008E899D89913A49F4813209F07DCF47E075
:1037F00050E06BE071E080E0B3CF913209F074CF1C
:10380000833269F48F89988DB0E0A0E0809307013E
:1038100090930801A0930901B0930A01ADCE8032C4
:1038200069F48091E80082FFFCCF67E08BE091E0D3
:103830000E94E1038BEF8093E8009ECE823209F074
:103840009BCE8F8980931201EEEFFFE785919491D3
:103850008B3F9C4D51F1E0E0F8E080910B0190919D
:103860000C01A0910D01B0910E01803B9440A10587
:10387000B105F1F48091120180FD1AC0EE3F8AE09B
:10388000F80789F587E797E7918380838091600047
:1038900080931E0288E19BE00FB6F894A895809370
:1038A00060000FBE9093600067CEEEEFFAE0D5CFD8
:1038B000808191818737974709F05ECEA8958091E6
:1038C000600088618093600080911E028093600098
:1038D000EE3F2AE0F20789F08091FE0A9091FF0AFC
:1038E0009183808349CE808191818737980751F2F7
:1038F0009093FF0A8093FE0AC5CF1092FF0A1092A0
:10390000FE0A3ACE0E941B04DC0112960D911C9116
:103910000115110509F4E8CED801ED91FC91019053
:10392000F081E02DBE016B5E7F4FC80109958111CA
:1039300023CEF80100851185EBCF181619060CF47B
:103940001BCED2CEF1E0FF12BECE6EEF72E004CFFE
:10395000EF92FF920F931F93CF93DF93F82E192FBF
:10396000E62E042F81E0860F880F0E94E20283E09A
:103970000E94E202CF2DD12FEC0EFD2EF11CCE15B0
:10398000DF05B9F007FF13C0FE0184910E94E20237
:10399000182F80E00E94E202812321968111EFCF4F
:1039A000DF91CF911F910F91FF90EF900895888143
:1039B000EDCF81E0F5CF6F927F928F929F92AF9281
:1039C000BF92CF92DF92EF92FF920F931F93CF930C
:1039D000DF93EC01842F6C8F4D8D70E060E0A82E9A
:1039E000B12C822E912C602E712C641770F56530ED
:1039F000710559F1DB01AA0FBB1FAA0FBB1FFE0106
:103A0000EA0FFB1FEA5BFF4F9081392F37703A15A1
:103A10001B0409F087C0392F3695369536953770D7
:103A20003815190409F07EC0929596959695937075
:103A30009615170409F076C06E0196E4C90ED11CE4
:103A4000CA0EDB1EC114D104F9F4453008F05BC086
:103A5000A4E04A9FA00111246E01B6E4CB0ED11C54
:103A6000C40ED51E2770220F220F220F982F977099
:103A7000292B902F9295990F990F907C292BF60165
:103A800020839D8D9F5F9D8FD70113969C911397E7
:103A9000937010E0933029F412969C9112E097FDF8
:103AA00011E0402F682FE881F981068CF78DE02D19
:103AB000CE010995882339F1112329F18E8D8B30A0
:103AC00010F5282F30E0F901EE0FFF1FE20FF31F72
:103AD000EC0FFD1FD70112969C9112979F7095A332
:103AE00014969C91149796A394E097A3C10ED11CB1
:103AF000F601818316968C919BA1981708F48BA3ED
:103B00008E8D8F5F8E8FDF91CF911F910F91FF90E0
:103B1000EF90DF90CF90BF90AF909F908F907F906D
:103B20006F9008956F5F7F4F60CFEF92FF920F937A
:103B300002970E94DB1C0F91FF90EF900895CF93A6
:103B4000DF9310923B0210923A0288EE93E0A0E0DD
:103B5000B0E080933C0290933D02A0933E02B0936C
:103B60003F028CE391E090933902809338028FEF0B
:103B70009FEF9093450280934402109298028EE446
:103B800091E0909397028093960280918E0281112A
:103B900013C0109289021092880287EA93E09093F2
:103BA0008B0280938A028BE290E090938D02809347
:103BB0008C0281E080938E020E94F105FC01A385B6
:103BC000B485109709F066C188E892E094878387EE
:103BD0008585968520918C0230918D02820F931FEE
:103BE000968785871092AA021092A90284E591E037
:103BF0009093A8028093A70280919F02811113C025
:103C000010929A021092990282ED93E090939C0296
:103C100080939B028BE390E090939E0280939D02A1
:103C200081E080939F020E94F105FC01A385B48589
:103C3000109709F03AC189E992E0948783878585D6
:103C4000968520919D0230919E02820F931F968748
:103C5000858782ED91E090932B0380932A03109245
:103C6000320381E080933303109234038CE293E0BB
:103C7000909331038093300310922C0388E080935B
:103C80002D038CE380932E0310922F03EAE2F3E0DE
:103C900091E02CE233E015869687178634872387D8
:103CA000359683E0E537F807B1F71092A00381E17C
:103CB0008093B3022CEB31E030931A032093190365
:103CC0002AE233E030931C0320931B031092290354
:103CD00010921D0388E080931E032CE320931F03A2
:103CE000909320038093210384E080932203109219
:103CF000230310922403109225031092260310929E
:103D0000270310922803A0E8B3E0FD0190E080E0D3
:103D100021913191232B09F0D2C0880F991FFC010A
:103D2000E058FC4F89E193E0918380838AE293E03D
:103D30009093BF028093BE0286E691E09093BB020F
:103D40008093BA028AE891E09093BD028093BC020E
:103D50001092D9021092DA021092DB021092DC0269
:103D60001092DD021092DE02109214031092C10232
:103D70001092C3021092C2021092C4021092C602A4
:103D80001092C5021092C7021092C9021092C80286
:103D90001092CA021092CC021092CB021092CD0265
:103DA0001092CF021092CE021092D0021092D20244
:103DB0001092D1021092D3021092D5021092D40226
:103DC000E1E0F3E090E080E0EC01CC0FDD1FCC0FF0
:103DD000DD1FC050DD4F2881287328831082118297
:103DE000019634968530910579F7CAEBD2E090E0E0
:103DF00080E01DA2582F28E0811120E02EA3BC01F5
:103E0000660F771F9B01280F391F2F513D4FF90176
:103E100040814E7F4D7F40833FE0511131E0FB01F7
:103E2000E80FF91FEF51FD4F330F330F208123703F
:103E3000232B2083019623968B309105D1F681E0C8
:103E40008093D8021092D7021092D60290E080E0C0
:103E50002D913D91232BC9F5880F991FFC01E05846
:103E6000FC4F8AEB92E09183808380E991E090930C
:103E7000BB028093BA0286EB91E09093BD028093DF
:103E8000BC0269EE71E084EB92E0DF91CF910C947B
:103E90008119DC018D919C9111970097D1F788E8E9
:103EA00092E08D939C9394CEDC018D919C9111971F
:103EB0000097D1F789E992E08D939C93C0CE01964B
:103EC0008031910509F024CF31CF019680319105E1
:103ED00009F0BECFCACFCF93DF93CDB7DEB7289717
:103EE0000FB6F894DEBF0FBECDBF789484B5826064
:103EF00084BD84B5816084BD85B5826085BD85B58E
:103F0000816085BD80916E00816080936E0010920B
:103F10008100809181008260809381008091810086
:103F20008160809381008091800081608093800017
:103F300080919100826080939100809191008160D6
:103F40008093910080919000816080939000809197
:103F5000C10084608093C1008091C1008260809321
:103F6000C1008091C10081608093C1008091C30035
:103F700081608093C3008091C00082608093C00004
:103F80008091C20081608093C20080917A00846039
:103F900080937A0080917A00826080937A00809189
:103FA0007A00816080937A0080917A0080688093A3
:103FB0007A00109236021092210210922002809113
:103FC000D70081608093D70080EA8093D80089B5BC
:103FD000806189BD89B5826089BD09B400FEFDCFCD
:103FE00061E070E080E090E00E94A4028091D8003F
:103FF0008F7C80618093D8008091E000807F8093E7
:10400000E0008091E1008E7E8093E1008DE080935E
:10401000E200559A209A8FEF9FEF9093450280938C
:104020004402269A0E94E00A1FB7F8948091220267
:1040300081115AC04AE753E0FA01949129E933E02B
:10404000F9018491E92FF0E0EE0FFF1FE55AFC4FD4
:10405000A591B4919C91892309F037C0EFE3F3E077
:104060009491F9012491FA018491882309F42DC0D7
:104070009923E9F091509F30D0F4E92FF0E0ED5B07
:10408000FF4D0C94B523FB20FF205220F320F72096
:10409000572057205720022108210C2110211621DA
:1040A00057201A21909180009F7790938000E82FED
:1040B000F0E0EE0FFF1FE35BFC4FA591B4918FB7CB
:1040C000F8949C91292B2C938FBF81E10E9436029A
:1040D0008CB580618CBD8CB580648CBD8FE00E94F6
:1040E000360280E10E943602809122028F5F809327
:1040F00022021FBF209A289A259868E188E80E942A
:104100000D0C60E288E70E940D0C60E088E70E94D9
:104110000D0C10E000E088E60E94D30C0F5F1F4FEB
:1041200080FF8EC061EC88ED0E940D0C60E680ED92
:104130000E940D0C64E088EE0E940D0C88EE0E9437
:10414000D30C82FFFBCF0E94AF0D60E288EC0E948F
:104150000D0C61E080E80E940D0C1092980240E086
:1041600060E080E00E94740687EA92E00E94940B6F
:1041700087EA92E00E94AB0643E151E060E08AEBFF
:1041800092E00E94A3098E010F5F1F4F3E0127E0BE
:10419000620E711C3AEE232E31E0332E20E0422EC7
:1041A00020E0522E83B1382F3072F32E85FD0DC0E2
:1041B00088EC0E94D30C85FF04C00E94AF0D90E2F2
:1041C000F92E6F2D88EC0E940D0C80913702813002
:1041D00009F48EC008F490C08230B9F1833009F43C
:1041E00093C0B12C49C0909180009F7D5ECF90918B
:1041F0008000977F5ACF94B59F7794BD58CF94B5E0
:104200009F7DFBCF909190009F77909390004FCF30
:10421000909190009F7DF9CF90919000977FF5CF7E
:104220009091C0009F779093C00041CF9091C000C3
:104230009F7DF9CF9091C200977F9093C20037CFB6
:104240000F3F100709F067CFFFCFB12C8091B30269
:10425000807F803189F40E94D60268537F4F8F4F50
:104260009F4F6093230270932402809325029093C2
:10427000260280E28093B30280E8C82E83E0D82E25
:104280007601D7018D919D917D01009739F0DC0178
:10429000ED91FC910680F781E02D0995B0EAEB16CF
:1042A000B3E0FB0671F78091B302803409F498C043
:1042B00070F5803209F47EC0803309F48BC08131FF
:1042C00009F043C01092A003F601819191916F0112
:1042D000009739F0DC01ED91FC910480F581E02D2F
:1042E0000995EC14FD0481F782E18093B3022DC09F
:1042F00083E18093B30275CF8091B302807F8031D8
:1043000009F46FCF81E1F5CFBB24B3949FCF813502
:1043100009F475C0803809F485C08035B1F488ECA3
:104320000E94D30C86FF11C081E58093B3020E94E6
:10433000D6026C5E7F4F8F4F9F4F60932302709326
:104340002402809325029093260288E392E00E9443
:10435000DE04892B09F49EC188E392E00E949C044C
:104360008D3099F38A3009F06DC1A090B402B090FD
:10437000B502A114B10449F0E090B802F090B9027E
:104380006501E114F10409F05EC068ED71E0C80157
:104390000E948119C8010E94DF0DF82EC8010E94F9
:1043A0004F19FF2009F48EC081E080932B020E94F8
:1043B000E20AEFC00E94D602C0902302D0902402ED
:1043C000E0902502F09026026C197D098E099F0964
:1043D00097FDBBCF61E088EE0E940D0C80E485CF95
:1043E00088EE0E94D30C80FDB0CF88ED0E94D30CE4
:1043F000682F686088ED0E940D0C80E576CF0E94E2
:10440000D602C0902302D0902402E0902502F090C2
:1044100026026C197D098E099F0997FD96CF80E8C9
:104420008093B3022B2D40E060E08AE293E00E948B
:104430007112882329F0823D09F487CF80EA55CF95
:1044400080E953CF64014601BFEF8B1A9B0AF60146
:104450008081082E000C990B0E947223892B91F702
:10446000F1E0EF1AF108EA0CFB1CD7018C91082E41
:10447000000C990B0E947223892B39F0EC14FD0477
:1044800020F0B1E0EB1AF108F0CFEFEFEE1AFE0AE0
:10449000A7014C195D095093B9024093B802AC14BE
:1044A000BD0420F4B601C5010E94A225E091B4022A
:1044B000F091B5028091B8029091B902E80FF91F0E
:1044C000108263CF6FED71E0C8010E948119C801AD
:1044D0000E94DF0DF82EC8010E944F19FF2019F02D
:1044E00010922B0264CF80912B02882309F451C0D3
:1044F00067EE71E0C8010E948119C8010E94DF0DBA
:10450000F82EC8010E944F19FF2009F4CAC018866E
:104510001F821A8219821F930F937F926F923F928C
:104520002F928091B4029091B50202969F938F933F
:104530000E94C7250FB6F894DEBF0FBECDBF02970D
:1045400041F52091290230912A028F819885820FAE
:10455000931F90932A028093290260912702709101
:10456000280229813A81620F731F70932802609399
:104570002702009719F46115710559F040E00E9477
:10458000740610922A0210922902109228021092A8
:10459000270270E060E084EB92E00E9459192091BC
:1045A000B4023091B502811143C02115310519F0D3
:1045B000C9010E9457241092B5021092B4021092C1
:1045C000B9021092B8021092B7021092B602BDCE94
:1045D0008FEF9FEF9A8389831F930F93ACEEB1E027
:1045E000BF93AF938091B4029091B50201969F93CF
:1045F0008F930E94C72589819A810F900F900F9009
:104600000F900F900F908130910521F481E00E946E
:104610009E06BFCF892B21F481E00E949006B9CF7E
:1046200081E00E949E068BEC97E00197F1F7F4CFB2
:104630001092B9021092B80269EE71E0C9010E94AD
:10464000B22583CEE090B802F090B902F0E4EF1604
:10465000F10408F07ACE89831A822FEFE21AF20A67
:10466000B70184EB92E00E945919882309F46DCEBA
:104670002091B4023091B5028091B8029091B902B4
:10468000B801820F931F0E94B225F092B902E09206
:10469000B8025BCE4114510409F484CD0E9400009D
:1046A0007DCD60EF71E0C8010E948119C8010E94B0
:1046B000DF0DF82EC8010E944F19F11089CF62EF6B
:1046C00071E0C8010E948119C8010E94DF0DF82E17
:1046D000C8010E944F19F1106ACE5BCF84EB92E0C3
:1046E0000C944F1991110C947B23803219F089504E
:1046F0008550C8F708959927882708952F923F92EB
:104700004F925F926F927F928F929F92AF92BF92E1
:10471000CF92DF92EF92FF920F931F93CF93DF938D
:10472000CDB7DEB7CA1BDB0B0FB6F894DEBF0FBEEA
:10473000CDBF09942A88398848885F846E847D8437
:104740008C849B84AA84B984C884DF80EE80FD8039
:104750000C811B81AA81B981CE0FD11D0FB6F894AF
:10476000DEBF0FBECDBFED010895EE0FFF1F059018
:10477000F491E02D09940F931F93CF93DF93823030
:10478000910510F482E090E0E091A303F091A4037E
:1047900030E020E0B0E0A0E0309799F42115310539
:1047A00009F44AC0281B390B24303105D8F58A8119
:1047B0009B816115710589F1FB0193838283FE0161
:1047C00011C0408151810281138148175907E0F0DF
:1047D0004817590799F4109761F012960C931297A5
:1047E00013961C933296CF01DF91CF911F910F91B9
:1047F00008950093A3031093A403F4CF211531056A
:1048000051F04217530738F0A901DB019A01BD01AD
:10481000DF01F801C1CFEF01F9CF9093A40380939A
:10482000A303CDCFFE01E20FF31F8193919322509A
:10483000310939832883D7CF2091A1033091A20376
:10484000232B41F420911C0130911D013093A203D0
:104850002093A10320911A0130911B0121153105EC
:1048600041F42DB73EB740911E0150911F01241B0A
:10487000350BE091A103F091A203E217F307A0F436
:104880002E1B3F0B2817390778F0AC014E5F5F4FA6
:104890002417350748F04E0F5F1F5093A203409333
:1048A000A103819391939FCFF0E0E0E09CCFCF9361
:1048B000DF930097E9F0FC01329713821282A091F6
:1048C000A303B091A403ED0130E020E01097A1F420
:1048D00020813181820F931F2091A1033091A20387
:1048E0002817390709F061C0F093A203E093A103F0
:1048F000DF91CF910895EA01CE17DF07E8F54A81ED
:104900005B819E0141155105B1F7E901FB83EA8303
:1049100049915991C40FD51FEC17FD0761F48081AF
:1049200091810296840F951FE90199838883828182
:1049300093819B838A83F0E0E0E012968D919C91B5
:1049400013970097B9F52D913C911197CD010296DF
:10495000820F931F2091A1033091A20328173907DA
:1049600039F6309751F51092A4031092A303B09337
:10497000A203A093A103BCCFD383C2834081518102
:10498000840F951FC817D90761F44E5F5F4F888168
:104990009981480F591F518340838A819B8193835A
:1049A00082832115310509F0B0CFF093A403E09381
:1049B000A3039ECFFD01DC01C0CF13821282D7CFAB
:1049C000B0E0A0E0E6EEF4E20C9480238C010097C6
:1049D00051F4CB010E94BB238C01C801CDB7DEB7D7
:1049E000E0E10C949C23FC01E60FF71F9C01225090
:1049F0003109E217F30708F49DC0D901CD91DC918C
:104A00001197C617D70798F0C530D10530F3CE01FE
:104A100004978617970708F3C61BD70B2297C193F5
:104A2000D1936D937C93CF010E945724D6CF5B0125
:104A3000AC1ABD0A4C018C0E9D1EA091A303B0912F
:104A4000A403512C412CF12CE12C109731F58091CD
:104A5000A1039091A2038815990509F05CC0461640
:104A6000570608F058C080911A0190911B010097D9
:104A700041F48DB79EB740911E0150911F01841BD8
:104A8000950BE817F90708F055C0F093A203E093DF
:104A9000A103F90171836083A0CF8D919C9111973F
:104AA00012966C90129713967C901397A815B905DF
:104AB00059F56C0142E0C40ED11CCA14DB0420F18C
:104AC000AC014A195B09DA011296159780F06282EF
:104AD000738251834083D9016D937C93E114F10477
:104AE00071F0D7011396FC93EE93129776CF22962E
:104AF0008C0F9D1FF90191838083F301EFCFF09319
:104B0000A403E093A30369CF4816590608F42C01C7
:104B10007D01D3019ACFCB010E94BB237C0100977A
:104B200049F0AE01B8010E94A225C8010E94572495
:104B3000870153CF10E000E050CF81E090E0F8947F
:104B40000C94CF28FB01DC0102C001900D92415072
:104B50005040D8F70895DC0101C06D93415050409A
:104B6000E0F70895FB01DC0101900D920020E1F7D0
:104B70000895FB01DC014150504030F08D910190CF
:104B8000801919F40020B9F7881B990B0895AEE03D
:104B9000B0E0EDECF5E20C948E2385E08C838B89FC
:104BA0009C899A838983AE01495E5F4F6D897E89B6
:104BB000CE0101960E946B272E96E2E00C94AA2368
:104BC00020FD09C0FC0123FD05C022FF02C0738344
:104BD000628351834083089544FD17C046FD1DC084
:104BE000DB01FC01AA0FBB1FEE1FFF1F1094D1F7C2
:104BF0006A0F7B1F8E1F9F1F660F771F881F991FCD
:104C0000620F711D811D911D089533E0660F771F9E
:104C1000881F991F3150D1F7F3CF34E0F7CF0F93AE
:104C20001F93CF93DF938C01C8010E947B28EC0176
:104C300097FD08C00E947223892BB1F7B801CE01FD
:104C40000E94B728CE01DF91CF911F910F91089557
:104C50008F929F92AF92BF92EF92FF920F931F930A
:104C6000CF93DF938C01D62F7A01B22E0E947B283E
:104C70009C0133272B32310529F02D323105A9F45F
:104C80006894B7F8D15061F480E0DF91CF911F9123
:104C90000F91FF90EF90BF90AF909F908F900895ED
:104CA000C8010E947B2897FDEFCFCB2DCD7F2B2D08
:104CB0002073F9F48033E9F4AA24AA94AD0E89F0A4
:104CC000C8010E947B2897FD0CC0282F2F7D283516
:104CD00061F4C264D25029F0C8010E947B2897FF7A
:104CE00008C0812C912C54011BC0B6FE2BC0C260A1
:104CF000DA2D812C912C540120ED280F283028F139
:104D0000C4FD09C02A3008F1C6FF05C02F7D3FEE63
:104D1000320F3630C8F0B8010E94B728C1FFB4CFB7
:104D2000C7FF08C0B094A09490948094811C911CFB
:104D3000A11CB11C2C2FB501A401C7010E94E025C4
:104D400081E0A3CFC261D4CF27504C2FC501B4015D
:104D50000E94EC254B015C01C260D15009F3C801EF
:104D60000E947B2897FFC8CFD9CFA0E2B0E0EBEB41
:104D7000F6E20C9483235C01962E7A01CE01019613
:104D80006C0180E2F60111928A95E9F7F501B38191
:104D9000890130E020E0712C812CA0E041E050E05E
:104DA000F801B3FD8591B3FF8191982F8F01811197
:104DB00007C010E000E0C801A096EDE00C949F232E
:104DC0008E3519F42115310541F1A21713064CF463
:104DD0008D3549F18D3229F4811006C088248394E1
:104DE0001DC0882009F464C0E92FE695E695E69594
:104DF000EC0DFD2DF11D892F8770BA0101C0660FE2
:104E00008A95EAF78081682B6083791651F09715AF
:104E100010F49F5FE9CF9150E7CFA1E02F5F3F4FA4
:104E2000BFCF812CFBCF882019F08E8180628E83CA
:104E3000AA2359F0F6019E012F5D3F4F8081809596
:104E400080833196E217F307C9F788248394C5015C
:104E50000E947B2897FD16C0E82FE695E695E6951B
:104E6000EC0DFD2DF11D208130E0AC014770552780
:104E700002C0359527954A95E2F720FD06C0B50199
:104E80000E94B728882069F094CFE114F10429F03A
:104E9000F7018083C70101967C019A94812C9110BF
:104EA000D6CFE114F10409F486CFF701108283CF45
:104EB000E82FE695E695E695EC0DFD2DF11D982F72
:104EC0009770BA0101C0660F9A95EAF79081692B35
:104ED0006083782EA3CFB0E0A0E0E1E7F7E20C9486
:104EE00081236C01EB015A01FC0117821682512CBF
:104EF000F601E380FE01E3FC8591E3FE8191182F2A
:104F0000EF018823E9F090E00E947223892B21F0C1
:104F1000C6010E940F26ECCF153241F4FE01E3FCDE
:104F20001591E3FE1191EF01153269F4C6010E945B
:104F30007B2897FD8EC01817D9F2B6010E94B728BA
:104F4000852D90E08AC000E01A3231F4E3FC15911F
:104F5000E3FE1191EF0101E0F12C20ED210F2A3049
:104F600048F101FF37C0FF2059F31836B1F11C3664
:104F700009F43DC0112321F3612F70E08CEA90E029
:104F80000E947028892BE1F2912C812C00FD06C033
:104F9000F50180809180C50102965C011E3679F58D
:104FA000F6014681578170E060E0202FC4010E9425
:104FB000E0259ECF02606F2D70E090E080E040E23F
:104FC0000E94EC25F62EFE01E3FC1591E3FE119103
:104FD000EF01C3CFFF24FA94C8CFFE01E3FC159183
:104FE000E3FE1191EF01183609F0C4CF08600460A8
:104FF000FE01E3FC1591E3FE1191EF01BBCF1336E7
:10500000C1F401FD02C0FF24F394C6010E947B2875
:1050100097FD1FC08114910429F0F4018083C4011D
:1050200001964C01FA94F110F0CF00FD61CF53943A
:105030005FCF1B35B9F49E01A4016F2DC6010E94FC
:10504000B526EC01892B89F7F6018381807309F479
:1050500077CF8FEF9FEF511073CFCDB7DEB7EFE073
:105060000C949D23C6010E940F2697FDF2CF1F3698
:10507000A9F130F4143641F0193639F0006405C056
:105080001337B9F01537D1F70062202FA4016F2D27
:10509000C6010E9428268111C8CFD6CF8114910461
:1050A00029F0F4016082C40101964C01FA94FF20BA
:1050B00071F0C6010E947B283C0197FD08C00E9448
:1050C0007223892B59F3B601C3010E94B7288114BA
:1050D000910409F4AACFF4011082A7CF0061D5CFC3
:1050E000FC010590061621F00020D9F7C0010895B3
:1050F0003197CF010895CF93DF93EC012B8120FFEF
:105100001AC026FF0CC02F7B2B838E819F810196B6
:105110009F838E838A8190E0DF91CF91089522FF53
:1051200018C0E881F9818081082E000C990B009746
:1051300029F420622B838FEF9FEFEECF3196F98316
:10514000E8832E813F812F5F3F4F3F832E83992736
:10515000E3CFEA85FB85099597FFF3CF2B81019675
:1051600021F080E2822B8B83E6CF80E1FBCFFB0135
:10517000238120FF11C026FD0FC08F3F980771F0DB
:1051800082832F7D2064238326813781215031093A
:1051900037832683992708958FEF9FEF089512E0B4
:1051A000C8E0D2E004C0FE010E94B5232196C930B8
:0851B000D107C9F7F894FFCF05
:1051B80000C18081000000FFFFFFFF00E100000048
:1051C800000000240100000000000000A50380008A
:1051D80000000000EE0A000000002B08000000009C
:1051E800F804A6056B05500500000000760460046D
:1051F80097048C04DE049C04BA04000000006306D3
:10520800000000009C07EE03DB0A2A08940BAB069B
:10521800BA06000000004F17E20B6C09A80FD60B66
:10522800E10BDF0BDD0BDB0B8509A309D90BC409E7
:10523800D30BDB1C5719FEFF0000951D0000000072
:105248004F17E20B6C09DC0ED60BE10BDF0BDD0B05
:10525800DB0B8509A309D90BBE0BD30BA30BD10B11
:10526800BD0BFEFF0000B30B00000000F615E20BBB
:10527800C507F514EC079B15DF0BE707DB0B0000F0
:105288000000A80A530A310A454E41424C450044E1
:10529800495341424C45004D2C0025642C2564009F
:0452A8004B00430074
:00000001FF
