:100000000C94AD000C94D5000C94D5000C94D50044
:100010000C94D5000C94D5000C94D5000C94D5000C
:100020000C94D5000C94D5000C942C060C949B06D3
:100030000C94D5000C94D5000C94D5000C94D500EC
:100040000C94D5000C94D5000C94D5000C94D500DC
:100050000C94D5000C94D5000C94D5000C94E205BA
:100060000C94D5000C94F3080C94CD080C94D50096
:100070000C94D5000C94D5000C94D5000C94D500AC
:100080000C94D5000C94D5000C94D5000C94D5009C
:100090000C94D5000C94D5000C94D5000C94D5008C
:1000A0000C94D5000C94D5000C94D500080B0002DC
:1000B0000202000009040000010202000005240001
:1000C0001001052401010104240206052406000193
:1000D0000705810310004009040100020A00000026
:1000E00007050202400000070583024000000403E8
:1000F000090412010002EF02014041233680000191
:100100000102030141726475696E6F204C4C43001B
:1001100041726475696E6F204C656F6E6172646FB9
:100120000005010902A1010901A1008501050919C4
:1001300001290315002501950375018102950175BB
:1001400005810305010930093109381581257F75BD
:100150000895038106C0C000250911241FBECFEFFA
:10016000DAE0DEBFCDBF11E0A0E0B1E0E0EBF6E108
:1001700002C005900D92A434B107D9F722E0A4E49F
:10018000B1E001C01D92AE37B207E1F710E0CDEA51
:10019000D0E004C02197FE010E94500BCC3AD10759
:1001A000C9F70E94ED090C94560B0C940000CF93F4
:1001B000DF93FC01818190915A02482F490F552706
:1001C000551F483051059CF5A281B381109709F560
:1001D00026E532E0338322832081209358028093E6
:1001E000590280915B02820F808320915C02A22FD2
:1001F000B0915D028A2F821B8917E8F481813D91BD
:10020000C82FD0E0C45FDE4F38838F5F8183F2CF89
:10021000D90118962D913C91199721153105C1F7F7
:1002200026E532E019963C932E931897D5CF80E0BF
:10023000DF91CF91089581E0FBCFFC0180916801AF
:10024000882311F13FB7F89482E08093E900209170
:10025000F200822F90E01816190614F481E090E065
:10026000882339F0289844E6409367014091F100D3
:100270004083222339F02091F200211103C02BE6A4
:100280002093E8003FBF08958FEF9FEF0895CF932D
:10029000DF931F92CDB7DEB76983DC01ED91FC914E
:1002A0000280F381E02D41E050E0BE016F5F7F4F9F
:1002B00009950F90DF91CF91089583E08093E90035
:1002C0008091F200882319F08AE38093E800089572
:1002D000CF93DF931F92CDB7DEB7FC018485958560
:1002E00097FD08C02FEF3FEF358724870F90DF91F0
:1002F000CF910895CE0101960E941D01019719F436
:10030000898190E0F3CF8FEF9FEFF0CF0F931F9392
:10031000CF93DF931F92CDB7DEB78C01FC018485AC
:10032000958597FF0BC0CE0101960E941D01019794
:1003300071F4898190E0F80195878487F8018485BC
:1003400095850F90DF91CF911F910F9108958FEFB9
:100350009FEFF1CFFC018485958597FD0BC09FB77A
:10036000F89482E08093E9008091F2009FBF90E0D2
:10037000019608959FB7F89482E08093E9008091F8
:10038000F2009FBF90E008953FB7F8948091630119
:1003900090916401A0916501B091660126B5A89B7A
:1003A00005C02F3F19F00196A11DB11D3FBFBA2F07
:1003B000A92F982F8827BC01CD01620F711D811DC7
:1003C000911D42E0660F771F881F991F4A95D1F74C
:1003D0000895CF92DF92EF92FF920E94C4016B01C9
:1003E0007C010E94C4016C197D098E099F09683E39
:1003F000734081059105A8F3FF90EF90DF90CF90B7
:100400000895409152015091530120915001309133
:10041000510142175307B4F49091E8009570E1F34D
:100420009091E80092FD19C08093F10080915201F3
:100430009091530101968F739927892B19F48EEFB0
:100440008093E8008091520190915301019690931E
:1004500053018093520181E0089580E00895EF9266
:10046000FF920F931F93CF93DF93F82E192FE62E51
:10047000042F81E0860F880F0E94010283E00E9412
:100480000102CF2DD12FEC0EFD2EF11CCE15DF0574
:10049000B9F007FF13C0FE0184910E940102182FDA
:1004A00080E00E940102812321968111EFCFDF912C
:1004B000CF911F910F91FF90EF9008958881EDCF1C
:1004C00081E0F5CFDF92EF92FF920F931F93CF93CE
:1004D000DF93D82E8A01EB017B01E40EF51ECE15C9
:1004E000DF0559F0D7FE12C0FE0184910E9401027F
:1004F00021968111F4CF0FEF1FEFC801DF91CF914B
:100500001F910F91FF90EF90DF9008958881EECFBB
:100510002FB7F89487708093E9009091E800892FB5
:10052000807295FF04C09091F20080E4891B2FBF78
:10053000089583E00E94880290E008957F928F9250
:100540009F92AF92BF92CF92DF92EF92FF920F9362
:100550001F93CF93DF93C82E8B017A01809168019E
:10056000811110C08FEF9FEFDF91CF911F910F91FD
:10057000FF90EF90DF90CF90BF90AF909F908F90C3
:100580007F9008958091560180FF05C08091E00022
:1005900082608093E000CE2DDF2DD12C8AEFB82E23
:1005A0008C2D8770982E8C2D8072882E8C2D8074C7
:1005B000782E9AE3A92E209719F4DD2009F44EC075
:1005C0008C2D0E948802811106C0BA94BB2051F282
:1005D0000E94E901F0CF8C171D0611F00CF08C2F52
:1005E0009FB7F8949092E9002091E80025FD02C0A1
:1005F0009FBFE1CF282F30E0C21BD30B882029F00A
:100600008150A0F01092F100FBCFF801C7FC0AC0A6
:10061000815050F041914093F100FACF44914093C2
:10062000F10031968150D0F7020F131FDD2021F029
:10063000A092E800D12CDCCF8091E80085FD07C0B6
:10064000A092E800DD24D394209791F2F3CF209775
:1006500079F6772069F2A092E800CACF5D9884E627
:1006600080935501C70180CFCF93DF93EC01809138
:100670000B01882331F083E00E949E0218161906B0
:1006800034F081E090E09B838A8380E090E0DF910A
:10069000CF910895615030F02091F100FC0120834A
:1006A0000196F8CF289884E6809367010895AF9269
:1006B000BF92CF92DF92EF92FF920F931F93CF934F
:1006C000DF936C017B018B01040F151FEB015E01B1
:1006D000AE18BF08C017D10759F06991D601ED9146
:1006E000FC910190F081E02DC6010995892B79F7E5
:1006F000C501DF91CF911F910F91FF90EF90DF9097
:10070000CF90BF90AF9008958091480181110DC0A6
:1007100082E08093440184E0809345011092470178
:100720001092460181E08093480184E491E00895AD
:100730001F93CF93DF9300D000D01F92CDB7DEB7C9
:1007400090917D0299838A836B834C8380916702A9
:1007500081112AC011E010935A0210935B0280E6C7
:1007600092E090935D0280935C0210925F0210927F
:100770005E028BE391E090935702809356021092B1
:10078000620210926102109264021092630210934E
:1007900065021093660281EC809360020E948403DC
:1007A0000E94D7001093670281E08D8341E050E002
:1007B000BE016B5F7F4F809159020E949E0297FDA0
:1007C0000AC08091590244E050E0BE016F5F7F4F44
:1007D00080640E949E020F900F900F900F900F90D8
:1007E000DF91CF911F91089590917D02809589238B
:1007F000981739F080937D0240E060E080E00C942F
:100800009803089590917D02892B981739F0809371
:100810007D0240E060E080E00C94980308950F931F
:100820001F93CF93DF931F92CDB7DEB782E089830A
:1008300042E450E06CEA70E080E80E9462020E94AC
:100840008403DC0112960D911C910115110589F0AC
:10085000D801ED91FC910280F381E02DBE016F5F24
:100860007F4FC801099597FD04C0F80100851185E7
:10087000ECCF89810F90DF91CF911F910F91089557
:10088000FC01538D448D252F30E0842F90E0821B96
:10089000930B541710F0CF96089501970895FC011B
:1008A000918D828D981761F0A28DAE0FBF2FB11D73
:1008B0005D968C91928D9F5F9F73928F90E00895CB
:1008C0008FEF9FEF0895FC01918D828D981731F085
:1008D000828DE80FF11D858D90E008958FEF9FEFD9
:1008E0000895FC01918D228D892F90E0805C9F4FAF
:1008F000821B91098F739927089589EB91E00E94DB
:10090000710421E0892B09F420E0822F089580E012
:1009100090E0892B29F00E947D0481110C94000045
:100920000895FC01A48DA80FB92FB11DA35ABF4F84
:100930002C91848D90E001968F739927848FA689DE
:10094000B7892C93A089B1898C9182748C93938DF3
:10095000848D981306C00288F389E02D80818F7DF5
:1009600080830895EF92FF920F931F93CF93DF93AD
:10097000EC0181E0888F9B8D8C8D981319C0E889DC
:10098000F989808185FF14C09FB7F894EE89FF89AB
:100990006083E889F9898081827480839FBF81E0C8
:1009A00090E0DF91CF911F910F91FF90EF9008950C
:1009B000F62E0B8D10E00F5F1F4F0F731127E02EE7
:1009C0008C8D8E110CC00FB607FCFACFE889F9891F
:1009D000808185FFF5CFCE010E949104F1CFEB8D90
:1009E000EC0FFD2FF11DE35AFF4FF0829FB7F894F3
:1009F0000B8FEA89FB8980818062CFCFCF93DF9311
:100A0000EC01888D8823B9F0AA89BB89E889F98926
:100A10008C9185FD03C0808186FD0DC00FB607FC5B
:100A2000F7CF8C9185FFF2CF808185FFEDCFCE018E
:100A30000E949104E9CFDF91CF910895DC01FB0181
:100A400012962C911297848195812817190641F4EA
:100A500091818081813A31F49D7F81E0913009F06C
:100A600080E008958132E1F79B3029F482811F965E
:100A70008C9381E008959A3099F7828150968C93F7
:100A8000F8CFDC01FB0188E4808389E4818384E47E
:100A900082831D969C911D979F709F5B93831D96EB
:100AA0008D919C9124E0969587952A95E1F78F701A
:100AB0008F5B848385E00895EF92FF920F931F93DD
:100AC000CF93DF93FB012081213871F523812232FE
:100AD00059F5DC0112964C91248135814217130699
:100AE00019F5EC010B851C85F12CE12C0115110584
:100AF00089F0F801448155816281738180E80E9408
:100B000062028F3F980749F0E80EF91ED8010D9157
:100B10001C91ECCF81E08F87C701DF91CF911F91AE
:100B20000F91FF90EF90089590E080E0F6CFCF9383
:100B3000DF93CDB7DEB769970FB6F894DEBF0FBE6F
:100B4000CDBFFC01DB018C918F5F8C939E012D5FEB
:100B50003F4F8DE0D9011D928A95E9F729E029835D
:100B600084E08A8391E09D8383E08E832A8721E25B
:100B70002B879C879D879F8722E2288B27E02B8BE2
:100B800025E02C8B8E8B20E430E0388F2F8B998FD3
:100B900082818B8395858685998B8A8B83818068FA
:100BA0008D8B49E150E0BE016F5F7F4F80E00E9476
:100BB000620269960FB6F894DEBF0FBECDBFDF911B
:100BC000CF9108951F920F920FB60F9211242F9379
:100BD0003F938F939F93AF93BF9380915F019091C9
:100BE0006001A0916101B091620130915E0123E04A
:100BF000230F2D3758F50196A11DB11D20935E01DD
:100C000080935F0190936001A0936101B0936201B2
:100C10008091630190916401A0916501B09166019A
:100C20000196A11DB11D8093630190936401A0936F
:100C30006501B0936601BF91AF919F918F913F91F4
:100C40002F910F900FBE0F901F90189526E8230F3D
:100C50000296A11DB11DD2CF1F920F920FB60F9217
:100C600011248F939F938091E1009091E100937FF5
:100C70009093E10083FF0FC01092E90091E0909300
:100C8000EB001092EC0092E39093ED00109268015B
:100C900098E09093F00082FF22C093E09093E900E7
:100CA0009091F200992319F09AE39093E8009091C3
:100CB0005501992341F09091550191509093550120
:100CC000911101C05D9A90916701992341F0909133
:100CD0006701915090936701911101C0289A84FF98
:100CE00018C08091E2008E7E81608093E200809146
:100CF000E1008F7E8093E100809156018E7E8061BD
:100D0000809356019F918F910F900FBE0F901F906F
:100D1000189580FFF7CF8091E2008E7E80618093EE
:100D2000E2008091E1008E7E8093E1008091560187
:100D30008E7E8160E5CF1F920F920FB60F92112425
:100D4000CF92DF92EF92FF920F931F932F933F93D7
:100D50004F935F936F937F938F939F93AF93BF93C3
:100D6000EF93FF93CF93DF93CDB7DEB76C97DEBFE2
:100D7000CDBF1092E9008091E80083FF25C068E0B4
:100D8000CE0145960E944A0382EF8093E8008D8948
:100D900087FF39C09091E80090FFFCCF982F9076A4
:100DA00009F034C19E894F89588D2F89F88C911193
:100DB00031C0803861F5809157018093F100109225
:100DC000F1008EEF8093E8006C960FB6F894DEBFCA
:100DD0000FBECDBFDF91CF91FF91EF91BF91AF914A
:100DE0009F918F917F916F915F914F913F912F9143
:100DF0001F910F91FF90EF90DF90CF900F900FBE5B
:100E00000F901F9018959EEF9093E800C7CF109217
:100E1000F100D5CF913059F48111D3CF4130510534
:100E200081F6809157018D7F80935701CACF93300F
:100E300049F48111C6CF4130510519F6809157010F
:100E40008260F2CF953041F48091E80080FFFCCFC2
:100E500020682093E300B5CF963009F0A9C00B8D30
:100E60001C8D22E01092E900109253011092520161
:100E7000F2122EC010925101109250010E940F04E4
:100E80001F8299E09983FA8291E09E8390EA988785
:100E90009AEF99872091520130915301275F3F4F7C
:100EA0003C832B838D831092E900109253011092A2
:100EB0005201109351010093500149E050E0BE01EE
:100EC0006F5F7F4F80E00E9462020E940F0479CF23
:100ED00010935101009350010E948403DC0112968B
:100EE0000D911C910115110509F451C1D801ED9125
:100EF000FC910480F581E02DBE016B5E7F4FC8013F
:100F00000995009709F03EC1F80100851185EACFE7
:100F1000F3E0FF120EC08F89882309F440C08230AD
:100F200061F440E860E180E191E00E942F028111CC
:100F300048CF81E28093EB0047CF813029F440E82D
:100F40006BE084E091E0F1CF833099F70E94840355
:100F5000DC011296ED90FC908E010F5F1F4F68012F
:100F6000E114F10479F0D701ED91FC910680F7814D
:100F7000E02DB801C7010995080F111DF701E084A4
:100F8000F184EECFD8011C92F60101900020E9F720
:100F90003197BF016C197D0940E0C601C6CF6EEEE6
:100FA00070E0FB01449150E080E80E94620209CFAA
:100FB000973009F4BECF983021F481E08093F1009E
:100FC00000CF993009F0FDCE837009F0B2CFEDE08B
:100FD000F1E081E031E096E32191222371F08093EA
:100FE000E9003093EB00DF0111972C912093EC0086
:100FF0009093ED008F5F873079F78EE78093EA005A
:101000001092EA008F8980936801DBCE8B8D9C8DD6
:101010001092E900109253011092520190935101E5
:1010200080935001898D811192C08E899D89913A5A
:1010300049F4813209F07DCF47E050E064E071E08F
:1010400080E0B3CF913209F074CF833269F48F8995
:10105000988DB0E0A0E08093000190930101A093EF
:101060000201B0930301ADCE803269F48091E800B3
:1010700082FFFCCF67E084E091E00E944A038BEF9F
:101080008093E8009ECE823209F09BCE8F898093B8
:101090000B01EEEFFFE7859194918B3F9C4D51F151
:1010A000E0E0F8E08091040190910501A091060133
:1010B000B0910701803B9440A105B105F1F4809106
:1010C0000B0180FD1AC0EE3F8AE0F80789F587E73B
:1010D00097E791838083809160008093540188E139
:1010E0009BE00FB6F894A895809360000FBE909394
:1010F000600067CEEEEFFAE0D5CF8081918187372F
:10110000974709F05ECEA895809160008861809332
:1011100060008091540180936000EE3F2AE0F20766
:1011200089F08091FE0A9091FF0A9183808349CED5
:10113000808191818737980751F29093FF0A8093BD
:10114000FE0AC5CF1092FF0A1092FE0A3ACE0E9404
:101150008403DC0112960D911C910115110509F40F
:10116000E8CED801ED91FC910190F081E02DBE0117
:101170006B5E7F4FC8010995811123CEF801008570
:101180001185EBCF181619060CF41BCED2CEF1E068
:10119000FF12BECE62EF70E004CF1F920F920FB627
:1011A0000F9211242F933F934F935F936F937F93ED
:1011B0008F939F93AF93BF93EF93FF9389EB91E04E
:1011C0000E949104FF91EF91BF91AF919F918F91F8
:1011D0007F916F915F914F913F912F910F900FBE33
:1011E0000F901F9018951F920F920FB60F92112417
:1011F0002F938F939F93EF93FF93E091C901F09109
:10120000CA018081E091CF01F091D00182FD1BC025
:1012100090818091D2018F5F8F732091D3018217CB
:1012200041F0E091D201F0E0E754FE4F958F8093BA
:10123000D201FF91EF919F918F912F910F900FBE4F
:101240000F901F9018958081F4CFCF9310926C016E
:1012500010926B0188EE93E0A0E0B0E080936D0106
:1012600090936E01A0936F01B093700127E131E07C
:1012700030936A01209369012FEF3FEF309376019D
:10128000209375011092BC011092BB018093BD01A7
:101290009093BE01A093BF01B093C00189E291E099
:1012A0009093BA018093B9018DEC90E09093C601C0
:1012B0008093C5018CEC90E09093C8018093C701A6
:1012C00088EC90E09093CA018093C90189EC90E08A
:1012D0009093CC018093CB018AEC90E09093CE0167
:1012E0008093CD018EEC90E09093D0018093CF015C
:1012F0001092D2011092D3011092D4011092D50114
:1013000010927D0280917502811113C010927002BB
:1013100010926F0281E291E09093720280937102C9
:1013200086E390E0909374028093730281E080934F
:1013300075028091670281112AC0C1E0C0935A02F0
:10134000C0935B0280E692E090935D0280935C0222
:1013500010925F0210925E028BE391E0909357022D
:1013600080935602109262021092610210926402FF
:1013700010926302C0936502C093660281EC809371
:1013800060020E9484030E94D700C0936702E0912C
:101390006102F09162023097B9F48FE692E0909387
:1013A00062028093610280916302909164022091B5
:1013B000730230917402820F931F909364028093A2
:1013C0006302CF910895FC01808191810097D9F744
:1013D0008FE692E091838083E6CF789484B5826033
:1013E00084BD84B5816084BD85B5826085BD85B5C9
:1013F000816085BD80916E00816080936E00109247
:1014000081008091810082608093810080918100C1
:101410008160809381008091800081608093800052
:101420008091910082608093910080919100816011
:1014300080939100809190008160809390008091D2
:10144000C10084608093C1008091C100826080935C
:10145000C1008091C10081608093C1008091C30070
:1014600081608093C3008091C00082608093C0003F
:101470008091C20081608093C20080917A00846074
:1014800080937A0080917A00826080937A008091C4
:101490007A00816080937A0080917A0080688093DE
:1014A0007A001092680110925701109256018091B3
:1014B000D70081608093D70080EA8093D80089B5F7
:1014C000806189BD89B5826089BD09B400FEFDCF08
:1014D0000E94E9018091D8008F7C80618093D800C0
:1014E0008091E000807F8093E0008091E1008E7E1B
:1014F0008093E1008DE08093E200559A209AE0917C
:10150000C901F091CA0182E08083E091C501F091A8
:10151000C6011082E091C701F091C80180E180838B
:101520001092D101E091CD01F091CE0186E080834F
:10153000E091CB01F091CC01808180618083E091CA
:10154000CB01F091CC01808188608083E091CB0158
:10155000F091CC01808180688083E091CB01F09193
:10156000CC0180818F7D8083C0E0D0E0FF24F394A4
:1015700012E083E0E82E89EB91E00E947104892B50
:1015800009F483C089EB91E00E944F0490915D01C2
:101590009130E1F0B0F0923071F1933061F76091E9
:1015A0005B0190915C01292F30E026553F4FE8E523
:1015B000F1E040E0641789F15191250F311D4F5F33
:1015C000F9CF8A3AC1F6F0925D01D5CF80935C01E4
:1015D0008D3439F410935B0110925A0110935D0120
:1015E000CACF823419F4F0925B01F6CF8735D9F374
:1015F00010925D01C0CFE0915A0191E09E0F90934F
:101600005A01F0E0E85AFE4F808380915B01981701
:1016100008F4B1CFE0925D01AECF8213E9CF9D34E3
:1016200061F48091580160915901811102C06623D3
:10163000F9F240E00E949803DBCF9234D9F4009194
:10164000580181E000FF0DC00E94020482E001FF0A
:101650000BC00E94020484E002FF09C00E94020441
:10166000C7CF0E94F403F2CF0E94F403F4CF0E948C
:10167000F403BECF973509F0BBCF40915801442306
:1016800009F4B6CF60E080E0D5CF209709F473CF9E
:101690000E947D04882309F46ECF0E9400006BCF66
:1016A000EE0FFF1F0590F491E02D0994F894FFCF01
:1016B000FFFFFFFF00E100000000000000C180818B
:1016C000000000000000004701340399025D01AAF8
:1016D000016801860100000000B20457034004FEC7
:1016E0000471044F046304000000001E0597055CAC
:0416F00005410500AB
:00000001FF
