:100000000C94CF000C94F7000C94F7000C94F700BC
:100010000C94F7000C94F7000C94F7000C94F70084
:100020000C94F7000C94F7000C948A0F0C94F90FC1
:100030000C94F7000C94F7000C94F7000C94F70064
:100040000C94F7000C94F7000C94F7000C94F70054
:100050000C94F7000C94F7000C94F7000C94400FEC
:100060000C94F7000C94F7000C94F7000C94F70034
:100070000C94F7000C94F7000C94F7000C94F70024
:100080000C94F7000C94F7000C94F7000C94F70014
:100090000C94F7000C94F7000C94F7000C94F70004
:1000A0000C94F7000C94F7000C94F700080B000276
:1000B0000202000009040000010202000005240001
:1000C0001001052401010104240206052406000193
:1000D0000705810310004009040100020A00000026
:1000E00007050202400000070583024000000403E8
:1000F000090412010002EF0201406D048BC00001EF
:1001000001020301556E6B6E6F776E004C6F67696D
:10011000746563682047616D696E67204D6F757304
:1001200065000000000200090F0000030401000C3C
:1001300000000000000000000000000000000000BF
:100140000000000000250028002B002E00310000D8
:10015000000000240027002A002D003000040404C1
:10016000040403040502020202040302020202065E
:10017000060606060604040202020404040802013C
:1001800010408040102040804080080204018040E0
:100190002010020110801020404020002213112462
:1001A0001FBECFEFDAE0DEBFCDBF23E0A8EEB1E0A7
:1001B00001C01D92A433B207E1F711E0A0E0B1E065
:1001C000EAE5FFE202C005900D92A83EB107D9F71B
:1001D00010E0CFECD0E004C02197FE010E949917F7
:1001E000CE3CD107C9F70E942A140C94AB170C948B
:1001F00000008CBD9DBD089590E0FC01E458FE4FC9
:100200002491835A9E4FFC018491882399F090E0B9
:10021000880F991FFC01E15BFE4FA591B491FC0191
:10022000EF5BFE4F859194918FB7F894EC91E22BA0
:10023000EC938FBF0895FC0180910B02882311F18C
:100240003FB7F89482E08093E9002091F200822F7A
:1002500090E01816190614F481E090E0882339F034
:10026000289844E640930A024091F10040832223FB
:1002700039F02091F200211103C02BE62093E80011
:100280003FBF08958FEF9FEF08952FB7F89483E055
:100290008093E9009091E800892F807295FF04C057
:1002A0009091F20080E4891B2FBF08958091020293
:1002B00081110DC082E08093FE0184E08093FF01F4
:1002C000109201021092000281E0809302028EEFF0
:1002D00091E008953FB7F8948091FA019091FB0165
:1002E000A091FC01B091FD0126B5A89B05C02F3F50
:1002F00019F00196A11DB11D3FBFBA2FA92F982F4C
:100300008827BC01CD01620F711D811D911D42E046
:10031000660F771F881F991F4A95D1F708958F920E
:100320009F92AF92BF92CF92DF92EF92FF924B01DA
:100330005C010E946A016B017C010E946A016C19D8
:100340007D098E099F09683E734081059105A8F3D8
:1003500021E0821A9108A108B10888EEC80E83E056
:10036000D81EE11CF11C81149104A104B10429F7E9
:10037000FF90EF90DF90CF90BF90AF909F908F90C5
:1003800008952FB7F8946091F6017091F70180916C
:10039000F8019091F9012FBF08954091EA01509121
:1003A000EB012091E8013091E90142175307B4F4C1
:1003B0009091E8009570E1F39091E80092FD19C0EA
:1003C0008093F1008091EA019091EB0101968F7387
:1003D0009927892B19F48EEF8093E8008091EA0128
:1003E0009091EB0101969093EB018093EA0181E0FB
:1003F000089580E00895DF92EF92FF920F931F938C
:10040000CF93DF93D82E8A01EB017B01E40EF51E1A
:10041000CE15DF0559F0D7FE12C0FE0184910E946F
:10042000CD0121968111F4CF0FEF1FEFC801DF91AD
:10043000CF911F910F91FF90EF90DF9008958881E9
:10044000EECF0F931F93CF93DF931F92CDB7DEB7FD
:1004500082E0898342E450E06CEA70E080E80E9428
:10046000FB010E945601DC0112960D911C910115B1
:10047000110589F0D801ED91FC910280F381E02D06
:10048000BE016F5F7F4FC801099597FD04C0F80159
:1004900000851185ECCF89810F90DF91CF911F915D
:1004A0000F910895615030F02091F100FC012083FC
:1004B0000196F8CF289884E680930A0208958F92D7
:1004C0009F92AF92BF92CF92DF92EF92FF920F93E3
:1004D0001F93CF93DF936C017B018A0180910B0105
:1004E000882309F45CC080910B02882309F457C06B
:1004F0008091EE0180FF05C08091E00082608093D2
:10050000E000E801B12C8AEFA82E93E0892E2AE3BF
:10051000922E209711F4BB20D9F10E944501811140
:100520000AC0AA94AA20D9F161E070E080E090E0CE
:100530000E948F01EECF8C171D0611F00CF08C2F4E
:100540009FB7F8948092E9002091E80025FD02C051
:100550009FBFDFCF282F30E0C21BD30BF7018150A4
:1005600020F041914093F100FACFE20EF31EBB2040
:1005700021F09092E800B12CEBCF8091E80085FD4E
:10058000E7CF9092E800BB24B394209709F3F3CF10
:100590005D9884E68093ED01101611063CF081E031
:1005A00090E0F6019383828310E000E0C801DF91C0
:1005B000CF911F910F91FF90EF90DF90CF90BF9060
:1005C000AF909F908F900895CF93DF931F92CDB7F8
:1005D000DEB76983DC01ED91FC910280F381E02DAF
:1005E00041E050E0BE016F5F7F4F09950F90DF91B2
:1005F000CF91089583E08093E9008091F2008823F1
:1006000019F08AE38093E80008950E94450190E084
:100610000895CF93DF931F92CDB7DEB7FC01848599
:10062000958597FD08C02FEF3FEF358724870F9002
:10063000DF91CF910895CE0101960E941B01019791
:1006400019F4898190E0F3CF8FEF9FEFF0CF0F93F4
:100650001F93CF93DF931F92CDB7DEB78C01FC01C0
:100660008485958597FF0BC0CE0101960E941B01E2
:10067000019771F4898190E0F80195878487F801EA
:10068000848595850F90DF91CF911F910F910895EB
:100690008FEF9FEFF1CFFC018485958597FD0BC00F
:1006A0009FB7F89482E08093E9008091F2009FBFA9
:1006B00090E0019608959FB7F89482E08093E90056
:1006C0008091F2009FBF90E008950F931F93CF9306
:1006D000DF93FC018B01EA0180819181892B31F14B
:1006E0009281992349F128813981232BF9F0D8018E
:1006F0002D913C91D9014C918381682F691B770B17
:1007000080819181860F971FDC014C9382818150FB
:10071000828388819981019799838883D8018D91FB
:100720009C91119701968D939C93DACF80E0DF9195
:10073000CF911F910F9108958381828381E0F7CF3C
:100740003F924F925F926F927F928F929F92AF9261
:10075000BF92CF92DF92EF92FF920F931F93CF93AE
:10076000DF9300D000D0CDB7DEB76C017A83698308
:100770005C834B8384E0482E360182E1680E711C55
:1007800093E0392E5601A7E0AA0EB11C12E05524C1
:1007900053944601B0E18B0E911C29813A812115B9
:1007A000310509F4CBC0F60180A18230F1F0A8F543
:1007B000882309F457C0813091F7AE014F5F5F4F36
:1007C000BE016D5F7F4FC5010E946503882309F458
:1007D000B5C0D6011596ED91FC9116978081919642
:1007E0008C939197818192968C93F60176826582A3
:1007F00030A2D60192968C919297843011F4939600
:100800001C92F60181A18250848325813681308734
:1008100027838287818740A205C0833051F38430CB
:1008200009F0BDCFD60192968C919297843019F140
:10083000853009F44CC0823009F073C0AE014F5FBF
:100840005F4FBE016D5F7F4FC5010E946503882326
:1008500009F474C0F601858984A3F6019682858225
:1008600010A29BCF148385819681908787831287FE
:10087000118750A2A2CFAE014F5F5F4FBE016D5FE7
:100880007F4FC5010E946503882309F457C0D60134
:1008900055968C915597833001F798968C9198973F
:1008A0008111DBCF93965C92939752968C915297DD
:1008B00096968C93969753968C91539797968C9384
:1008C000979757968C91579795968C93C6CFAE0174
:1008D0004F5F5F4FBE016D5F7F4FC5010E94650393
:1008E000882361F1F60183A1882309F4B6CF8281C0
:1008F0009381009709F4B1CFDC01ED91FC91019057
:10090000F081E02D7401D60195960C9195979796FC
:100910002C91979796964C91969794966C910995F1
:100920009CCFF60185858823F9F0813041F1D6010D
:100930001E968D919C91892B09F48FCF0F900F906B
:100940000F900F90DF91CF911F910F91FF90EF903B
:10095000DF90CF90BF90AF909F908F907F906F90DF
:100960005F904F903F90089591968C91919782500F
:10097000990B1F969C938E931E971D965C922981CE
:100980003A818B819C81782F692FF60146855785A6
:100990004115510581F001962115310539F041507D
:1009A00051095787468721503109EDCF7B836C83EE
:1009B0001A821982BCCF9C838B833A832983158644
:1009C000B6CFCF93DF93EC018C819D81DC01ED915B
:1009D000FC910480F581E02D6E81099581E08E8F78
:1009E0001E821F8E18A219A21AA21CA280E0DF91FB
:1009F000CF910895FC01DC01A65ABF4F8C9188234A
:100A0000A1F08781681741F0828521E030E0681706
:100A100029F090E080E0089530E020E0C901880FDF
:100A2000991F820F931FE80FF91F80859185089504
:100A3000FC018781811104C080859185892B59F043
:100A40008285811106C08385948521E030E0892B61
:100A500021F080E0089530E020E0C901880F991F5F
:100A6000820F931FE80FF91F67835187408781E04A
:100A700008950895DF92EF92FF920F931F93CF9303
:100A8000DF93EC0185E0E62EF12CFE01869FE00D60
:100A9000F11D1124908596FF24C0192F177001E0D5
:100AA00085E0D82E8FEF800F8F3008F001E0602FA7
:100AB00070E0062FD69EF001D79EF00D1124EC0FAA
:100AC000FD1F80858695869586958770181701F19C
:100AD0006F5F7F4F603168F38D81811302C01150C9
:100AE0001D8385E08E9DF0018F9DF00D1124EC0F8C
:100AF000FD1F108681E0818712862296D783C683E8
:100B0000DF91CF911F910F91FF90EF90DF900895AB
:100B1000CE010E943A05C6CFFC0120812EBD9B016B
:100B20002150310941F051810DB407FEFDCF4EB582
:100B30005EBD4193F5CF61507109860F971F0DB4CB
:100B400007FEFDCF2EB5FC0120830895FC0121E0B6
:100B5000613499F49C01255B3F4F61E0AC014E5F2D
:100B60005F4F1586668717865487438735962E17FD
:100B70003F07B9F7FC01158208953585631729F001
:100B80002F5F35962031C9F70895622F0C943A05EE
:100B9000CF93DF93FC0167FD12C0283080F444231B
:100BA00019F08581873059F0EF01A1E0B0E08D8523
:100BB000882349F111962596A031B105C1F780E04F
:100BC00018C085E08A9FE0018B9FD00D1124CE0FC5
:100BD000DF1F442389F081E4888785818F5F8583C7
:100BE00025E02A9FC0012B9F900D1124E80FF91FCB
:100BF0008085DF91CF91089581E08887F1CF2770BC
:100C0000687B622B0FC06623E1F26770660F660F88
:100C1000660F4423A1F3606485818F5F85838770AD
:100C2000687F682B25E02A9FC0012B9F900D11241F
:100C3000E80FF91F6087862FDCCFFC0121E06111EE
:100C400002C0069608953585631739F02F5F3596F3
:100C50002031C9F790E080E00895069635E0239FA3
:100C6000800D911D112408952E9808952E9A0895AF
:100C7000EF92FF920F93FC01368D323018F0348DD5
:100C8000361302C00E945E120F91FF90EF900895FC
:100C9000EF92FF920F9302970E9438060F91FF90F8
:100CA000EF9008950895EF92FF920F931F93422FB4
:100CB000202F8701DC01ED91FC9100A0F1A1E02D36
:100CC00009951F910F91FF90EF90089581E008958D
:100CD000FC0184A10895FC018681089580E00895B7
:100CE00081E0089580E0089580E00895089580E00F
:100CF000089508950F931F93CF93DF93D82FC62F96
:100D00008A0180E591E00E94F9000E943406D260D9
:100D1000DEBDF8018C2F882339F00DB407FEFDCF1E
:100D200091919EBD8150F7CFC00FD12FD11D0DB431
:100D300007FEFDCF0E943606CE01DF91CF911F91B5
:100D40000F9108950F931F93CF93DF9300D0CDB7EA
:100D5000DEB7182F062F80E591E00E94F9000E946F
:100D60003406126019830A8362E070E0CE010196B6
:100D70000E948C050E9436060F900F90DF91CF9154
:100D80001F910F9108958EBD00000DB407FEFDCF99
:100D90008EB50895CF93C82F80E591E00E94F900A9
:100DA0000E9434068C2F0E94C30680E00E94C30676
:100DB000C82F0E9436068C2FCF9108958F929F9254
:100DC000AF92BF92CF92DF92EF92FF920F931F9359
:100DD000CF93DF93882E962E5A010E94C1016B019A
:100DE0007C0128E8C20E23E1D21EE11CF11C10E0B8
:100DF00000E0D0E0C0E098280E94C1016C197D0994
:100E00008E099F0997FF1EC0692D80EF0E94A206E0
:100E10000E94C1016C197D098E099F0997FF09C0C5
:100E200088EC0E94CA0687FFF3CF60E888EC0E9436
:100E3000A20688EF0E94CA06C82FCF70C43081F086
:100E4000CE30B9F08C2FDF91CF911F910F91FF9091
:100E5000EF90DF90CF90BF90AF909F908F900895CC
:100E60000F5F1F4FA114B10439F20A151B0521F6BB
:100E7000E9CFDF5FD33009F0BFCFE4CFAF92BF92AD
:100E8000CF92DF92EF92FF920F931F93CF93DF9356
:100E9000EC01B62EA42E69010E941D067C0186ED90
:100EA000E114F10409F447C0D701ED91FC911197C9
:100EB00087ED309709F43FC013969C9180E0981716
:100EC00031F02081A21629F033968F5FF8CFF0E041
:100ED000E0E0D601ED93FC938BED309761F1228138
:100EE00026952695203108F02FE081E090E0A0E0E3
:100EF000B0E004C0880F991FAA1FBB1F2A95D2F724
:100F00000197F801918380836B2D80EE0E94A206E9
:100F100088ED0E94CA06D70114969C91682F697FBC
:100F2000992329F0CA58DF4F68816260682B88EDE9
:100F30000E94A20680E0DF91CF911F910F91FF9058
:100F4000EF90DF90CF90BF90AF90089588EF0E9410
:100F5000CA06807C8034B1F018F4882301F108952A
:100F6000803819F0803CC9F0089588ED0E94CA06C7
:100F700081FD0DC069EC88ED0E94A20682E080939D
:100F80000C02089588ED0E94CA0681FDF3CF6BEC38
:100F900088ED0E94A20683E0F2CF81E0F0CF61ED00
:100FA00088ED0E94A20610920C020895FC010190A7
:100FB0000020E9F73197AF01481B590BBC018DE0C8
:100FC00092E00C945F02CF92DF92FF920F931F93F7
:100FD000CF93DF93F62E01E0C82FD0E0CC0FDD1FBA
:100FE000CD5EDC4F6E0188819981DC01ED91FC9131
:100FF0000280F381E02D2F2D40E060E00995182F4D
:10100000803E49F561E088EE0E94A20666E670E047
:1010100080E090E00E948F01F60180819181DC01E7
:10102000ED91FC910190F081E02D2F2D40E060E0EA
:101030000995182F8D3041F58FEF800F833088F0A0
:1010400061E088EE0E94A20666E670E080E090E033
:101050000E948F0110C08D3061F48FEF800F8330BC
:1010600050F464E670E080E090E00E948F010F5F32
:10107000BACF882389F2812FDF91CF911F910F91F1
:10108000FF90DF90CF9008958823A9F3D9CFCF9216
:10109000DF92EF92FF920F931F93CF93DF93CDB721
:1010A000DEB7A1970FB6F894DEBF0FBECDBF7801B3
:1010B000E20EF11CE016F106A9F16801F801808149
:1010C000803120F483E991E00E94D6070F5F1F4F23
:1010D000F601408150E070E060E019A2FE01B19697
:1010E000DB01CA018F709927AA27BB2794E0769568
:1010F0006795579547959A95D1F78A308CF4805D1E
:101100008293411551056105710551F7309719F02A
:10111000CF010E94D60785E991E00E94D607CACF89
:10112000895CEECF87E991E00E94D607A1960FB6C1
:10113000F894DEBF0FBECDBFDF91CF911F910F910D
:10114000FF90EF90DF90CF9008952F923F924F92B3
:101150005F926F927F928F929F92AF92BF92CF9247
:10116000DF92EF92FF920F931F93CF93DF937B0158
:101170003A016901F901A080B180FB013180F901D8
:1011800011821082FB01828160E181FD60E288EEC4
:101190000E94A2062A2CA301F701608180E00E9430
:1011A000DE06582EF6E08F1310C088EF0E94CA06A4
:1011B000F70192819D7F84FF9260928360E191FDAF
:1011C00060E288EE0E94A206E6CF811150C088EC52
:1011D0000E94CA0682FF5FC080E30E94CA06482EB2
:1011E0008A151B0411F008F0422CF60180819181D0
:1011F000E501C81BD90BD7FF02C0D0E0C0E0842CAA
:10120000912C8C169D060CF4E40180E591E00E947F
:10121000F9000E94340688E00E94C306AE0170E027
:1012200060E0C8010E94A417209721F0BE01C80108
:101230000E948C050C0F1D1F0E94360664E088EC8E
:101240000E94A206F60180819181880E991E9182EA
:101250008082431420F08A149B0408F49CCF88EF0A
:101260000E94CA06F701928184FB91F99283852D31
:10127000DF91CF911F910F91FF90EF90DF90CF9072
:10128000BF90AF909F908F907F906F905F904F90A6
:101290003F902F90089580EF582EE9CFAF92BF92E4
:1012A000CF92DF92EF92FF920F931F93CF93DF9332
:1012B00000D000D0CDB7DEB77C01690158011C8297
:1012C0001B821A8219828E010F5F1F4F9E012D5FB4
:1012D0003F4F0E943E07811109C049815A816B81AD
:1012E0007C8185019601C7010E94A5080F900F908F
:1012F0000F900F90DF91CF911F910F91FF90EF9082
:10130000DF90CF90BF90AF9008954F925F926F9211
:101310007F928F929F92AF92BF92CF92DF92EF9285
:10132000FF920F931F93CF93DF93CDB7DEB7C254D5
:10133000D1090FB6F894DEBF0FBECDBFDC01949685
:101340002C9121111AC0612C862DCE5BDF4F0FB678
:10135000F894DEBF0FBECDBFDF91CF911F910F91EB
:10136000FF90EF90DF90CF90BF90AF909F908F90C5
:101370007F906F905F904F9008957C010E94C10113
:10138000F701878C90A0A1A0B2A0681979098A09F9
:101390009B0997FDD8CF0E94C101D70193962C914C
:1013A000620F711D811D911DF701678F70A381A3CD
:1013B00092A3712C6E01F1E4CF0ED11C30E4832E88
:1013C000912C57018AE5A80EB11CD7015D968C912E
:1013D000781608F0B8CFE72DF0E07296EE0FFF1FF9
:1013E000EE0FFF1FEE0DFF1D8081E82FF0E0CF0113
:1013F000880F991FDC01AE0FBF1FAE0DBF1D969663
:101400002C9130E0D6012D933C93DE0111962D01F5
:101410001D92AC15BD05E1F7E80FF91FEE0DFF1D9C
:101420008201960145A1F7016681848195810E9420
:101430004E09682E811188CFD6018D919C9111970C
:101440008134910510F08D929C92D701ED91FC9121
:1014500000A0F1A1E02D8201D6012C91D5014C9183
:10146000B701C7010995D701ED91FC910288F38975
:10147000E02DD5018C9181116980662DC7010995F8
:10148000009769F0DC01ED91FC910190F081E02D75
:101490008201D6012C91D5014C91B7010995739425
:1014A00094CF3F924F925F926F927F928F929F92D2
:1014B000AF92BF92CF92DF92EF92FF920F931F9362
:1014C000CF93DF93CDB7DEB7C254D1090FB6F894EE
:1014D000DEBF0FBECDBFDC0194962C91222309F410
:1014E000A1C06C010E94C101F601878C90A0A1A04F
:1014F000B2A0681979098A099B0997FD93C00E94D7
:10150000C101D60193962C91620F711D811D911D11
:10151000F601678F70A381A392A3312C5E01F1E4E1
:10152000AF0EB11C46018AE5880E911CD6015D966E
:101530008C91381608F076C0E32DF0E07296EE0F2D
:10154000FF1FEE0FFF1FEC0DFD1D6080662009F4EC
:1015500067C0712C7301EE0CFF1CF701E60DF71D3F
:10156000EC0DFD1D86A190E0F50191838083FE01C5
:1015700031962F011192EA15FB05E1F7F701E60D0F
:10158000F71DEC0DFD1D8201950145A1D6011696B2
:101590006C91169714968D919C910E944E09182F6C
:1015A00081113EC0F501808191810097C9F181349C
:1015B000910520F080E490E091838083E60CF71C95
:1015C000D601AE0DBF1DF60180819181FC01608CBA
:1015D000718C7201F5010081F401208195964C9186
:1015E000B601C601F3010995D601ED91FC9102887F
:1015F000F389E02DD4018C9181111981612FC601ED
:101600000995009769F0DC01ED91FC910190F08162
:10161000E02D8201D5012C91D4014C91B6010995A0
:10162000339484CF80E0CE5BDF4F0FB6F894DEBFFB
:101630000FBECDBFDF91CF911F910F91FF90EF9023
:10164000DF90CF90BF90AF909F908F907F906F90E2
:101650005F904F903F9008952F923F924F925F92EC
:101660006F927F928F929F92AF92BF92CF92DF92B2
:10167000EF92FF920F931F93CF93DF93CDB7DEB717
:1016800066970FB6F894DEBF0FBECDBF3C01442E67
:10169000322E202EEA8ACE8AEBA4FCA4CDA4DEA4AE
:1016A0001E861D86188A1F868E01015F1F4F9E01B0
:1016B000235F3F4F0E943E07582E81113BC1398264
:1016C0002A822A892B833E893C83BE82AD829886FA
:1016D0008F82AE014F5F5F4F68E080E20E947A0622
:1016E0004F855889642D80E10E94DE06811140C13A
:1016F000C114D10409F453C00D851E85D80112967A
:101700008C91129737FE51C0826012968C935401CF
:1017100022242394A114B10409F42FC1FC86EB8682
:101720004F8558896D857E8586019E01255F3F4FD7
:10173000C3010E94A508582EB6E08B130EC088EF97
:101740000E94CA06ED85FE8585FB882780F98225E3
:10175000928180FB91F99283DDCF8111EBC0EFA5DF
:10176000F8A93097A1F06B857C850190F081E02D80
:101770000190F081E02DC4018A199B099A8789871D
:101780009E01275F3F4FA6018FA598A909958B85DC
:101790009C85A81AB90A8E159F0508F0BBCF4F8506
:1017A000588937FEE1C080EAE0C0816012968C93D0
:1017B000129711968C908FEF880D803408F0DAC064
:1017C0002F8438880E94C1019B01AC0128573C4EF0
:1017D0004F4F5F4F2A8B3B8B4C8B5D8BD801129602
:1017E0008C9160E880FF60E488EE0E94A206512C94
:1017F000912CE114F10409F48CC03401E814F904CB
:1018000008F437016E8AA601662D80E10E947A06EF
:10181000662D88E30E94A206F8016081606280EF75
:101820000E94A20688EC0E94CA0687FFFBCF60E8F0
:1018300088EC0E94A20688EF0E94CA068F70582E7C
:10184000198AB12CA12C552021F10E94C1012A89AD
:101850003B894C895D89621B730B840B950B97FF49
:1018600018C036E0531609F440C04EE05416B1F0EB
:1018700054E0551209C08FEFA81AB80A2114310498
:1018800091F02A143B0479F460E088E30E94A206F8
:1018900042C0E618F708C60CD71CABCF99899F5FEA
:1018A000998B933089F360E088E30E94A206D60109
:1018B0006C9180E10E94A2066E8988E30E94A206D4
:1018C000F8016081606280EF0E94A20688EC0E94AD
:1018D000CA0687FFFBCF60E888EC0E94A20688EF6B
:1018E0000E94CA068F70582EAECF88EF0E94CA069B
:1018F00085FB882780F9A1E08A27F801928180FB87
:1019000090F9928360E890FF60E488EE0E94A2065E
:10191000CACF5110B9CF88EF0E94CA06D8011296DB
:101920009C91129785FB90F912969C934F8558894C
:101930005520D1F0852D66960FB6F894DEBF0FBE08
:10194000CDBFDF91CF911F910F91FF90EF90DF906E
:10195000CF90BF90AF909F908F907F906F905F904F
:101960004F903F902F90089580E8642D0E94DE06EE
:10197000582EE0CF8AED582EDDCF4F85588955205F
:1019800009F411CFD7CF8F929F92AF92BF92CF928F
:10199000EF920F93CF931F921F921F921F921F924D
:1019A0001F92912C812CB12CA12CC12CE62E05E08C
:1019B00020E040E060E00E942C0BC82F6CE271E058
:1019C00080E090E00E948F010F900F900F900F9099
:1019D0000F900F908C2FCF910F91EF90CF90BF90E1
:1019E000AF909F908F9008958F929F92AF92BF92E9
:1019F000CF92EF920F931F921F923F932F935F937B
:101A00004F934A01B12CA12CCC24C394E12C06E0C5
:101A100020E840E00E942C0B0F900F900F900F9049
:101A20000F900F900F91EF90CF90BF90AF909F903D
:101A30008F9008952F923F924F925F926F927F9274
:101A40008F929F92AF92BF92CF92DF92EF92FF92CE
:101A50000F931F93CF93DF93CDB7DEB7C158D10952
:101A60000FB6F894DEBF0FBECDBFDC0116963C91D9
:101A700019ED311114C0B22EA42E162F3C01FC0119
:101A8000E480F580D701ED91FC910190F081E02D8B
:101A900060E0C70109952C010097E1F416ED812F54
:101AA000CF57DF4F0FB6F894DEBF0FBECDBFDF912B
:101AB000CF911F910F91FF90EF90DF90CF90BF904B
:101AC000AF909F908F907F906F905F904F903F90DE
:101AD0002F900895FC01C080D180C114D10409F475
:101AE000C5C11301F5E22F0E311CDC0111963C92A9
:101AF0002E921496BC929E0126593F4F48E050E02A
:101B000060E0F301848195810E94F40C082F81111B
:101B1000B1C1AB960FADAB97D201CD92DC92D7019C
:101B2000ED91FC910280F381E02D2A2D40E0612FA0
:101B3000C7010995F301868314ED882309F4AFCF1B
:101B4000E2969FADE29796A3682F848195810E94CB
:101B5000C30C182FD701ED91FC91D20114961C9261
:101B6000882359F00480F581E02DD30116966C91FD
:101B7000C7010995F301168292CF0190F081E02D03
:101B8000D30116966C91C7010995009709F486CF89
:101B9000FC01B48201111CC0E4968EAD9FADE497A8
:101BA000F301E35AFF4F91838083E6968EAD9FAD9C
:101BB000E697329791838083D30114968D919C91FF
:101BC000159716960C9121143104E9F408ED11C013
:101BD000033108F002E1402F50E09E0126593F4FAB
:101BE000F3016681848195810E94F40C082F88237B
:101BF00099F2D301ED91FC910480F581E02DC301B0
:101C00000995102F4CCF602F0E941D06FC01892BD7
:101C100009F428C1EC96DFACEC9702833182208274
:101C200081E083832E01F1E44F0E511CC301029623
:101C3000C058DF4F99838883C058D040D201509656
:101C4000EE96BFAFAEAFEE971D1509F489C088E1DF
:101C500091E0F20191838083C058DF4FA881B98160
:101C6000C058D040B383A283148211861286158691
:101C70001786168610A211A212A210A6EE968EAD9D
:101C80009FADEE979683858390878783948783871C
:101C9000D30114960D90BC91A02DC258DF4FB9838B
:101CA000A883CE57D040F301F6801F921F9281E0A7
:101CB00090E08C0F9D1F9F938F931F9299E09F93AD
:101CC00049E0842E912CB12CA12C52E0C52EE12E9E
:101CD00006E020E840E06F2DC258DF4F88819981EF
:101CE000CE57D0400E942C0B082F0F900F900F90D2
:101CF0000F900F900F9081117CCF8B809C805F9212
:101D00004F92A1E0B0E0AC0FBD1FBF93AF93C401F1
:101D1000B1E48B16910410F080E490E09F938F93D0
:101D2000B12CA12C32E0C32EE12E06E020E840E0E9
:101D30006F2DC258DF4F88819981CE57D0400E94C5
:101D40002C0B082F0F900F900F900F900F900F906B
:101D500081114FCFF301868D823010F41F5F74CF55
:101D6000D3015E961C915E97123008F481C01696DE
:101D70000C911697602F14968D919C910E941D06D0
:101D8000FC01892B21F002833182208213831F9270
:101D90001F921F921F921F921F92912C812CB12C87
:101DA000A12CC12CF301E48C09E020E040E0668125
:101DB000848195810E942C0B182F0F900F900F900B
:101DC0000F900F900F9081114FC0F12CD3015D96B1
:101DD0008C915D97F816D8F58F2D90E0FC017296E6
:101DE000EE0FFF1FEE0FFF1FE60DF71D20812111E3
:101DF00002C0F394EBCFFC01EE0FFF1FEE0FFF1FAD
:101E0000E60DF71DEA5BFF4F80818770A82EB12C8D
:101E10001F921F921F921F921F921F92912C812C32
:101E2000C12CE12C0AE021E240E0F30166818481CB
:101E300095810E942C0B082F0F900F900F900F9000
:101E40000F900F908823A9F2853099F2D2CEED91B0
:101E5000FC910688F789E02DC301099581E0F30123
:101E600084A31DCE06EDC5CE082FC3CE17ED17CE29
:101E700011ED15CEF201D182C082BBCE0E949F1718
:101E80001F920F920FB60F9211242F933F938F93AF
:101E90009F93AF93BF938091F6019091F701A0912A
:101EA000F801B091F9013091F50123E0230F2D37AE
:101EB00058F50196A11DB11D2093F5018093F601FF
:101EC0009093F701A093F801B093F9018091FA0182
:101ED0009091FB01A091FC01B091FD010196A11D23
:101EE000B11D8093FA019093FB01A093FC01B09384
:101EF000FD01BF91AF919F918F913F912F910F90D5
:101F00000FBE0F901F90189526E8230F0296A11D73
:101F1000B11DD2CF1F920F920FB60F9211248F9343
:101F20009F938091E1009091E100937F9093E10075
:101F300083FF0FC01092E90091E09093EB001092A4
:101F4000EC0092E39093ED0010920B0298E09093D6
:101F5000F00082FF22C093E09093E9009091F2009C
:101F6000992319F09AE39093E8009091ED01992359
:101F700041F09091ED0191509093ED01911101C0CC
:101F80005D9A90910A02992341F090910A02915032
:101F900090930A02911101C0289A84FF18C0809181
:101FA000E2008E7E81608093E2008091E1008F7E6E
:101FB0008093E1008091EE018E7E80618093EE013E
:101FC0009F918F910F900FBE0F901F90189580FFDB
:101FD000F7CF8091E2008E7E80618093E200809155
:101FE000E1008E7E8093E1008091EE018E7E816023
:101FF000E5CF1F920F920FB60F921124CF92DF926E
:10200000EF92FF920F931F932F933F934F935F9302
:102010006F937F938F939F93AF93BF93EF93FF93B0
:10202000CF93DF93CDB7DEB76C97DEBFCDBF1092F5
:10203000E9008091E80083FF25C068E0CE01459665
:102040000E94520282EF8093E8008D8987FF39C099
:102050009091E80090FFFCCF982F907609F034C162
:102060009E894F89588D2F89F88C911131C0803805
:1020700061F58091EF018093F1001092F1008EEFF5
:102080008093E8006C960FB6F894DEBF0FBECDBF0C
:10209000DF91CF91FF91EF91BF91AF919F918F9180
:1020A0007F916F915F914F913F912F911F910F9170
:1020B000FF90EF90DF90CF900F900FBE0F901F908A
:1020C00018959EEF9093E800C7CF1092F100D5CFFE
:1020D000913059F48111D3CF4130510581F680916F
:1020E000EF018D7F8093EF01CACF933049F48111C6
:1020F000C6CF4130510519F68091EF018260F2CFD1
:10210000953041F48091E80080FFFCCF2068209357
:10211000E300B5CF963009F0A9C00B8D1C8D22E0ED
:102120001092E9001092EB011092EA01F2122EC017
:102130001092E9011092E8010E9421021F8299E0A9
:102140009983FA8291E09E8390EA98879AEF998723
:102150002091EA013091EB01275F3F4F3C832B83B5
:102160008D831092E9001092EB011092EA01109316
:10217000E9010093E80149E050E0BE016F5F7F4F45
:1021800080E00E94FB010E94210279CF1093E901B7
:102190000093E8010E945601DC0112960D911C91FA
:1021A0000115110509F451C1D801ED91FC9104808C
:1021B000F581E02DBE016B5E7F4FC8010995009748
:1021C00009F03EC1F80100851185EACFF3E0FF1266
:1021D0000EC08F89882309F440C0823061F440E842
:1021E00065E18CE091E00E942B12811148CF81E2E1
:1021F0008093EB0047CF813029F440E867E084E02A
:1022000091E0F1CF833099F70E945601DC011296DC
:10221000ED90FC908E010F5F1F4F6801E114F104F7
:1022200079F0D701ED91FC910680F781E02DB8019E
:10223000C7010995080F111DF701E084F184EECF65
:10224000D8011C92F60101900020E9F73197BF01F7
:102250006C197D0940E0C601C6CF6EEE70E0FB014F
:10226000449150E080E80E94FB0109CF973009F4C7
:10227000BECF983021F481E08093F10000CF9930F7
:1022800009F0FDCE837009F0B2CFEBE1F1E081E01F
:1022900031E096E32191222371F08093E90030939D
:1022A000EB00DF0111972C912093EC009093ED004F
:1022B0008F5F873079F78EE78093EA001092EA000B
:1022C0008F8980930B02DBCE8B8D9C8D1092E90061
:1022D0001092EB011092EA019093E9018093E801DA
:1022E000898D811192C08E899D89913A49F48132FC
:1022F00009F07DCF47E050E064E071E080E0B3CFCB
:10230000913209F074CF833269F48F89988DB0E0EF
:10231000A0E08093000190930101A0930201B0938B
:102320000301ADCE803269F48091E80082FFFCCFDA
:1023300067E084E091E00E9452028BEF8093E80016
:102340009ECE823209F09BCE8F8980930B01EEEFF7
:10235000FFE7859194918B3F9C4D51F1E0E0F8E0CF
:102360008091040190910501A0910601B0910701AF
:10237000803B9440A105B105F1F480910B0180FDF3
:102380001AC0EE3F8AE0F80789F587E797E791835F
:102390008083809160008093EC0188E19BE00FB620
:1023A000F894A895809360000FBE9093600067CE6C
:1023B000EEEFFAE0D5CF808191818737974709F01A
:1023C0005ECEA895809160008861809360008091C6
:1023D000EC0180936000EE3F2AE0F20789F08091E3
:1023E000FE0A9091FF0A9183808349CE808191817A
:1023F0008737980751F29093FF0A8093FE0AC5CF62
:102400001092FF0A1092FE0A3ACE0E945601DC0199
:1024100012960D911C910115110509F4E8CED80111
:10242000ED91FC910190F081E02DBE016B5E7F4F3C
:10243000C8010995811123CEF80100851185EBCFE4
:10244000181619060CF41BCED2CEF1E0FF12BECE48
:1024500062EF70E004CFEF92FF920F931F93CF9340
:10246000DF93F82E192FE62E042F81E0860F880FB8
:102470000E94CD0183E00E94CD01CF2DD12FEC0E23
:10248000FD2EF11CCE15DF05B9F007FF13C0FE01CC
:1024900084910E94CD01182F80E00E94CD018123FC
:1024A00021968111EFCFDF91CF911F910F91FF9076
:1024B000EF9008958881EDCF81E0F5CF6F927F9204
:1024C0008F929F92AF92BF92CF92DF92EF92FF9244
:1024D0000F931F93CF93DF93EC01842F6C8F4D8D5F
:1024E00070E060E0A82EB12C822E912C602E712C11
:1024F000641770F56530710559F1DB01AA0FBB1F38
:10250000AA0FBB1FFE01EA0FFB1FEA5BFF4F908182
:10251000392F37703A151B0409F087C0392F3695CB
:102520003695369537703815190409F07EC09295A6
:102530009695969593709615170409F076C06E01DE
:1025400096E4C90ED11CCA0EDB1EC114D104F9F4E5
:10255000453008F05BC0A4E04A9FA00111246E0141
:10256000B6E4CB0ED11CC40ED51E2770220F220F4D
:10257000220F982F9770292B902F9295990F990FD2
:10258000907C292BF60120839D8D9F5F9D8FD70125
:1025900013969C911397937010E0933029F4129640
:1025A0009C9112E097FD11E0402F682FE881F9819E
:1025B000068CF78DE02DCE010995882339F1112382
:1025C00029F18E8D8B3010F5282F30E0F901EE0FB8
:1025D000FF1FE20FF31FEC0FFD1FD70112969C9116
:1025E00012979F7095A314969C91149796A394E0CC
:1025F00097A3C10ED11CF601818316968C919BA1E5
:10260000981708F48BA38E8D8F5F8E8FDF91CF91FB
:102610001F910F91FF90EF90DF90CF90BF90AF9000
:102620009F908F907F906F9008956F5F7F4F60CFE6
:10263000EF92FF920F9302970E945E120F91FF900C
:10264000EF900895CF93DF931092100210920F0233
:1026500088EE93E0A0E0B0E0809311029093120224
:10266000A0931302B093140285E291E090930E02BE
:1026700080930D028FEF9FEF90931A0280931902BF
:102680008DE891E09093BE028093BD021092C50246
:1026900081E08093C6021092C7028FEB92E0909384
:1026A000C4028093C3021092BF0288E08093C002EC
:1026B0008CE38093C1021092C202EDEBF2E021E0C4
:1026C0008FEB92E015862687178694878387359649
:1026D00033E0E830F307B1F71092330381E18093E0
:1026E0005D028DEB92E0909363028093620287E338
:1026F00091E090935F0280935E028BE591E090936E
:1027000061028093600210927D0210927E0210920C
:102710007F02109280021092810210928202109227
:10272000B80210926502109267021092660210922F
:10273000680210926A021092690210926B02109263
:102740006D0210926C0210926E0210927002109242
:102750006F02109271021092730210927202109224
:102760007402109276021092750210927702109203
:10277000790210927802E5EAF2E090E080E0DC0174
:10278000AA0FBB1FAA0FBB1FAC55BD4F2C912873BE
:102790002C9310821182019634968530910579F739
:1027A000AEE5B2E090E080E095961C929597382FC8
:1027B00028E0811120E096962C939697FC01EE0F6D
:1027C000FF1FEF01C80FD91FCB57DD4F28812E7F88
:1027D0002D7F2883311137C03FE0E80FF91FEB57F9
:1027E000FD4F330F330F20812370232B208301965D
:1027F00013968B309105C1F681E080937C02109294
:102800007B0210927A02E3E1F3E090E080E0219114
:102810003191232BD1F4880F991FFC01ED5EFC4F01
:102820008EE592E09183808381E691E090935F0250
:1028300080935E0287E891E090936102809360024A
:10284000DF91CF91089531E0C8CF01968031910595
:10285000F1F6EACFCF93DF93CDB7DEB765970FB62A
:10286000F894DEBF0FBECDBF789484B5826084BD7E
:1028700084B5816084BD85B5826085BD85B5816084
:1028800085BD80916E00816080936E001092810002
:1028900080918100826080938100809181008160BD
:1028A000809381008091800081608093800080917E
:1028B000910082608093910080919100816080936B
:1028C0009100809190008160809390008091C10080
:1028D00084608093C1008091C10082608093C100B8
:1028E0008091C10081608093C1008091C3008160AC
:1028F0008093C3008091C00082608093C00080916B
:10290000C20081608093C20080917A0084608093CD
:102910007A0080917A00826080937A0080917A00B8
:10292000816080937A0080917A00806880937A0039
:1029300010920B021092EF011092EE018091D700DD
:1029400081608093D70080EA8093D80089B5806148
:1029500089BD89B5826089BD09B400FEFDCF61E003
:1029600070E080E090E00E948F018091D8008F7C21
:1029700080618093D8008091E000807F8093E000A8
:102980008091E1008E7E8093E1008DE08093E200F3
:10299000559A209A8FEF9FEF90931A028093190215
:1029A00010910B016AE070E080E090E00E948F01DE
:1029B0001123B1F3269A0E9436061FB7F89480912E
:1029C000F00181115AC04EE651E0FA0194912DE8D0
:1029D00031E0F9018491E92FF0E0EE0FFF1FE15B98
:1029E000FE4FA591B4919C91892309F037C0E3E390
:1029F000F1E09491F9012491FA018491882309F47A
:102A00002DC09923E9F091509F30D0F4E92FF0E0E8
:102A1000E45FFA4E0C949917B215B6151B15AA155A
:102A2000AE15201520152015B915BF15C315C715EE
:102A3000CD152015D115909180009F77909380003F
:102A4000E82FF0E0EE0FFF1FEF5BFE4FA591B49172
:102A50008FB7F8949C91292B2C938FBF81E10E9412
:102A6000FC008CB580618CBD8CB580648CBD8FE022
:102A70000E94FC0080E10E94FC008091F0018F5FC9
:102A80008093F0011FBF209A289A259868E188E872
:102A90000E94A20660E288E70E94A20660E088E742
:102AA0000E94A20610E000E088E60E94CA060F5FBE
:102AB0001F4F80FF7CC061EC88ED0E94A20660E69B
:102AC00080ED0E94A20664E088EE0E94A20688EED5
:102AD0000E94CA0682FFFBCF0E94A60760E288EC34
:102AE0000E94A20661E080E80E94A2064CE051E04C
:102AF00060E08EE592E00E9418058AE991E00E946C
:102B0000D60787E991E00E94D60701E13E0183E103
:102B1000680E711C83B1182F107285FD0CC088ECF3
:102B20000E94CA0685FF03C00E94A60710E2612F1B
:102B300088EC0E94A20680910C02813009F444C006
:102B400008F446C0823009F49EC0833009F449C0BD
:102B500010E05EC0909180009F7D70CF90918000CA
:102B6000977F6CCF94B59F7794BD6ACF94B59F7DC6
:102B7000FBCF909190009F779093900061CF9091C0
:102B800090009F7DF9CF90919000977FF5CF909125
:102B9000C0009F779093C00053CF9091C0009F7D5D
:102BA000F9CF9091C200977F9093C20049CF0F3F19
:102BB000100709F079CF8BEC91E00E94D60787E9E6
:102BC00091E00E94D607FFCF93E190935D02C0CFC2
:102BD00080915D02807F803109F4BACF00935D025D
:102BE000B7CF11E080915D02807F803189F40E942F
:102BF000C10168537F4F8F4F9F4F6093F1017093D6
:102C0000F2018093F3019093F401A0E2A0935D029E
:102C100093E1E92E93E0F92E6701F60181919191FC
:102C20006F01009739F0DC01ED91FC910680F7818E
:102C3000E02D0995E3E3F3E0EC15FD0571F78091D4
:102C40005D02803409F456C000F58032E9F180332A
:102C500009F44AC0813109F05DC010923303D701F5
:102C60008D919D917D01009739F0DC01ED91FC91F2
:102C70000480F581E02D0995EC14FD0481F782E1D3
:102C800080935D0247C010E0ADCF813509F44AC0A2
:102C9000803809F45AC08035E9F588EC0E94CA06EC
:102CA00086FF38C081E580935D020E94C1016C5EA1
:102CB0007F4F8F4F9F4F6093F1017093F20180938C
:102CC000F3019093F40126C00E94C101C090F1016C
:102CD000D090F201E090F301F090F4016C197D09BD
:102CE0008E099F0997FD16C061E088EE0E94A2063A
:102CF00080E4C6CF88EE0E94CA0680FD0BC088ED36
:102D00000E94CA06682F686088ED0E94A206B0E59E
:102D1000B0935D0280E090E0892B09F4FBCE0E9425
:102D20000000F8CE0E94C1018090F1019090F20164
:102D3000A090F301B090F401681979098A099B0900
:102D400097FDE8CF80E880935D021B8AE8E0EC8B7A
:102D5000FCE3FD8BC090C302D090C4027092C40209
:102D60006092C3021093C7029E012F5F3F4F42E162
:102D700050E060E08DEB92E00E94F40C582ED0926F
:102D8000C402C092C302811151C0A984BA848B8449
:102D90009C843D802E8083E1C82E83E0D82E412C78
:102DA000D6018D919C91009709F042C04394B2E006
:102DB000CB0ED11CE0E14E12F3CFF701808191815F
:102DC000009709F079C05394F2E0EF0EF11C80E116
:102DD0005812F3CF8091C3029091C402892B09F459
:102DE00059C01093C70220E040E060E08DEB92E014
:102DF0000E94C805F82E882309F44CC0682F8DEB7B
:102E000092E00E941D06009709F444C0FC0114835F
:102E10006F2D8DEB92E00E94C30C582E882309F48D
:102E200086C06F2D8DEB92E00E94A605852D2FC0E8
:102E3000DC01ED91FC910084F185E02D0995811173
:102E4000B5CFF60180819181DC01ED91FC91008884
:102E5000F189E02D622D0995882309F4A7CFF601A9
:102E600080819181DC01ED91FC910484F585E02D58
:102E7000A401B5010995882389F0612F842D0E9452
:102E8000E307813D09F492CF882309F450C0823DC5
:102E900009F440CFF0EAF0935D023CCFF601808167
:102EA0009181DC01ED91FC910684F785E02D632D85
:102EB00009958111E2CF7ACFDC01ED91FC9100847C
:102EC000F185E02D099581117ECFF70180819181F7
:102ED000DC01ED91FC910088F189E02D622D0995CE
:102EE000811109C0612F852D0E94E307982F977FDC
:102EF000913D51F668CFF70180819181DC01ED9120
:102F0000FC910484F585E02DA401B501099581119A
:102F10005ACFF70180819181DC01ED91FC9106840B
:102F2000F785E02D632D09958823E1F24CCF80E9E8
:102F3000A7CEEE0FFF1F0590F491E02D099481E0DC
:102F400090E0F8940C94AB17DC0101C06D934150F4
:0A2F50005040E0F70895F894FFCF19
:102F5A00FFFFFFFF00E10000000000001201000077
:102F6A000000470800000000A00300C180810000A3
:102F7A000000000000E4025F020503FA024B0309A5
:102F8A00032703000000001A0D7706E104510A6BBB
:102F9A00067606740672067006FA0418056E063975
:102FAA000568065E123E0FFEFF00001813000000BF
:102FBA00001A0D7706E10485096B06760674067217
:102FCA00067006FA0418056E065306680638066681
:102FDA00065206FEFF00004806000000001D06C853
:102FEA0005A605300020000D0A0055534220486FFF
:102FFA00737420536869656C642072656164792E04
:10300A002057616974696E6720666F722048494467
:10301A00206465766963652E2E2E0055534220483A
:10302A006F737420536869656C6420696E697420D3
:08303A006661696C6564000029
:00000001FF
