:100000000C94B3000C94DB000C94DB000C94DB002C
:100010000C94DB000C94DB000C94DB000C94DB00F4
:100020000C94DB000C94DB000C94C6060C94350792
:100030000C94DB000C94DB000C94DB000C94DB00D4
:100040000C94DB000C94DB000C94DB000C94DB00C4
:100050000C94DB000C94DB000C94DB000C947C060D
:100060000C94DB000C948D090C9467090C94DB0054
:100070000C94DB000C94DB000C94DB000C94DB0094
:100080000C94DB000C94DB000C94DB000C94DB0084
:100090000C94DB000C94DB000C94DB000C94DB0074
:1000A0000C94DB000C94DB000C94DB006364696E41
:1000B0006F70737578585B00080B00020202000035
:1000C00009040000010202000005240010010524BB
:1000D000010101042402060524060001070581032D
:1000E00010004009040100020A0000000705020296
:1000F00040000007058302400000040309041201C8
:100100000002EF0201404123368000010102030199
:1001100041726475696E6F204C4C43004172647586
:10012000696E6F204C656F6E6172646F0005010926
:1001300002A1010901A10085010509190129031581
:10014000002501950375018102950175058103055F
:10015000010930093109381581257F75089503811A
:1001600006C0C000BF0911241FBECFEFDAE0DEBF1A
:10017000CDBF11E0A0E0B1E0EEE5F3E202C00590F2
:100180000D92A835B107D9F723E0A8E5B1E001C089
:100190001D92AB30B207E1F710E0C3EBD0E004C032
:1001A0002197FE010E944E0EC23BD107C9F70E9463
:1001B000870A0C94AD110C940000CF93DF93FC01DF
:1001C00081819091E702482F490F5527551F4830EC
:1001D00051059CF5A281B381109709F523EE32E019
:1001E0003383228320812093E5028093E60280916D
:1001F000E802820F80832091E902A22FB091EA02E7
:100200008A2F821B8917E8F481813D91C82FD0E0A5
:10021000C45FDE4F38838F5F8183F2CFD901189698
:100220002D913C91199721153105C1F723EE32E04C
:1002300019963C932E931897D5CF80E0DF91CF91FC
:10024000089581E0FBCFFC018091F501882311F135
:100250003FB7F89482E08093E9002091F200822F6A
:1002600090E01816190614F481E090E0882339F024
:10027000289844E64093F4014091F1004083222302
:1002800039F02091F200211103C02BE62093E80001
:100290003FBF08958FEF9FEF08953FB7F894809187
:1002A000F0019091F101A091F201B091F30126B516
:1002B000A89B05C02F3F19F00196A11DB11D3FBF9E
:1002C000BA2FA92F982F8827BC01CD01620F711D6D
:1002D000811D911D42E0660F771F881F991F4A9567
:1002E000D1F70895CF92DF92EF92FF920E944D01D5
:1002F0006B017C010E944D016C197D098E099F09DB
:10030000683E734081059105A8F3FF90EF90DF9060
:10031000CF90089540916701509168012091650147
:100320003091660142175307B4F49091E80095703C
:10033000E1F39091E80092FD19C08093F100809163
:1003400067019091680101968F739927892B19F4A1
:100350008EEF8093E800809167019091680101968B
:10036000909368018093670181E0089580E008958B
:10037000EF92FF920F931F93CF93DF93F82E192FD5
:10038000E62E042F81E0860F880F0E948A0183E009
:100390000E948A01CF2DD12FEC0EFD2EF11CCE151F
:1003A000DF05B9F007FF13C0FE0184910E948A01A6
:1003B000182F80E00E948A01812321968111EFCFBE
:1003C000DF91CF911F910F91FF90EF900895888159
:1003D000EDCF81E0F5CFDF92EF92FF920F931F9365
:1003E000CF93DF93D82E8A01EB017B01E40EF51E3B
:1003F000CE15DF0559F0D7FE12C0FE0184910E9490
:100400008A0121968111F4CF0FEF1FEFC801DF9110
:10041000CF911F910F91FF90EF90DF900895888109
:10042000EECF2FB7F89487708093E9009091E800A1
:10043000892F807295FF04C09091F20080E4891B9F
:100440002FBF08957F928F929F92AF92BF92CF92CB
:10045000DF92EF92FF920F931F93CF93DF93C82EFB
:100460008B017A018091F501811110C08FEF9FEF10
:10047000DF91CF911F910F91FF90EF90DF90CF9080
:10048000BF90AF909F908F907F90089580916B0167
:1004900080FF05C08091E00082608093E000CE2D57
:1004A000DF2DD12C8AEFB82E8C2D8770982E8C2DB5
:1004B0008072882E8C2D8074782E9AE3A92E209736
:1004C00019F4DD2009F44EC08C2D0E941102811117
:1004D00006C0BA94BB2051F20E947201F0CF8C1773
:1004E0001D0611F00CF08C2F9FB7F8949092E90044
:1004F0002091E80025FD02C09FBFE1CF282F30E00A
:10050000C21BD30B882029F08150A0F01092F1007B
:10051000FBCFF801C7FC0AC0815050F041914093D5
:10052000F100FACF44914093F10031968150D0F719
:10053000020F131FDD2021F0A092E800D12CDCCFA8
:100540008091E80085FD07C0A092E800DD24D394E7
:10055000209791F2F3CF209779F6772069F2A09255
:10056000E800CACF5D9884E680936A01C70180CF16
:10057000615030F02091F100FC0120830196F8CF0A
:10058000289884E68093F4010895AF92BF92CF92A9
:10059000DF92EF92FF920F931F93CF93DF936C0143
:1005A0007B018B01040F151FEB015E01AE18BF0824
:1005B000C017D10759F06991D601ED91FC910190D6
:1005C000F081E02DC6010995892B79F7C501DF91EE
:1005D000CF911F910F91FF90EF90DF90CF90BF9040
:1005E000AF90089580915D0181110DC082E08093EC
:1005F000590184E080935A0110925C0110925B01D2
:1006000081E080935D0189E591E008951F93CF9388
:10061000DF9300D000D01F92CDB7DEB790910A03D0
:1006200099838A836B834C838091F40281112AC061
:1006300011E01093E7021093E8028DEE92E09093A0
:10064000EA028093E9021092EC021092EB028BE333
:1006500091E09093E4028093E3021092EF021092F3
:10066000EE021092F1021092F0021093F202109337
:10067000F30281EC8093ED020E94F2020E94DD0001
:100680001093F40281E08D8341E050E0BE016B5F86
:100690007F4F8091E6020E94220297FD0AC080915E
:1006A000E60244E050E0BE016F5F7F4F80640E942D
:1006B00022020F900F900F900F900F90DF91CF912B
:1006C0001F91089590910A0380958923981739F016
:1006D00080930A0340E060E080E00C9406030895F4
:1006E00090910A03892B981739F080930A0340E010
:1006F00060E080E00C94060308950F931F93CF935E
:10070000DF931F92CDB7DEB782E0898342E450E0E9
:1007100068EB70E080E80E94EB010E94F202DC01CD
:1007200012960D911C910115110589F0D801ED91DA
:10073000FC910280F381E02DBE016F5F7F4FC80105
:10074000099597FD04C0F80100851185ECCF8981DA
:100750000F90DF91CF911F910F910895FC01538D60
:10076000448D252F30E0842F90E0821B930B54178B
:1007700010F0CF96089501970895FC01918D828D18
:10078000981761F0A28DAE0FBF2FB11D5D968C91B1
:10079000928D9F5F9F73928F90E008958FEF9FEFF0
:1007A0000895FC01918D828D981731F0828DE80FAC
:1007B000F11D858D90E008958FEF9FEF0895FC0166
:1007C000918D228D892F90E0805C9F4F821B910933
:1007D0008F739927089586EF91E00E94DF0321E04F
:1007E000892B09F420E0822F089580E090E0892B86
:1007F00029F00E94EB0381110C9400000895FC0184
:10080000A48DA80FB92FB11DA35ABF4F2C91848D71
:1008100090E001968F739927848FA689B7892C93CE
:10082000A089B1898C9182748C93938D848D981357
:1008300006C00288F389E02D80818F7D8083089532
:10084000EF92FF920F931F93CF93DF93EC0181E020
:10085000888F9B8D8C8D981319C0E889F9898081C8
:1008600085FF14C09FB7F894EE89FF896083E889FB
:10087000F9898081827480839FBF81E090E0DF915D
:10088000CF911F910F91FF90EF900895F62E0B8D51
:1008900010E00F5F1F4F0F731127E02E8C8D8E110C
:1008A0000CC00FB607FCFACFE889F989808185FF73
:1008B000F5CFCE010E94FF03F1CFEB8DEC0FFD2FA2
:1008C000F11DE35AFF4FF0829FB7F8940B8FEA892E
:1008D000FB8980818062CFCFCF93DF93EC01888D3D
:1008E0008823B9F0AA89BB89E889F9898C9185FDAB
:1008F00003C0808186FD0DC00FB607FCF7CF8C9139
:1009000085FFF2CF808185FFEDCFCE010E94FF03EE
:10091000E9CFDF91CF910895CF93DF93EC018091E0
:100920000B01882331F083E00E9422021816190679
:1009300034F081E090E09B838A8380E090E0DF9157
:10094000CF910895CF93DF931F92CDB7DEB7698320
:10095000DC01ED91FC910280F381E02D41E050E05B
:10096000BE016F5F7F4F09950F90DF91CF91089582
:1009700083E08093E9008091F200882319F08AE3F4
:100980008093E800089583E00E94110290E00895AA
:10099000CF93DF931F92CDB7DEB7FC018485958599
:1009A00097FD08C02FEF3FEF358724870F90DF9129
:1009B000CF910895CE0101960E942301019719F469
:1009C000898190E0F3CF8FEF9FEFF0CF0F931F93CC
:1009D000CF93DF931F92CDB7DEB78C01FC018485E6
:1009E000958597FF0BC0CE0101960E9423010197C8
:1009F00071F4898190E0F80195878487F8018485F6
:100A000095850F90DF91CF911F910F9108958FEFF2
:100A10009FEFF1CFFC018485958597FD0BC09FB7B3
:100A2000F89482E08093E9008091F2009FBF90E00B
:100A3000019608959FB7F89482E08093E900809131
:100A4000F2009FBF90E00895DC01FB0112962C910B
:100A50001297848195812817190641F4918180812C
:100A6000813A31F49D7F81E0913009F080E0089572
:100A70008132E1F79B3029F482811F968C9381E0CB
:100A800008959A3099F7828150968C93F8CFDC01C3
:100A9000FB0188E4808389E4818384E482831D965A
:100AA0009C911D979F709F5B93831D968D919C9148
:100AB00024E0969587952A95E1F78F708F5B848364
:100AC00085E00895EF92FF920F931F93CF93DF93EA
:100AD000FB012081213871F52381223259F5DC0197
:100AE00012964C91248135814217130619F5EC01B9
:100AF0000B851C85F12CE12C0115110589F0F801FD
:100B0000448155816281738180E80E94EB018F3FAF
:100B1000980749F0E80EF91ED8010D911C91ECCF11
:100B200081E08F87C701DF91CF911F910F91FF90D7
:100B3000EF90089590E080E0F6CFCF93DF93CDB7AC
:100B4000DEB769970FB6F894DEBF0FBECDBFFC01CC
:100B5000DB018C918F5F8C939E012D5F3F4F8DE069
:100B6000D9011D928A95E9F729E0298384E08A83D7
:100B700091E09D8383E08E832A8721E22B879C87E7
:100B80009D879F8722E2288B27E02B8B25E02C8BEB
:100B90008E8B20E430E0388F2F8B998F82818B836E
:100BA00095858685998B8A8B838180688D8B49E1B9
:100BB00050E0BE016F5F7F4F80E00E94EB016996BD
:100BC0000FB6F894DEBF0FBECDBFDF91CF91089571
:100BD0001F93CF93DF93C0917E0180916D01C82B4D
:100BE000C770809158018C1731F1D82FD095DC2334
:100BF0001C2F10951823D0FF03C081E00E947003C2
:100C000010FF03C081E00E946203D1FF03C082E0B5
:100C10000E94700311FF03C082E00E946203D4703F
:100C200019F084E00E94700312FF03C084E00E9468
:100C30006203C0935801DF91CF911F910895CF9324
:100C4000DF93EC01DB014115510531F12881398138
:100C50001416150624F570E060E0121613064CF425
:100C6000BA01241735070CF4B901261B370B398359
:100C70002883461B570B1416150674F48D919C910E
:100C800011971816190644F4841795070CF4AC0153
:100C9000841B950B8D939C93DF91CF910895EE2744
:100CA000FF27E41BF50B37FF24C042175307FCF462
:100CB00044275527421B530B240F351F39832883A4
:100CC000E41BF50B1E161F063CF74D915C91119726
:100CD00057FFE2CF22273327241B350BE217F307F8
:100CE0000CF49F01240F351F2D933C93D5CFAF01FA
:100CF000E3CF50E040E0E4CF1F920F920FB60F9287
:100D000011242F933F938F939F93AF93BF93809121
:100D1000EC019091ED01A091EE01B091EF013091C5
:100D2000EB0123E0230F2D3758F50196A11DB11DCE
:100D30002093EB018093EC019093ED01A093EE01E1
:100D4000B093EF018091F0019091F101A091F20137
:100D5000B091F3010196A11DB11D8093F001909314
:100D6000F101A093F201B093F301BF91AF919F9174
:100D70008F913F912F910F900FBE0F901F9018955C
:100D800026E8230F0296A11DB11DD2CF1F920F920C
:100D90000FB60F9211248F939F938091E100909151
:100DA000E100937F9093E10083FF0FC01092E90070
:100DB00091E09093EB001092EC0092E39093ED00A1
:100DC0001092F50198E09093F00082FF22C093E02A
:100DD0009093E9009091F200992319F09AE390938F
:100DE000E80090916A01992341F090916A01915035
:100DF00090936A01911101C05D9A9091F401992339
:100E000041F09091F40191509093F401911101C03F
:100E1000289A84FF18C08091E2008E7E81608093C2
:100E2000E2008091E1008F7E8093E10080916B0170
:100E30008E7E806180936B019F918F910F900FBE8A
:100E40000F901F90189580FFF7CF8091E2008E7E63
:100E500080618093E2008091E1008E7E8093E100CA
:100E600080916B018E7E8160E5CF1F920F920FB64D
:100E70000F921124CF92DF92EF92FF920F931F9364
:100E80002F933F934F935F936F937F938F939F9392
:100E9000AF93BF93EF93FF93CF93DF93CDB7DEB7BD
:100EA0006C97DEBFCDBF1092E9008091E80083FF10
:100EB00025C068E0CE0145960E94B80282EF80937B
:100EC000E8008D8987FF39C09091E80090FFFCCF42
:100ED000982F907609F034C19E894F89588D2F89BB
:100EE000F88C911131C0803861F580916C0180934C
:100EF000F1001092F1008EEF8093E8006C960FB62F
:100F0000F894DEBF0FBECDBFDF91CF91FF91EF917F
:100F1000BF91AF919F918F917F916F915F914F9111
:100F20003F912F911F910F91FF90EF90DF90CF9005
:100F30000F900FBE0F901F9018959EEF9093E800B2
:100F4000C7CF1092F100D5CF913059F48111D3CF92
:100F50004130510581F680916C018D7F80936C0149
:100F6000CACF933049F48111C6CF4130510519F6EB
:100F700080916C018260F2CF953041F48091E8005D
:100F800080FFFCCF20682093E300B5CF963009F0B6
:100F9000A9C00B8D1C8D22E01092E900109268010F
:100FA00010926701F2122EC0109266011092650134
:100FB0000E947D031F8299E09983FA8291E09E83CB
:100FC00090EA98879AEF998720916701309168019C
:100FD000275F3F4F3C832B838D831092E900109253
:100FE000680110926701109366010093650149E062
:100FF00050E0BE016F5F7F4F80E00E94EB010E94D6
:101000007D0379CF10936601009365010E94F2027F
:10101000DC0112960D911C910115110509F451C1C5
:10102000D801ED91FC910480F581E02DBE016B5E4D
:101030007F4FC8010995009709F03EC1F80100856E
:101040001185EACFF3E0FF120EC08F89882309F4DF
:1010500040C0823061F440E860E18CE191E00E94A0
:10106000B801811148CF81E28093EB0047CF8130F6
:1010700029F440E86BE080E191E0F1CF833099F70B
:101080000E94F202DC011296ED90FC908E010F5F3F
:101090001F4F6801E114F10479F0D701ED91FC9143
:1010A0000680F781E02DB801C7010995080F111DD1
:1010B000F701E084F184EECFD8011C92F601019093
:1010C0000020E9F73197BF016C197D0940E0C601A6
:1010D000C6CF6AEF70E0FB01449150E080E80E94C7
:1010E000EB0109CF973009F4BECF983021F481E0AD
:1010F0008093F10000CF993009F0FDCE837009F0A4
:10110000B2CFEDE0F1E081E031E096E321912223DE
:1011100071F08093E9003093EB00DF0111972C917F
:101120002093EC009093ED008F5F873079F78EE786
:101130008093EA001092EA008F898093F501DBCE5C
:101140008B8D9C8D1092E9001092680110926701BE
:101150009093660180936501898D811192C08E897B
:101160009D89913A49F4813209F07DCF47E050E002
:1011700064E071E080E0B3CF913209F074CF833244
:1011800069F48F89988DB0E0A0E08093000190937E
:101190000101A0930201B0930301ADCE803269F446
:1011A0008091E80082FFFCCF67E084E091E00E943C
:1011B000B8028BEF8093E8009ECE823209F09BCE7E
:1011C0008F8980930B01EEEFFFE7859194918B3F20
:1011D0009C4D51F1E0E0F8E080910401909105010F
:1011E000A0910601B0910701803B9440A105B10593
:1011F000F1F480910B0180FD1AC0EE3F8AE0F80700
:1012000089F587E797E791838083809160008093D9
:10121000690188E19BE00FB6F894A895809360007F
:101220000FBE9093600067CEEEEFFAE0D5CF8081DD
:1012300091818737974709F05ECEA895809160002D
:101240008861809360008091690180936000EE3F27
:101250002AE0F20789F08091FE0A9091FF0A9183BB
:10126000808349CE808191818737980751F290938E
:10127000FF0A8093FE0AC5CF1092FF0A1092FE0A61
:101280003ACE0E94F202DC0112960D911C910115DA
:10129000110509F4E8CED801ED91FC910190F0819F
:1012A000E02DBE016B5E7F4FC8010995811123CEF1
:1012B000F80100851185EBCF181619060CF41BCE2A
:1012C000D2CEF1E0FF12BECE6EEF70E004CF1F92DF
:1012D0000F920FB60F9211242F933F934F935F936A
:1012E0006F937F938F939F93AF93BF93EF93FF93EE
:1012F00086EF91E00E94FF03FF91EF91BF91AF91C4
:101300009F918F917F916F915F914F913F912F911D
:101310000F900FBE0F901F9018951F920F920FB64F
:101320000F9211242F938F939F93EF93FF93E0914C
:101330000602F09107028081E0910C02F0910D020B
:1013400082FD1BC0908180910F028F5F8F7320916F
:101350001002821741F0E0910F02F0E0EA50FE4FD8
:10136000958F80930F02FF91EF919F918F912F9115
:101370000F900FBE0F901F9018958081F4CFCF93E0
:101380001092F9011092F80188EE93E0A0E0B0E02D
:101390008093FA019093FB01A093FC01B093FD01AF
:1013A00027E131E03093F7012093F6012DEC30E096
:1013B00030930302209302022CEC30E030930502BC
:1013C0002093040228EC30E03093070220930602B9
:1013D00029EC30E030930902209308022AEC30E037
:1013E00030930B0220930A022EEC30E030930D0272
:1013F00020930C0210920F02109210021092110210
:101400001092120210929602109295028093970207
:1014100090939802A0939902B0939A0289E291E086
:1014200090939402809393028FEF9FEF9093A0028A
:1014300080939F0210920A0380910203811113C0CE
:101440001092FD021092FC028DE291E09093FF0257
:101450008093FE0286E390E0909301038093000363
:1014600081E0809302038091F40281112AC0C1E0DF
:10147000C093E702C093E8028DEE92E09093EA02F7
:101480008093E9021092EC021092EB028BE391E060
:101490009093E4028093E3021092EF021092EE0226
:1014A0001092F1021092F002C093F202C093F30284
:1014B00081EC8093ED020E94F2020E94DD00C09355
:1014C000F402E091EE02F091EF023097B9F48CEF64
:1014D00092E09093EF028093EE028091F00290915F
:1014E000F1022091000330910103820F931F90932A
:1014F000F1028093F002CF910895FC0180819181E7
:101500000097D9F78CEF92E091838083E6CFCF9359
:10151000DF93CDB7DEB72C970FB6F894DEBF0FBEC2
:10152000CDBF789484B5826084BD84B5816084BD6C
:1015300085B5826085BD85B5816085BD80916E0071
:10154000816080936E0010928100809181008260A2
:1015500080938100809181008160809381008091DF
:1015600080008160809380008091910082608093F0
:101570009100809191008160809391008091900012
:101580008160809390008091C10084608093C1004D
:101590008091C10082608093C1008091C100816010
:1015A0008093C1008091C30081608093C3008091CB
:1015B000C00082608093C0008091C20081608093EF
:1015C000C20080917A00846080937A0080917A00D2
:1015D000826080937A0080917A00816080937A00A3
:1015E00080917A00806880937A001092F5011092C1
:1015F0006C0110926B018091D70081608093D700BD
:1016000080EA8093D80089B5806189BD89B5826000
:1016100089BD09B400FEFDCF0E9472018091D800FF
:101620008F7C80618093D8008091E000807F8093E0
:10163000E0008091E1008E7E8093E1008DE0809358
:10164000E200559A209A8FEF9FEF9093A00280932B
:101650009F02E0910602F091070282E08083E09110
:101660000202F09103021082E0910402F09105025F
:1016700080E1808310920E02E0910A02F0910B0249
:1016800086E08083E0910802F09109028081806108
:101690008083E0910802F091090280818860808354
:1016A000E0910802F0910902808180688083E091D6
:1016B0000802F091090280818F7D80838E010F5F87
:1016C0001F4F58014E0113E0810E911C66246A944D
:1016D000762C42E5442E41E0542EDD24D39483E958
:1016E00092E00E940A05892B79F501E012E033E0CF
:1016F000F32E86EF91E00E94DF036C01892B09F441
:1017000092C186EF91E00E94BD03909188019130D3
:1017100009F427C108F41FC1923009F437C193308E
:1017200041F76091860190918701292F30E026557D
:101730003F4FE3E8F1E040E0641709F439C151910B
:10174000250F311D4F5FF8CF83E992E00E94C80456
:101750008D3029F2E091EA018A3009F0F0C0E036DC
:1017600008F0EFE5F0E0E657FE4F10828091890126
:10177000811108C080918A018D3411F08B3411F4ED
:10178000D09289010AE811E0F801C19020E2C21666
:1017900009F45BC039E0C31609F457C0F8010190A1
:1017A0000020E9F731977F01E01AF10A0E171F07B1
:1017B00009F458C082918032B1F38930A1F326E058
:1017C000E216F10408F043C080918901882309F4EE
:1017D00049C051E0E516F10409F469C08DE4C8126E
:1017E00066C0F80181818C32E9F51C821B821A8265
:1017F0001982BF92AF929F928F925F924F920E5F2B
:101800001F4F1F930F930E94620E0FB6F894DEBF16
:101810000FBECDBF029731F580917001909171019B
:101820002B813C81820F931F9093710180937001F3
:1018300080916E0190916F0129813A81820F931FEF
:1018400090936F0180936E010DC08F019DCF46E094
:1018500050E063E471E0C8010E94540E892B29F422
:10186000D09289011092EA013ACF47E0E416F104E0
:1018700008F4AACF47E050E06AE471E0C8010E9492
:10188000540E892B09F0A0CF1092890110926D019E
:10189000109273011092720110926F0110926E01FA
:1018A00010927101109270010E94E805DBCF2BE4C9
:1018B000C212D8CF7A82698233E0E316F104C0F015
:1018C000F80181818C32A1F4BF92AF9225E5E22E1E
:1018D00021E0F22EFF92EF920E5F1F4F1F930F93A6
:1018E0000E94620E0F900F900F900F900F900F902C
:1018F00089819A818130910531F480916D018160F7
:1019000080936D01D1CF892B21F480916D018E7F61
:10191000F7CF80916D01816080936D010E94E80591
:101920000E944D016C507E4F8F4F9F4F609374010A
:1019300070937501809376019093770193CFEF3583
:1019400008F0CDCE91E09E0F9093EA01F0E0E657CB
:10195000FE4F8083C4CE8A3A09F0CBCE0093880133
:10196000C8CE809387018D3439F41093860110928C
:10197000850110938801BDCE823419F4009386014D
:10198000F6CF8735D9F310928801B3CEE091850167
:1019900091E09E0F90938501F0E0ED57FE4F80831C
:1019A00080918601981708F4A4CEF0928801A1CE08
:1019B0008213E9CF9D34E9F48091810190918201F5
:1019C00020918301820F911D27FD9A9590938201AA
:1019D0008093810180917F01909180012091840109
:1019E000820F911D27FD9A959093800180937F012E
:1019F000CACF923431F480918301877080937E0145
:101A0000C2CF973509F0BFCF80917C0190917D01C5
:101A100020918301820F911D27FD9A9590937D015E
:101A200080937C01B0CF0E944D01E0907801F0904E
:101A3000790100917A0110917B019B01AC012E1973
:101A40003F09400B510B57FDECC08B019C0100532B
:101A5000184F2F4F3F4F0093780110937901209337
:101A60007A0130937B0100917401109175012091EE
:101A70007601309177010115110521053105A9F095
:101A8000601B710B820B930B97FD0FC080916D0152
:101A90008E7F80936D010E94E80510927401109270
:101AA00075011092760110927701E0907C01F09020
:101AB0007D010091720110917301C701800F911F88
:101AC000AC01990F660B770B403851056105710524
:101AD0000CF0B4C041385F4F6F4F7F4F0CF4B1C072
:101AE000382E882369F1432D60E080E00E940603D0
:101AF000832D330C990B181619060CF0A5C01E1473
:101B00001F042CF467018E159F050CF46C01EC1872
:101B1000FD088C199D091816190654F410161106A3
:101B20003CF49801801791070CF49C01021B130BE5
:101B3000F0927D01E0927C01109373010093720199
:101B4000209181013091820138872F8360917F013C
:101B5000709180017E836D8340917001509171017D
:101B60005C834B8380916E0190916F019A8389838E
:101B7000420F531F8A01550F220B330B00381105FA
:101B8000210531050CF082C001381F4F2F4F3F4F08
:101B90000CF47EC0042F680F791FCB01770FAA0BBE
:101BA000BB0B80389105A105B1050CF073C08138DD
:101BB0009F4FAF4FBF4F0CF46FC0162F011102C0E3
:101BC000662369F140E0612F802F0E940603402FB9
:101BD000000F550BB401CE0107960E941F06412F3E
:101BE000110F550BB501CE0105960E941F068F817E
:101BF000988590938201809381018B819C81909341
:101C00007101809370018D819E81909380018093FA
:101C10007F0189819A8190936F0180936E010E9468
:101C2000E80580E090E0892B09F457CD0E94EB0392
:101C3000882309F452CD0E9400004BCD9FE7392E36
:101C400052CF81E8382E4FCF919581959109F7FEBB
:101C500008C0CC24DD24CE18DF088C159D050CF4BB
:101C60006C01EC0CFD1C8C199D09181619060CF062
:101C70005FCF17FF5DCF22273327201B310B821741
:101C800093070CF49C01020F131F52CF0FE783CF71
:101C900001E881CF1FE796CF11E894CFEE0FFF1F29
:101CA0000590F491E02D0994FB01DC014150504076
:101CB00030F08D910190801919F40020B9F7881B3C
:101CC000990B0895AEE0B0E0E8E6FEE00C948611D2
:101CD00085E08C838B899C899A838983AE01495ED8
:101CE0005F4F6D897E89CE0101960E9406102E9667
:101CF000E2E00C94A21120FD09C0FC0123FD05C007
:101D000022FF02C07383628351834083089544FDA0
:101D100017C046FD1DC0DB01FC01AA0FBB1FEE1F53
:101D2000FF1F1094D1F76A0F7B1F8E1F9F1F660F36
:101D3000771F881F991F620F711D811D911D0895C6
:101D400033E0660F771F881F991F3150D1F7F3CF0B
:101D500034E0F7CF0F931F93CF93DF938C01C8012B
:101D60000E941F11EC0197FD08C00E940B11892BE6
:101D7000B1F7B801CE010E945B11CE01DF91CF9186
:101D80001F910F9108958F929F92AF92BF92EF9201
:101D9000FF920F931F93CF93DF938C01D62F7A017D
:101DA000B22E0E941F119C0133272B32310529F0DE
:101DB0002D323105A9F46894B7F8D15061F480E070
:101DC000DF91CF911F910F91FF90EF90BF90AF9057
:101DD0009F908F900895C8010E941F1197FDEFCF2B
:101DE000CB2DCD7F2B2D2073F9F48033E9F4AA2479
:101DF000AA94AD0E89F0C8010E941F1197FD0CC076
:101E0000282F2F7D283561F4C264D25029F0C801F3
:101E10000E941F1197FF08C0812C912C54011BC0F8
:101E2000B6FE2BC0C260DA2D812C912C540120ED1E
:101E3000280F283028F1C4FD09C02A3008F1C6FF58
:101E400005C02F7D3FEE320F3630C8F0B8010E943A
:101E50005B11C1FFB4CFC7FF08C0B094A0949094A9
:101E60008094811C911CA11CB11C2C2FB501A401D4
:101E7000C7010E947B0E81E0A3CFC261D4CF27505F
:101E80004C2FC501B4010E94870E4B015C01C2605A
:101E9000D15009F3C8010E941F1197FFC8CFD9CFB5
:101EA000A0E2B0E0E6E5FFE00C947B115C01962E29
:101EB0007A01CE0101966C0180E2F60111928A95B9
:101EC000E9F7F501B381890130E020E0712C812C24
:101ED000A0E041E050E0F801B3FD8591B3FF8191AE
:101EE000982F8F01811107C010E000E0C801A09673
:101EF000EDE00C9497118E3519F42115310541F15F
:101F0000A21713064CF48D3549F18D3229F4811056
:101F100006C0882483941DC0882009F464C0E92F7A
:101F2000E695E695E695EC0DFD2DF11D892F877060
:101F3000BA0101C0660F8A95EAF78081682B608339
:101F4000791651F0971510F49F5FE9CF9150E7CFC4
:101F5000A1E02F5F3F4FBFCF812CFBCF882019F02E
:101F60008E8180628E83AA2359F0F6019E012F5D37
:101F70003F4F8081809580833196E217F307C9F740
:101F800088248394C5010E941F1197FD16C0E82F75
:101F9000E695E695E695EC0DFD2DF11D208130E0EE
:101FA000AC014770552702C0359527954A95E2F751
:101FB00020FD06C0B5010E945B11882069F094CF16
:101FC000E114F10429F0F7018083C70101967C0137
:101FD0009A94812C9110D6CFE114F10409F486CFA4
:101FE000F701108283CFE82FE695E695E695EC0D94
:101FF000FD2DF11D982F9770BA0101C0660F9A95BB
:10200000EAF79081692B6083782EA3CFB0E0A0E03F
:10201000ECE0F0E10C9479116C01EB015A01FC0148
:1020200017821682512CF601E380FE01E3FC8591B4
:10203000E3FE8191182FEF018823E9F090E00E94E0
:102040000B11892B21F0C6010E94AA0EECCF15328C
:1020500041F4FE01E3FC1591E3FE1191EF0115320D
:1020600069F4C6010E941F1197FD8EC01817D9F29E
:10207000B6010E945B11852D90E08AC000E01A3203
:1020800031F4E3FC1591E3FE1191EF0101E0F12C35
:1020900020ED210F2A3048F101FF37C0FF2059F30E
:1020A0001836B1F11C3609F43DC0112321F3612F1C
:1020B00070E08CEA90E00E941411892BE1F2912CDF
:1020C000812C00FD06C0F50180809180C50102963B
:1020D0005C011E3679F5F6014681578170E060E0BB
:1020E000202FC4010E947B0E9ECF02606F2D70E0F6
:1020F00090E080E040E20E94870EF62EFE01E3FCB5
:102100001591E3FE1191EF01C3CFFF24FA94C8CFDC
:10211000FE01E3FC1591E3FE1191EF01183609F081
:10212000C4CF08600460FE01E3FC1591E3FE119149
:10213000EF01BBCF1336C1F401FD02C0FF24F394BD
:10214000C6010E941F1197FD1FC08114910429F040
:10215000F4018083C40101964C01FA94F110F0CF90
:1021600000FD61CF53945FCF1B35B9F49E01A401EC
:102170006F2DC6010E94500FEC01892B89F7F601E3
:102180008381807309F477CF8FEF9FEF511073CF66
:10219000CDB7DEB7EFE00C949511C6010E94AA0EF0
:1021A00097FDF2CF1F36A9F130F4143641F01936FD
:1021B00039F0006405C01337B9F01537D1F7006264
:1021C000202FA4016F2DC6010E94C30E8111C8CF1C
:1021D000D6CF8114910429F0F4016082C4010196E4
:1021E0004C01FA94FF2071F0C6010E941F113C01BE
:1021F00097FD08C00E940B11892B59F3B601C3014A
:102200000E945B118114910409F4AACFF401108299
:10221000A7CF0061D5CF91110C947311803219F0C2
:1022200089508550C8F70895FC010590061621F0E5
:102230000020D9F7C00108953197CF010895CF93B9
:10224000DF93EC012B8120FF1AC026FF0CC02F7BEF
:102250002B838E819F8101969F838E838A8190E05C
:10226000DF91CF91089522FF18C0E881F981808124
:10227000082E000C990B009729F420622B838FEF16
:102280009FEFEECF3196F983E8832E813F812F5F58
:102290003F4F3F832E839927E3CFEA85FB8509953E
:1022A00097FFF3CF2B81019621F080E2822B8B8365
:1022B000E6CF80E1FBCFFB01238120FF11C026FD8B
:1022C0000FC08F3F980771F082832F7D2064238396
:1022D0002681378121503109378326839927089534
:1022E0008FEF9FEF08959927882708952F923F92A7
:1022F0004F925F926F927F928F929F92AF92BF9216
:10230000CF92DF92EF92FF920F931F93CF93DF93C1
:10231000CDB7DEB7CA1BDB0B0FB6F894DEBF0FBE1E
:10232000CDBF09942A88398848885F846E847D846B
:102330008C849B84AA84B984C884DF80EE80FD806D
:102340000C811B81AA81B981CE0FD11D0FB6F894E3
:0E235000DEBF0FBECDBFED010895F894FFCFA4
:10235E00FFFFFFFF00E100000000000000C18081D0
:10236E00000000000000002004C502AE036C04DF74
:10237E0003BD03D10300000000A2048C04C304B803
:10238E00040A05C804E6040000000024059D056249
:10239E00054705454E41424C450044495341424C88
:0823AE00450025642C256400A4
:00000001FF
